:020000022000DC
:1070000000000420197202000172020003720200E3
:1070100005720200077202000972020000000000FF
:107020000000000000000000000000000B720200E1
:107030000D720200000000000F72020011720200C7
:10704000C9F102001372020025000300137202004E
:1070500013720200137202001DFF0200137202007D
:107060001372020013720200137202001372020004
:1070700013720200137202001372020013720200F4
:10708000137202001519030013720200137202003A
:107090001372020013720200A54203001372020071
:1070A00013720200137202001372020013720200C4
:1070B00013720200137202000000000000000000C2
:1070C00013720200137202001372020013720200A4
:1070D0001372020013720200137202001372020094
:1070E000137202001372020013720200000000000B
:1070F0000000000013720200000000001372020082
:10710000000000000000000000000000000000007F
:10711000000000000000000000000000000000006F
:10712000000000000000000000000000000000005F
:10713000000000000000000000000000000000004F
:10714000000000000000000000000000000000003F
:10715000000000000000000000000000000000002F
:10716000000000000000000000000000000000001F
:10717000000000000000000000000000000000000F
:1071800000000000000000000000000000000000FF
:1071900000000000000000000000000000000000EF
:1071A00000000000000000000000000000000000DF
:1071B00000000000000000000000000000000000CF
:1071C00000000000000000000000000000000000BF
:1071D00000000000000000000000000000000000AF
:1071E000000000000000000000000000000000009F
:1071F000000000000000000000000000000000008F
:10720000FEE7FEE7FEE7FEE7FEE7FEE7FEE7FEE756
:10721000FEE7FEE700F002B8FFF7FCBF0F484FF0B3
:107220000701884385460E4880470E48016841F4AF
:1072300070010160BFF34F8FBFF36F8F00F01AB87A
:1072400009480A490A4A884207D0521A05D00378E9
:1072500001300B700131013AF9D170470000042070
:107260005587020088ED00E01C4703000023002042
:107270001423002039493A480A1A02D007229143C0
:107280008D46384938480A1A06D00722914381F3BF
:107290000988022282F3148834483549354A00F0BF
:1072A0003EF835483549364A00F039F83548364910
:1072B000364A00F034F836483649374A00F02FF89D
:1072C00036483749374A00F02AF837483749384AAC
:1072D00000F025F837483849384A00F020F8384897
:1072E0003849002200F033F837483849002200F0CE
:1072F0002EF837483749091A0DF042F9364A9047B7
:1073000024482549884205D00268043003B49047D8
:1073100003BCF7E700200021304A9047FEE788428F
:1073200014D0521A12D003460B43134303242342B2
:1073300006D1036804300B600431043AF9D1704778
:10734000037801300B700131013AF9D1704788425E
:1073500002D002700130FAE77047000000000420FC
:1073600000E003200000042000000420AC530300D0
:107370001423002070230020E0730200E073020059
:10738000A4460300AC530300142300201423002060
:107390003047030030470300304703003047030005
:1073A00030470300304703003047030030470300F5
:1073B000AC53030008540300702300207023002006
:1073C00070230020F8280020F8280020F82800204A
:1073D000F8280020F848002041720200E37D0200F6
:1073E000A8DF704700BF1846AEDF704700BF1846E1
:1073F00062DF704700BF184600B585B0019000916C
:10740000009B06330393039B1A88019B5B889A4277
:107410000FD1039B5B89012B0BD1019B5B69002B77
:1074200007D0019B5B69009A9088039A127B0199AF
:10743000984700BF05B05DF804FB00B585B001902A
:107440000091009B0393019B1B88502B04D1019951
:107450000398FFF7D1FF00E000BF00BF05B05DF863
:1074600004FB000010B592B001900091009B1A68D7
:10747000019B5A61484B02AC0FCB84E80F00019B83
:1074800003F1120202AB11461846FFF7B1FF11904B
:10749000119B1093109B002B01D0109B79E0019B56
:1074A0009B7C8DF83A3041F22353ADF83830019A85
:1074B0000EAB19460120FFF793FF1190119B0F931C
:1074C0000F9B002B01D00F9B63E006AB2022002115
:1074D00018460DF0B7F841F22453ADF81830019B6F
:1074E0009B7C8DF81A300123ADF81E300123ADF8D6
:1074F0001C309DF8253043F002038DF825309DF8AF
:10750000253043F010038DF8253001238DF8293004
:1075100001238DF82B30019B1888019B03F10A028F
:1075200006AB194602F01AFE1190119B002B01D0F8
:10753000119B2EE006AB2022002118460DF082F8A8
:1075400041F22553ADF81830019B9B7C8DF81A3021
:107550000123ADF81E300123ADF81C309DF8253015
:1075600043F002038DF825309DF8253043F00803E1
:107570008DF8253001238DF8293001238DF82A302C
:10758000019B1888019B9A1C06AB194602F0E6FD88
:107590000346184612B010BD3047030000B589B04D
:1075A00003460091ADF8063013468DF805300123EF
:1075B000ADF80E3004AB1022002118460DF042F851
:1075C00001238DF81230009B5B89ADF810300DF16E
:1075D000050307930DF10E03069304AABDF80630C8
:1075E00011461846FFF700FF0346184609B05DF83C
:1075F00004FB72DF704700BF184673DF704700BF9F
:10760000184676DF704700BF18467ADF704700BF24
:1076100018467CDF704700BF18467FDF704700BF09
:1076200018468FDF704700BF1846B1DF704700BFB4
:107630001846000000B583B003460091ADF806304F
:10764000BDF80630009A1946034809F073F800BFE8
:1076500003B05DF804FB00BFEFBEADDE08B501204E
:1076600000F091FD00BF08BD00B583B009F0A4FB98
:107670000190019B0093009B002B04D0044A7421CD
:10768000009809F057F800BF03B05DF804FB00BF95
:107690004047030000B587B09DF80030012262F337
:1076A00003038DF800309DF80030012262F30713C8
:1076B0008DF800306B460D221A491846FFF7A9FFD6
:1076C0000590059B0493049B002B04D0164A882147
:1076D000049809F02FF801AB0822002118460CF09D
:1076E000B1FF5023ADF80430A023ADF806300023DD
:1076F000ADF808304FF4C873ADF80A3001AB184646
:10770000FFF783FF0590059B0393039B002B04D099
:10771000054A9221039809F00DF800BF07B05DF803
:1077200004FB00BFB44703004047030000B583B02B
:107730000021094804F00BFB0190019B0093009B82
:10774000002B04D0054A9B21009808F0F3FF00BFEE
:1077500003B05DF804FB00BF88230020404703000E
:1077600000B5ABB041F22353ADF81C30364B9B7CD7
:107770008DF81E3017AB3C22002118460CF062FF3A
:1077800002238DF85C3001238DF85E3006238DF8DE
:107790005F3008AB3C22002118460CF053FF012358
:1077A000ADF8303007AB0D93284B196817AB284A5A
:1077B000184601F056FD2990299B2893289B002B01
:1077C00004D0244AB921289808F0B4FF1F4B9968C7
:1077D00008AB214A184601F044FD2990299B2793C4
:1077E000279B002B04D01B4ABC21279808F0A2FF3E
:1077F00001AB1822002118460CF024FF01238DF85C
:1078000019300023ADF8103001238DF80430002327
:10781000029300238DF818304023039301AB1A46DE
:107820000A490E48FFF7E5FE2990299B2693269BDF
:10783000002B04D0074ACB21269808F07BFF00BF1D
:107840002BB05DF804FB00BF70230020182300203C
:107850001C2300204047030024230020162300207F
:1078600000B583B00190044AD821019808F062FF66
:1078700000BF03B05DF804FB4047030000B583B0D0
:1078800003460091ADF8063013468DF805309DF89B
:107890000530002B03D0022000F0C4FB02E00220E0
:1078A00000F0DAFB00BF03B05DF804FB00B587B061
:1078B0000023029300230193144B019301AB19465B
:1078C000134804F00FFB0590059B0493049B002BC9
:1078D00004D0104AFC21049808F02CFF0E4B0293B0
:1078E00002AB19460D48FFF7BDFD0590059B0393BC
:1078F000039B002B05D0074A4FF48171039808F0D1
:1079000019FF00BF07B05DF804FB00BF61780200FB
:107910009C230020404703007D7802007023002054
:1079200000B585B00190019B1B78002B11D10B4B4A
:107930001B883B211846FFF764FE0390039B0293CC
:10794000029B002B05D0064A4FF48C71029808F078
:10795000F1FE00BF05B05DF804FB00BF142300205A
:107960004047030000B583B00190054A40F223115F
:10797000019808F0DFFE00BF03B05DF804FB00BF14
:107980004047030000B58BB001AB1C220021184614
:107990000CF058FE002301934FF4A02302934FF400
:1079A000A033039303238DF810300023ADF8123079
:1079B00000238DF814300C4B06930C4B079301AB4E
:1079C000184601F093FE0990099B0893089B002B31
:1079D00005D0074A4FF49D71089808F0ABFE00BF30
:1079E0000BB05DF804FB00BF21790200657902004D
:1079F0004047030000B583B00C4B1B7801211846AB
:107A0000FFF7FBFD0190019B0093009B002B05D02D
:107A1000074A40F24511009808F08CFE002000F063
:107A200001FB00BF03B05DF804FB00BF162300207C
:107A30004047030000B58DB001900091019B1B8869
:107A4000562B00F0D680562B00F3E680522B00F028
:107A5000A980522B00F3E080212B2DDC102BC0F2EB
:107A6000DB80103B112B00F2D78001A252F823F0EB
:107A7000C17A0200197B0200197C0200497B0200D6
:107A8000197C0200197C0200197C0200197C02009A
:107A9000197C0200197C0200197C0200197C02008A
:107AA000197C0200197C0200197C0200197C02007A
:107AB000197C0200717B02003B2B00F08780ABE059
:107AC000012000F0AFFA002000F0C6FA019B9A886E
:107AD0005A4B1A80594B1B881946594804F024FA0E
:107AE0000B900B9B0493049B002B05D0554A4FF43D
:107AF000AE71049808F01EFE08F05CFD0B900B9B25
:107B00000393039B002B00F089804E4A4FF4AF7122
:107B1000039808F00FFE81E0012000F09DFA474B2A
:107B20004FF6FF721A8008F071FD0B900B9B0593C6
:107B3000059B002B05D0434A4FF4B371059808F01C
:107B4000F9FDFFF757FF74E03C4B18880023002233
:107B50008521FFF762FD0B900B9B0693069B002B84
:107B60005ED0384A4FF4B871069808F0E3FD57E04C
:107B700000238DF8083000238DF80930019B9B8885
:107B800002AA11461846FFF74CFD0B900B9B07937A
:107B9000079B002B46D02B4A4FF4BE71079808F084
:107BA000C9FD3FE0254B1888002300220021FFF784
:107BB0003CFD0B900B9B0993099B002B34D0214A71
:107BC0004FF4C171099808F0B5FD2DE0019B9B8829
:107BD00013211846FFF715FD0B900B9B0893089B8C
:107BE000002B23D0174A4FF4C571089808F0A2FD66
:107BF0001CE0019B9B8813211846FFF702FD0B90A8
:107C00000B9B0A930A9B002B12D00E4A4FF4C971AA
:107C10000A9808F08FFD0BE000BF0AE000BF08E003
:107C200000BF06E000BF04E000BF02E000BF00E0CC
:107C300000BF00BF0DB05DF804FB00BF142300209F
:107C40009C2300204047030000B587B00CF04AFA9F
:107C50000590059B0493049B002B05D0164A40F227
:107C6000A511049808F066FD0023019301AB1946A5
:107C700001200CF04DFB0590059B0393039B002B0B
:107C800005D00D4A40F2AB11039808F053FD01AB4B
:107C900018460CF0B7FB0590059B0293029B002B46
:107CA00005D0054A40F2AF11029808F043FD00BF2D
:107CB00007B05DF804FB00BF4047030000B585B086
:107CC00003460A468DF8073013468DF806309DF8B6
:107CD0000730262B24D1194B1B889DF80620184904
:107CE0001846FFF75BFC0390039B002B21D0039BFE
:107CF00043F2020293421CD0039B082B19D0039B32
:107D000043F20142934214D0039B0293029B002B47
:107D10000FD00C4A40F2C911029808F00BFD08E0A0
:107D20009DF80730074A4FF4E771184608F002FD46
:107D300000E000BF00BF05B05DF804FB1423002085
:107D4000702300204047030000B583B040F2333277
:107D50000121094808F0A6FB0190019B0093009BBC
:107D6000002B05D0054A4FF4F171009808F0E2FCB1
:107D700000BF03B05DF804FB282300204047030048
:107D800000B583B000230193019B0093009B002B5F
:107D900005D0054A40F2E911009808F0CBFC00BF7D
:107DA00003B05DF804FB00BF4047030000B583B09B
:107DB0000BF0A4FE0190019B0093009B002B05D0CB
:107DC000044A40F2F511009808F0B4FC00BF03B07B
:107DD0005DF804FB4047030008B50BF0A5FE00BFAB
:107DE00008BD08B5FFF7CCFFFFF738FCFFF73CFCF8
:107DF000FFF7AAFFFFF7DAFFFFF726FFFFF74AFCBE
:107E0000FFF794FCFFF752FDFFF7AAFCFFF7BAFD5E
:107E1000FFF7F0FDFFF7E0FFFCE70000BFF34F8F37
:107E200000BF064BDB6803F4E0620449044B1343D4
:107E3000CB60BFF34F8F00BF00BFFDE700ED00E058
:107E40000400FA0500B583B00190019B1B68184639
:107E500000F0C3F80346002B04D10B494FF4F67031
:107E6000FFF7E8FB019B1B681F2B02D84FF0A043D4
:107E700006E0019B1B6803F01F02019B1A60034B85
:107E8000184603B05DF804FBC4470300000300502C
:107E900000B585B00190084611461A4603468DF894
:107EA00003300B468DF8023013468DF8013001ABDC
:107EB0001846FFF7C7FF03909DF803209DF8023096
:107EC0005B001A439DF801309B001A439DF818305F
:107ED0001B0242EA03019DF81C301B04019A19435E
:107EE000039B02F5E07243F8221000BF05B05DF875
:107EF00004FB00B585B00390002301930023009399
:107F00000023012201210398FFF7C2FF00BF05B043
:107F10005DF804FB00B585B003900B468DF80B307F
:107F20009DF80B30002201920022009200220021D5
:107F30000398FFF7ADFF00BF05B05DF804FB00B587
:107F400085B0019001AB1846FFF77CFF0390019BC1
:107F5000012202FA03F31946039800F02AF800BF41
:107F600005B05DF804FB00B585B0019001AB184683
:107F7000FFF768FF0390019B012202FA03F3194601
:107F8000039800F020F800BF05B05DF804FB00B5D1
:107F900083B001900091009B002B03D10198FFF763
:107FA000E2FF02E00198FFF7CAFF00BF03B05DF8EF
:107FB00004FB82B001900091019B009AC3F8082550
:107FC00000BF02B0704782B001900091019B009AFF
:107FD000C3F80C2500BF02B0704784B00190019B2C
:107FE0005B09029300230393029B002B03D0029BA7
:107FF000012B04D007E04FF0FF33039303E04FF66B
:10800000FF73039300BF019B03F01F030193039AC7
:10801000019B22FA03F303F00103DBB2184604B01C
:108020007047000000B583B00190019B032B03D97A
:1080300007494120FFF7FEFA064A019B13441B78CB
:1080400000211846FFF7A3FF00BF03B05DF804FB53
:10805000F44703005C48030000B583B00190019B26
:10806000032B03D907494720FFF7E4FA064A019B8F
:1080700013441B7801211846FFF789FF00BF03B0A6
:108080005DF804FBF44703005C48030000B583B0CF
:108090000023019305E00198FFF7DEFF019B013308
:1080A0000193019B032BF6D900BF00BF03B05DF81D
:1080B00004FB000008B54FF01023D3F8043303F09D
:1080C0000703072B21D1124B0122C3F8042500BF5F
:1080D0000F4BD3F80034002BFAD04FF01023D3F815
:1080E000043323F007034FF0102243F00403C2F8D7
:1080F0000433074B0022C3F8042500BF044BD3F818
:108100000034002BFAD0FFF789FE00BF08BD00BF86
:1081100000E0014000B583B04FF08043D3F8403613
:1081200003F00103002B01D0FFF7C4FF00230193EC
:1081300009E0094A019B13441B781846FFF7D9FE52
:10814000019B01330193019B032BF2D9FFF79EFFA3
:1081500000BF03B05DF804FB5C48030000B583B0CA
:108160000023019307E0262303211846FFF7D2FEE0
:10817000019B01330193019B002BF4D000BF00BF92
:1081800003B05DF804FB00B583B00190019B03F0E0
:108190000103002B01D0FFF7BDFF019B03F0020399
:1081A000002B01D0FFF7DAFF00BF03B05DF804FB3E
:1081B00084B001900B468DF8033013468DF80230E1
:1081C00000230393019B002B3CD19DF80230012B2F
:1081D0000BD19DF80330012B04D1019BDBB20E3390
:1081E000DBB200E000238DF802309DF80330022B53
:1081F0000FD0022B23DC002B16D0012B1FD11449EA
:10820000019A13465B0013440B449DF802201A7038
:108210001AE00F49019A13465B0013440B440133E3
:108220009DF802201A700FE00949019A13465B007D
:1082300013440B4402339DF802201A7004E0072314
:10824000039301E007230393039B184604B0704790
:10825000E823002000B583B0012200210020FFF7B1
:10826000A7FF0190019B002B04D0019B072B01D09D
:10827000019B1CE0072202210120FFF799FF0190DA
:10828000019B002B04D0019B072B01D0019B0EE02A
:10829000042202210020FFF78BFF0190019B002B9D
:1082A00004D0019B072B01D0019B00E0002318465E
:1082B00003B05DF804FB00B583B001220221002069
:1082C000FFF776FF0190019B002B04D0019B072B49
:1082D00001D0019B1CE0072202210120FFF768FF6B
:1082E0000190019B002B04D0019B072B01D0019B27
:1082F0000EE00A2200210020FFF75AFF0190019BA7
:10830000002B04D0019B072B01D0019B00E0002330
:10831000184603B05DF804FB00B585B001900091EC
:10832000019B1B88102B02D0112B18D02FE01A4B69
:108330001B68002B0DD1FFF78DFF0390039B002BD3
:1083400007D0164B1B68002B03D0144B1B680398F7
:108350009847114B1B6801330F4A136017E00E4B0F
:108360001B68013B0C4A13600B4B1B68002B0DD1A3
:10837000FFF7A1FF0390039B002B07D0074B1B685F
:10838000002B03D0054B1B680398984700BF00BF24
:1083900005B05DF804FB00BFF0230020EC230020B3
:1083A000BFF34F8F00BF064BDB6803F4E062044964
:1083B000044B1343CB60BFF34F8F00BF00BFFDE7FB
:1083C00000ED00E00400FA0582B0164B1B68019333
:1083D000154B1B680093019B082B1FD1009B052B9D
:1083E0001AD801A252F823F0018402000584020089
:1083F000098402000D840200118402001584020029
:1084000001230CE001230AE0012308E0012306E038
:10841000012304E0012302E0012300E000231846C9
:1084200002B07047300100103401001082B0164BCA
:108430001B680193154B1B680093019B082B1FD1F0
:10844000009B052B1AD801A252F823F06584020084
:10845000698402006D840200718402007584020048
:108460007984020001230CE001230AE0012308E0E3
:10847000012306E0012304E0012302E0012300E0E0
:108480000023184602B0704730010010340100107C
:1084900082B0164B1B680193154B1B680093019B20
:1084A000082B1FD1009B052B1AD801A252F823F0EC
:1084B000C9840200CD840200D1840200D584020068
:1084C000D9840200DD84020001230CE000230AE0CD
:1084D000002308E0002306E0002304E0002302E07C
:1084E000002300E00023184602B07047300100105E
:1084F0003401001082B0164B1B680193154B1B68AA
:108500000093019B082B1FD1009B052B1AD801A2B9
:1085100052F823F02D8502003185020035850200D6
:10852000398502003D8502004185020001230CE0EF
:1085300000230AE0002308E0002306E0002304E013
:10854000002302E0002300E00023184602B0704739
:10855000300100103401001082B0164B1B680193EB
:10856000154B1B680093019B082B1FD1009B052B0B
:108570001AD801A252F823F09185020095850200D5
:10858000998502009D850200A1850200A585020053
:1085900001230CE000230AE0002308E0002306E0AA
:1085A000002304E0002302E0002300E0002318463B
:1085B00002B07047300100103401001082B0164B39
:1085C0001B680193154B1B680093019B082B1FD15F
:1085D000009B052B1AD801A252F823F0F585020062
:1085E000F9850200FD850200018602000586020071
:1085F0000986020001230CE000230AE0002308E0C2
:10860000002306E0002304E0002302E0002300E052
:108610000023184602B070473001001034010010EA
:1086200082B0164B1B680193154B1B680093019B8E
:10863000082B1FD1009B052B1AD801A252F823F05A
:10864000598602005D86020061860200658602008E
:10865000698602006D86020001230CE001230AE016
:10866000012308E0012306E0012304E0012302E0E6
:10867000012300E00023184602B0704730010010CB
:108680003401001082B0164B1B680193154B1B6818
:108690000093019B082B1FD1009B052B1AD801A228
:1086A00052F823F0BD860200C1860200C586020092
:1086B000C9860200CD860200D186020000230CE0AC
:1086C00000230AE0002308E0002306E0012304E081
:1086D000012302E0012300E00023184602B07047A6
:1086E000300100103401001008B5FFF7CBFF03463E
:1086F000002B07D04FF010234FF08042D3F8083200
:10870000C2F8583500BF08BD00BF044BD3F8003491
:10871000002BFAD000BF00BF704700BF00E001404F
:1087200000B583B00190054A019BC2F80435FFF7FC
:10873000EBFF00BF03B05DF804FB00BF00E00140A9
:10874000024B034A1A6000BF704700BF302300206D
:108750000090D00308B5FFF737FE0346002B0ED07C
:108760004FF080430022C3F80C214FF080430022D9
:10877000C3F810214FF080430022C3F83825FFF7DB
:1087800055FE0346002B76D04FF08053734AD3F842
:108790000434C2F820354FF08053704AD3F80834BF
:1087A000C2F824354FF080536C4AD3F80C34C2F829
:1087B00028354FF08053694AD3F81034C2F82C356D
:1087C0004FF08053654AD3F81434C2F830354FF077
:1087D0008053624AD3F81834C2F834354FF08053CE
:1087E0005E4AD3F81C34C2F840354FF080535B4AE0
:1087F000D3F82034C2F844354FF08053574AD3F8A9
:108800002434C2F848354FF08053544AD3F8283402
:10881000C2F84C354FF08053504AD3F82C34C2F88C
:1088200050354FF080534D4AD3F83034C2F85435A8
:108830004FF08053494AD3F83434C2F860354FF0D2
:108840008053464AD3F83834C2F864354FF0805329
:10885000424AD3F83C34C2F868354FF080533F4A5F
:10886000D3F84034C2F86C354FF080533B4AD3F80C
:108870004434C2F87035FFF70BFE0346002B02D0DC
:10888000374B384A1A60FFF735FE0346002B03D0FA
:10889000354BFB22C3F81825FFF75EFE0346002B7D
:1088A0000AD0324B1B6823F00F02314B1B6803F0D8
:1088B0000F032E4913430B60FFF780FE0346002B86
:1088C00003D02C4B4FF400721A60FFF7A9FE034649
:1088D000002B0DD04FF08043D3F8003403F0010398
:1088E000002B05D04FF080436FF00102C3F8002445
:1088F000214BD3F88830204A43F47003C2F8883003
:10890000BFF34F8F00BFBFF36F8F00BFFFF7ECFEC9
:108910004FF01023D3F80032002B05DB4FF010236B
:10892000D3F80432002B15DA0120FFF7F9FE4FF0DF
:1089300010231222C3F80022FFF7E6FE4FF01023A7
:108940001222C3F80422FFF7DFFE0020FFF7E8FE43
:10895000FFF726FDFFF7F4FE00BF08BD00C0004092
:108960008C5600404881030000F00040E40E0040B7
:10897000580200104096024000ED00E06DDF7047A5
:1089800000BF184679DF704700BF18467DDF70478B
:1089900000BF184664DF704700BF184682B0034628
:1089A0000091ADF80630BDF80630DAB2009B1A70BF
:1089B000BDF806301B0A9AB2009B0133D2B21A707E
:1089C0000223184602B0704700B589B003900291A7
:1089D0001346ADF80630029B1B8803F10902BDF86F
:1089E00006309A4201D90C2353E004AB1846FFF736
:1089F000C5FF0790079B0693069B002B01D0069BA3
:108A000047E0029B1B881A46039B134408221A70F6
:108A1000029B1B8801339AB2029B1A80029B1B881F
:108A20001A46039B13441B221A70029B1B880133B6
:108A30009AB2029B1A80029B1B881A46039B9818C5
:108A400004AB0133062219460BF0CAFD029B1B88BA
:108A500006339AB2029B1A809DF8103023F001036E
:108A6000DBB2002B07D1029B1B881A46039B1344E1
:108A700000221A7006E0029B1B881A46039B1344CF
:108A800001221A70029B1B8801339AB2029B1A8042
:108A90000023184609B05DF804FB00B589B00390C7
:108AA00002910192ADF80230039B1B78012B05D196
:108AB000039B5B78002B01D1072391E0019B1B886E
:108AC0009A1CBDF802309A420ED8039B1B78012BEA
:108AD0000CD1019B1B881A46039B5B7813449A1C9C
:108AE000BDF802309A4201D90C2379E0019B1B8822
:108AF000BDF80220D31A9BB2023BADF81C30BDF882
:108B00001C30ADF81230019B1B880233029A1344CB
:108B10000DF1120211461846FFF738FF0690069B2A
:108B20000593059B002B01D0059B59E0039B1B7807
:108B3000022B06D0039B5B781A46BDF812309A428E
:108B400009D3BDF81230BDF81C209A4203D3092383
:108B50008DF81F3016E008238DF81F30039B1B781B
:108B6000012B0BD1039B5B781A46BDF81C30934256
:108B700004D3039B5B78ADF8123003E0BDF81C30E2
:108B8000ADF81230BDF81230FE2B01D90C2327E0CE
:108B9000BDF81230DAB2019B1B881946029B0B44C8
:108BA0000132D2B21A70019B1B8801339AB2019B29
:108BB0001A80019B1B881A46029B13449DF81F20B4
:108BC0001A70019B1B8801339AB2019B1A80019B8A
:108BD0001A88BDF8123013449AB2019B1A80002300
:108BE000184609B05DF804FB00B589B00390029106
:108BF0001346ADF80630029B1B881A1DBDF80630DF
:108C00009A4201D90C233AE00DF116031846FFF7FA
:108C1000B9FE0790079B0693069B002B01D0069B8D
:108C20002DE0029B1B881A46039B134403221A70F3
:108C3000029B1B8801339AB2029B1A80029B1B88FD
:108C40001A46039B134419221A70029B1B88013396
:108C50009AB2029B1A80BDF81620029B1B88194607
:108C6000039B0B4419461046FFF798FE03461A462D
:108C7000029B1B8813449AB2029B1A800023184659
:108C800009B05DF804FB84B0029101921A460346D4
:108C90008DF80F301346ADF80C30019B1B88DA1CA1
:108CA000BDF80C309A4201D90C2328E0019B1B88A7
:108CB0001A46029B134402221A70019B1B8801333F
:108CC0009AB2019B1A80019B1B881A46029B13448F
:108CD00001221A70019B1B8801339AB2019B1A80F2
:108CE000019B1B881A46029B13449DF80F201A70A3
:108CF000019B1B8801339AB2019B1A8000231846FE
:108D000004B0704784B0029101921A4603468DF870
:108D10000F301346ADF80C30019B1B88DA1CBDF8F0
:108D20000C309A4201D90C2328E0019B1B881A467B
:108D3000029B134402221A70019B1B8801339AB2D2
:108D4000019B1A80019B1B881A46029B13440A222E
:108D50001A70019B1B8801339AB2019B1A80019BF8
:108D60001B881A46029B13449DF80F201A70019B22
:108D70001B8801339AB2019B1A800023184604B065
:108D8000704700B58FB0039001930B468DF80B3000
:108D900013468DF80A3000238DF83330109B1B8862
:108DA000ADF8303000230D9370E0039B5A680D9BA3
:108DB0009B001A4405AB106818600DF11B0105AB50
:108DC00000221846FFF7E6FD0A900A9B0993099BCB
:108DD000002B01D0099B7BE09DF81B309DF80A20F9
:108DE0009A4250D19DF83330002B01D0002300E08F
:108DF00002238DF82330109B1B881A469DF81B30E8
:108E00001A449DF823301A44BDF844309A4201DDDB
:108E10000C235DE09DF8333083F00103DBB2002BBF
:108E200016D0109B1B8801339AB2109B1A80109B9E
:108E30001B881A46019B13449DF80B201A70109B47
:108E40001B8801339AB2109B1A8001238DF83330AE
:108E5000109B1B881A46019B1A440DF11B0105ABA0
:108E60001846FFF797FD0A900A9B0793079B002B74
:108E700001D0079B2CE0109B1B889DF81B201344FE
:108E80009AB2109B1A800D9B01330D93039B1B8894
:108E90001A460D9B934288DB9DF83330002B16D089
:108EA000109B1A88BDF83030D31A9BB2013BADF845
:108EB0002E30BDF82E30FF2B01D90C2308E0BDF871
:108EC0003030019A1344BDF82E20D2B21A7000231C
:108ED00018460FB05DF804FB00B58BB00590039306
:108EE0000B468DF8133013468DF812309DF8131091
:108EF000BDF8343001930C9B0093039B022205982C
:108F0000FFF73FFF0990099B0893089B002B01D0B6
:108F1000089B14E09DF81210BDF8343001930C9BAF
:108F20000093039B10220598FFF72BFF0990099BE4
:108F30000793079B002B01D0079B00E000231846F6
:108F40000BB05DF804FB82B00190019B1B88052BE0
:108F50000AD9019B1B88B3F5486F07D9019B1B8871
:108F60004FF6FF72934201D0072325E0019B5B88F7
:108F7000052B0AD9019B5B88B3F5486F07D9019B84
:108F80005B884FF6FF72934201D0072314E0019BE8
:108F90001B884FF6FF7293420DD0019B5B884FF602
:108FA000FF72934207D0019B1A88019B5B889A420B
:108FB00001D9072300E00023184602B0704700B52E
:108FC00087B0039002910192ADF80230019B1B889B
:108FD0009A1DBDF802309A4201D90C234BE0039848
:108FE000FFF7B1FF0590059B0493049B002B01D074
:108FF000049B40E0019B1B881A46029B13440522F8
:109000001A70019B1B8801339AB2019B1A80019B45
:109010001B881A46029B134412221A70019B1B885C
:1090200001339AB2019B1A80039B1A88019B1B880B
:109030001946029B0B4419461046FFF7AFFC034646
:109040001A46019B1B8813449AB2019B1A80039B0A
:109050005A88019B1B881946029B0B4419461046EF
:10906000FFF79CFC03461A46019B1B8813449AB2E7
:10907000019B1A800023184607B05DF804FB00B579
:1090800087B0039002910192ADF80230039B9B8858
:1090900002330593019B1B881A46059B13449A1CB7
:1090A000BDF802309A4201D90C2353E0059BFE2BF8
:1090B00001D90C234EE0059BDAB2019B1B881946AF
:1090C000029B0B440132D2B21A70019B1B88013300
:1090D0009AB2019B1A80019B1B881A46029B13447B
:1090E000FF221A70019B1B8801339AB2019B1A80E0
:1090F000039B1A88019B1B881946029B0B44194647
:109100001046FFF74BFC03461A46019B1B8813448D
:109110009AB2019B1A80039B9B88002B19D0039B5A
:109120009B68002B01D1072314E0019B1B881A4682
:10913000029B9818039B9968039B9B881A460BF027
:109140004FFA019B1A88039B9B8813449AB2019B98
:109150001A800023184607B05DF804FB00B589B0FB
:10916000039002910192ADF80230039B9B6A002BA1
:1091700001D1072371E000238DF81F3065E0039BC8
:10918000996A9DF81F2013465B0013449B000B4413
:109190000693069B9B8802330593059BFE2B01D902
:1091A0000C235AE0059BDAB2019B1B881946029BEF
:1091B0000B440132D2B21A70019B1B8801339AB260
:1091C000019B1A80019B1B881A46029B134416229E
:1091D0001A70019B1B8801339AB2019B1A80069B6F
:1091E0001A88019B1B881946029B0B44194610469E
:1091F000FFF7D4FB03461A46019B1B8813449AB21F
:10920000019B1A80069B9B88002B19D0069B9B68AC
:10921000002B01D1072320E0019B1B881A46029BEB
:109220009818069B9968069B9B881A460BF0D8F9FC
:10923000019B1A88069B9B8813449AB2019B1A8053
:109240009DF81F3001338DF81F30039B93F82C30AD
:109250009DF81F209A4292D30023184609B05DF86A
:1092600004FB00B595B0059004910392002313937D
:10927000039B1B88ADF84A30039B00221A80059B94
:1092800093F82D30002B0ED0BDF84A301A460399C2
:109290000498FFF799FB1390139B1193119B002BDC
:1092A00001D0119BD8E0059B9B78002B0ED0BDF818
:1092B0004A301A4603990498FFF796FC1390139BC3
:1092C0001093109B002B01D0109BC5E0059BDB7811
:1092D000002B10D0059BDB7858B2BDF84A30039ABA
:1092E0000499FFF7D0FC1390139B0F930F9B002B57
:1092F00001D00F9BB0E0059B5B68002B11D0059B54
:109300005B6893F90000BDF84A30039A0499FFF7AF
:10931000F9FC1390139B0E930E9B002B01D00E9B18
:109320009AE0059B1B89002B14D0059B03F10800D4
:10933000BDF84A300193039B0093049B062202214F
:10934000FFF7CAFD1390139B0D930D9B002B01D0CB
:109350000D9B81E0059B1B8A002B14D0059B03F11C
:109360001000BDF84A300193039B0093049B072231
:109370000321FFF7B1FD1390139B0C930C9B002B63
:1093800001D00C9B68E0059B1B8B002B14D0059B28
:1093900003F11800BDF84A300193039B0093049B2E
:1093A00015221421FFF798FD1390139B0B930B9B31
:1093B000002B01D00B9B4FE0059B1B6A002B0FD0AD
:1093C000059B186ABDF84A30039A0499FFF7F7FD28
:1093D0001390139B0A930A9B002B01D00A9B3BE03E
:1093E000059B5B6A002B0FD0059B586ABDF84A307D
:1093F000039A0499FFF743FE1390139B0993099B6B
:10940000002B01D0099B27E0059B93F82C30002B03
:109410000ED0BDF84A30039A04990598FFF79EFED6
:109420001390139B0893089B002B01D0089B13E01B
:10943000059B1B78002B0ED0BDF84A30039A049987
:109440000598FFF72AFB1390139B0793079B002BAC
:1094500001D0079B00E0139B184615B05DF804FB94
:1094600075DF704700BF184676DF704700BF1846AB
:109470007ADF704700BF18467BDF704700BF184691
:1094800084B00346ADF806300023039316E00F497D
:10949000039A13469B0013449B000B441B88BDF8A2
:1094A00006209A4207D1039A13469B0013449B005F
:1094B000064A134406E0039B01330393039B002BEE
:1094C000E5D00023184604B0704700BF18240020E0
:1094D00082B001900B46ADF80230019BBDF802202E
:1094E0001A80019B00221A72019B054903F10A02AE
:1094F0000B4603CB1060516000BF02B0704700BF45
:109500004824002082B00190019B4FF6FF721A8020
:1095100000BF02B0704788B00390029111461A460E
:109520000B46ADF806301346ADF80430039B9B881C
:109530001A46BDF8063013440793039B9B881946CF
:10954000039B9B88BDF80620934228BF13469BB21D
:10955000CB1A0693039BDB881A46BDF804301344EC
:109560000593039BDB881946039BDB88BDF8042029
:10957000934228BF13469BB2CB1A0493029B5A888E
:10958000039B1B889A4205D3029B5A88039B5B88E6
:109590009A4201D900231CE0029B9B881A46069B35
:1095A000934205D8029B9B881A46079B934201D29F
:1095B00000230EE0029BDB881A46049B934205D8E9
:1095C000029BDB881A46059B934201D2002300E0F0
:1095D0000123184608B0704700B583B00190064BD0
:1095E0009B69002B03D0044B9B690198984700BFEF
:1095F00003B05DF804FB00BF2C24002000B585B04B
:1096000003460091ADF80630BDF8063000991846C3
:10961000FFF726FF0390039B002B05D0039B112B24
:1096200002D00398FFF7D8FF039B002B0CBF012348
:109630000023DBB2184605B05DF804FB00B589B025
:109640000190019B0793079B9BB21846FFF718FFF9
:109650000690069B002B42D0069B1A7A224B1B7B5E
:109660009A4215D2079B9AB2069B0A3319461046B6
:10967000FFF7C4FF03468DF813309DF81330002B1D
:109680002DD0069B1B7A0133DAB2069B1A7226E0B4
:10969000069B00221A72144B1B7C002B0FD0079BD9
:1096A0009BB23B211846FFF7DFFE0590059B002B80
:1096B00005D0059B082B02D00598FFF78DFF0A4BBC
:1096C0005B69002B0BD000238DF80C30079B9BB2FD
:1096D000ADF80E30044B5B6903AA1046984700BFF3
:1096E00009B05DF804FB00BF2C24002030B587B022
:1096F0000190019B002B01D10E2353E02B4A019BCB
:1097000014461D460FCD0FC495E8070084E80700F6
:10971000264B274A1A60019B1B68002B11D0019B26
:109720001B681846FFF7A4FE0490049B002B01D091
:10973000049B37E0019B1A681D4B1068516803C3F6
:1097400008E01B48FFF798FE0490049B002B01D013
:10975000049B27E00023059320E0059A13469B0015
:1097600013449B00134A134403930398FFF7CAFE64
:10977000059B5B01104A1A44039B5A60039B043308
:109780000E4A0021184607F055FB0490049B002B5D
:1097900001D0032306E0059B01330593059B002BB5
:1097A000DBD00023184607B030BD00BF2C240020BA
:1097B0004824002018240020F82300203D960200B1
:1097C00000B587B003460091ADF80630009B5B7A88
:1097D000002B1AD1009B1B7A002B03D1164B5B6820
:1097E000059302E0144B9B680593009B5B68BDF8F2
:1097F00006200599184607F057FB0490049B002BA0
:1098000016D00498FFF7E8FE12E0009B00221A72BF
:10981000094B5B69002B0BD001238DF80C30BDF890
:109820000630ADF80E30044B5B6903AA104698472A
:1098300000BF07B05DF804FB2C24002000B585B004
:109840000190019BDB7B8DF80F30019B9B88ADF86D
:109850000C309DF80F30012B2CD14FF6FF70FFF725
:109860000FFE0290029B002B03D10420FFF7B4FEF1
:1098700021E0BDF80C3019460298FFF729FE029B43
:1098800003F10A00019B03F110014FF6FF7340F250
:10989000F312FFF740FE03461A46029B5A72074B2B
:1098A000DB89002B07D1BDF80C3002991846FFF771
:1098B00087FF00E000BF05B05DF804FB2C2400200A
:1098C00000B587B00190019B9B88ADF81630BDF8BC
:1098D00016301846FFF7D4FD0490049B002B0ED0E1
:1098E000049B5B68184607F037FB0390039B002B33
:1098F00002D00398FFF770FE0498FFF703FE00BF45
:1099000007B05DF804FB000000B587B00190019B33
:1099100006330593059B1A88194BDB899A422BD194
:10992000059B5B89022B27D1019B9B88ADF81230E8
:10993000BDF812301846FFF7A3FD0390039B002BE0
:109940001AD0059B0C33184600F083FB0346002B0E
:1099500006D0BDF8123003991846FFF731FF0BE02F
:10996000039B5B68184607F0F7FA0290029B002BF6
:1099700002D00298FFF730FE00BF07B05DF804FB8D
:109980002C24002000B585B00190019B9B88ADF888
:109990000E30BDF80E301846FFF772FD0290029BA4
:1099A000002B15D0029B03F10A00019B03F1080173
:1099B0004FF6FF7340F2F312FFF7ADFD03461A4670
:1099C000029B5A72BDF80E3002991846FFF7F8FE56
:1099D00000BF05B05DF804FB00B583B001900091B5
:1099E000019B1B88502B12D0502B18DC122B12D04D
:1099F000122B14DC102B02D0112B04D00FE0019895
:109A0000FFF71CFF0CE00198FFF75AFF08E00198F0
:109A1000FFF77AFF04E00198FFF7B4FF00E000BF12
:109A200000BF03B05DF804FB30B58FB0019000912A
:109A300000230293009B002B1AD000230D9314E007
:109A40006B460D99184609F022FC0346002B09D0FD
:109A5000029B5A1C02920D9A92B25B0038336B44FF
:109A600023F82C2C0D9B01330D930D9B132BE7D961
:109A7000019B1D4602AC0FCC0FC50FCC0FC594E85F
:109A8000070085E8070001980FB030BD00B583B02E
:109A90000346ADF80630BDF80630132B01D900237C
:109AA0000CE0BDF806301946064809F09BFBBDF8EE
:109AB00006301946044809F095FB0123184603B007
:109AC0005DF804FB582400205424002000B585B024
:109AD0000346ADF80630002303930DE0039B9B0083
:109AE000094A13440433BDF806201146184609F00C
:109AF000B5FB039B01330393039B1D2BEED900BFE2
:109B000000BF05B05DF804FB5024002000B583B011
:109B10000346ADF80630BDF806301946034809F093
:109B20009DFB00BF03B05DF804FB00BF582400207C
:109B300030B59BB0184B9B68DB431893164B5A68A3
:109B400018AB1146184609F060FC189A6B4611468E
:109B50001846FFF769FF0DAC6D460FCD0FC40FCD52
:109B60000FC495E8070084E80700002319930BE071
:109B7000199B5B0068336B4433F8303C1846FFF7A1
:109B8000A5FF199B013319930D9B199A9A42EFD3A4
:109B900000BF00BF1BB030BD5024002000B583B013
:109BA00003468DF807309DF807301946034809F041
:109BB0006EFB0346184603B05DF804FB50240020FA
:109BC00000B583B001900B46ADF8023013468DF816
:109BD00001309DF80130002B06D0BDF80230194647
:109BE000019809F0FFFA05E0BDF802301946019826
:109BF00009F034FB00BF03B05DF804FB00B585B08D
:109C000001900091019B9B88ADF80E30019B1B8851
:109C1000103B0A2B00F2838001A252F823F000BF10
:109C20004D9C0200899C02001F9D02001F9D0200A6
:109C30001F9D02001F9D02001F9D02001F9D02002C
:109C40001F9D0200F39C0200959C0200FFF770FF2D
:109C5000BDF80E301846FFF719FF034683F00103E5
:109C6000DBB2002B05D0304AF021042006F062FD63
:109C700052E0019BDB7B022B4ED1BDF80E30194622
:109C80002A4809F0AFFA47E0BDF80E301846FFF752
:109C90003DFF44E0019B1B7AC3F30313DBB28DF855
:109CA0000D309DF80D30032B8CBF01230023DAB259
:109CB000BDF80E3019461E48FFF782FF9DF80D30A3
:109CC000022B8CBF01230023DAB2BDF80E301946F7
:109CD0001848FFF775FF9DF80D30012B8CBF01234D
:109CE0000023DAB2BDF80E3019461348FFF768FFBB
:109CF00015E0019B1B7A002B10D1019B5B7AC3F30B
:109D0000C0038DF80C309DF80C20BDF80E301946BC
:109D10000748FFF755FF01E000BF00E000BF00BFAC
:109D200005B05DF804FB00BF604803005C24002020
:109D300068240020642400206024002000B583B043
:109D40000346ADF80630BDF80630132B01D90023C9
:109D500006E0BDF806301946034809F098FA0346B4
:109D6000184603B05DF804FB5424002000B585B00C
:109D70000346ADF8063000238DF80F30BDF80630ED
:109D80001846FFF7DBFF0346002B11D0BDF8063065
:109D900019460A4809F07BFA03468DF80E309DF803
:109DA0000E30002B01D0022300E001238DF80F308C
:109DB0009DF80F30184605B05DF804FB5C240020C8
:109DC00000B585B00346ADF8063000238DF80F309E
:109DD000BDF806301846FFF7B1FF0346002B11D03F
:109DE000BDF8063019460A4809F051FA03468DF8C5
:109DF0000E309DF80E30002B01D0022300E001232D
:109E00008DF80F309DF80F30184605B05DF804FB53
:109E10005824002000B583B00346ADF80630BDF8E5
:109E200006301846FFF78AFF0346002B07D0BDF81F
:109E300006301946044809F02AFA034600E00023D8
:109E4000184603B05DF804FB6024002000B583B021
:109E50000346ADF80630BDF806301846FFF76EFF32
:109E60000346002B07D0BDF806301946044809F018
:109E70000EFA034600E00023184603B05DF804FB29
:109E80006424002000B583B00346ADF80630BDF869
:109E900006301846FFF752FF0346002B07D0BDF8E7
:109EA00006301946044809F0F2F9034600E00023A1
:109EB000184603B05DF804FB6824002000B583B0A9
:109EC00003460A46ADF8063013468DF805309DF876
:109ED00005301846FFF762FE0346002B16D0BDF88A
:109EE00006301846FFF72AFF0346002B0ED09DF8D8
:109EF000053006339B00084A13440433BDF806209E
:109F00001146184609F0C3F9034600E0002318463D
:109F100003B05DF804FB00BF5024002000B583B0FF
:109F20000346ADF806300B468DF8053013468DF824
:109F300004309DF805301846FFF730FE0346002B2D
:109F400015D0BDF806301846FFF7F8FE0346002B83
:109F50000DD09DF8053006339B00074A13440433A7
:109F60009DF80420BDF806101846FFF729FE00BF33
:109F700003B05DF804FB00BF5024002000B587B09B
:109F8000039002910192029B002B01D100231FE05C
:109F900000230593039B002B19D00023049313E0A7
:109FA00003AB0499184609F072F90346002B08D058
:109FB000049B9AB2029B019910469847059B013376
:109FC0000593049B01330493049B132BE8D9059B51
:109FD000184607B05DF804FB00B585B00346029152
:109FE00001928DF80F309DF80F301846FFF7D6FD1F
:109FF000034683F00103DBB2002B01D000230CE009
:10A000009DF80F30074A06339B0013445B68019AA2
:10A0100002991846FFF7B2FF0346184605B05DF8EF
:10A0200004FB00BF5024002082B00190019B1B78EC
:10A030001AB2019B01331B781BB21B021BB21343E4
:10A040001BB29BB2184602B07047AADF704700BF30
:10A05000184600B585B001900198FFF7E5FF03466B
:10A06000ADF80E30BDF80E3003F00103DBB2184638
:10A0700005B05DF804FB000082B0034600918DF846
:10A080000730009A137823F00F031370009A1378A7
:10A0900023F0F00313709DF80730052B5BD801A265
:10A0A00052F823F0BDA00200D3A00200EDA00200F0
:10A0B00007A1020021A102003BA10200009A13782F
:10A0C00023F00F031370009A137823F0F00313703A
:10A0D00040E0009A1378012161F303031370009AA2
:10A0E0001378012161F30713137033E0009A13789A
:10A0F000012161F303031370009A1378022161F3C5
:10A100000713137026E0009A1378012161F303030B
:10A110001370009A1378032161F30713137019E089
:10A12000009A1378022161F303031370009A1378E5
:10A13000012161F3071313700CE0009A13780221D8
:10A1400061F303031370009A1378022161F307137C
:10A15000137000BF00BF00BF02B0704700B595B0DC
:10A16000034602910192ADF80E30029B9B78002BC2
:10A1700003D101238DF81E3003E0029B9B788DF8FC
:10A180001E30029B1B88ADF81C3006AB0322002159
:10A1900018460AF057FA029B5B7C06AA114618463D
:10A1A000FFF76AFF029B9A7C06AB01331946104603
:10A1B000FFF762FF029BDA7B9DF81A3062F3C3035C
:10A1C0008DF81A30029B1A7C9DF81A3062F3041342
:10A1D0008DF81A30029B1A7B9DF81A3062F3000347
:10A1E0008DF81A30029B1B7D002B01D0022200E06B
:10A1F00001229DF81A3062F342038DF81A300DAB3C
:10A200001C22002118460AF01DFA029B5B7B03F01A
:10A210001003DBB2002B06D1029B5B7B03F0200313
:10A22000DBB2002B24D004AB0322002118460AF035
:10A2300009FA029BDA7C04AB013319461046FFF79A
:10A240001BFF9DF81030012262F303038DF81030DC
:10A250009DF81030012262F307138DF810309DF83D
:10A260001230012262F342038DF8123004AB1293D4
:10A27000029B5B7B8DF83430029B9B7B8DF83530E5
:10A2800008AB1422002118460AF0DCF907AB08934A
:10A2900006AB0993029B9B88ADF82C30029B9B6810
:10A2A000002B06D0029BDB88ADF82830029B9B6810
:10A2B0000C93029B9B69002B4FD005AB032200211E
:10A2C00018460AF0BFF9029B9B691B88ADF83C3029
:10A2D000029B9B695B88ADF83E30029B9B695B6883
:10A2E0000E9305AB1193029B9B691B7B05AA11463C
:10A2F0001846FFF7C1FE029B9B695A7B05AB0133F1
:10A3000019461046FFF7B8FE029B9B699A7A9DF8A2
:10A31000163062F3C3038DF81630029B9B69DA7A1C
:10A320009DF8163062F304138DF81630029B9B697A
:10A330001A7A9DF8163062F300038DF81630029BEE
:10A340009B699B7B002B01D0022200E001229DF83B
:10A35000163062F342038DF81630029BDB69002B46
:10A3600002D0029BDB69109308AA0DA9BDF80E006C
:10A37000019BFFF76AFE0346184615B05DF804FB23
:10A38000A0DF704700BF1846A1DF704700BF184626
:10A39000ADDF704700BF1846B3DF704700BF1846F7
:10A3A000B4DF704700BF184600B585B00190019B2F
:10A3B000002B03D10A498520FDF73CF901210198C2
:10A3C00008F0DCFF0390BFF35F8F00BF039B002BFF
:10A3D0000CBF01230023DBB2184605B05DF804FB77
:10A3E000D448030000B583B00190019B002B03D13A
:10A3F0000A499220FDF71EF9019B1B68012B03D02F
:10A4000006499320FDF716F9BFF35F8F00BF019B4C
:10A4100000221A6000BF03B05DF804FBD4480300BB
:10A4200000B585B00190019B5B88184601F00EF9DC
:10A4300003461A46019B9A800023039308E0084ACA
:10A44000039B52F8233001989847039B01330393F1
:10A45000039B002BF3D000BF00BF05B05DF804FBE9
:10A460003423002082B00190019B9B79012B0BD1FA
:10A47000019B1B79012B07D1019B5B8842F60212DD
:10A48000934201D1012300E0002303F00103DBB27A
:10A49000184602B0704700B589B003460091ADF888
:10A4A000063003AB00221A605A609A60DA601A61C3
:10A4B00008238DF80C30BDF80630ADF80E30009B47
:10A4C000059303AB1846FFF7ABFF00BF09B05DF87B
:10A4D00004FB000000B58BB00346ADF80630002346
:10A4E0008DF8273003AB00221A605A609A60DA6058
:10A4F0001A61BDF80630ADF80E30BDF806304FF6E3
:10A50000FF72934242D0BDF80630184600F00FFEAD
:10A510000890089B43F2020293422CD0089B43F21E
:10A520000202934220D8089B112B11D0089B112BBB
:10A530001AD8089B002B03D0089B0B2B0CD013E0E0
:10A540000F238DF80C3003AB1846FFF769FF13E0BB
:10A5500001238DF827300FE010238DF80C3003AB6A
:10A560001846FFF75DFF07E0BDF80630089918466A
:10A57000FFF791FF00E000BF064B19789DF82720F8
:10A58000BDF806301846FFF7C9FC00E000BF0BB06D
:10A590005DF804FBD124002000B583B003460A46D1
:10A5A000ADF8063013468DF80530064B19789DF846
:10A5B0000520BDF806301846FFF7B0FC00BF03B019
:10A5C0005DF804FBD024002000B58BB00346ADF845
:10A5D000063000238DF8273000238DF82630BDF893
:10A5E0000630184600F0FAFC0890089B43F202027D
:10A5F000934239D0089B43F2020293422DD8089B24
:10A60000862B17D0089B862B27D8089B112B0DD0A3
:10A61000089B112B21D8089B002B03D0089B0B2BE8
:10A6200022D01AE001238DF826301EE001238DF898
:10A6300027301AE003AB00221A605A609A60DA6091
:10A640001A6107238DF80C30BDF80630ADF80E30D6
:10A6500003AB1846FFF7E4FE07E0BDF806300899A3
:10A660001846FFF718FF00E000BF9DF82720BDF84F
:10A67000063011461846FFF78FFF9DF82630184622
:10A680000BB05DF804FB000000B589B003460091F3
:10A69000ADF8063000238DF81F300DF11603184673
:10A6A000FFF77AFE0690069B002B04D02A494FF450
:10A6B0009970FCF7BFFF0123ADF81C3040E0022386
:10A6C000ADF808300023ADF80A3004AB039304A9B9
:10A6D000BDF81C3000221846FFF762FE0690069B6C
:10A6E000002B01D0069B32E09DF81F3083F0010360
:10A6F000DBB2002B09D0BDF8103042F605229342A0
:10A7000003D101238DF81F3015E09DF81F30002B79
:10A7100011D0BDF8103042F6021293420BD1009BCB
:10A72000039302AABDF81C10BDF806301846FFF7C7
:10A730002FFE03460BE0BDF81C300133ADF81C3092
:10A74000BDF81630BDF81C209A42B8D30523184630
:10A7500009B05DF804FB00BF0C49030000B58BB0E5
:10A760000346ADF8063001238DF8273000238DF81D
:10A770002630BDF80630184600F076FD0890089B9C
:10A7800043F2014293426AD0089B43F20142934252
:10A790006BD8089B112B29D8089B112B65D801A2D7
:10A7A00052F823F0F9A702006BA802006BA8020080
:10A7B0006BA802006BA802006BA8020045A802006B
:10A7C0006BA8020025A802006BA802006BA802007B
:10A7D0006BA802006BA802006BA802006BA8020025
:10A7E0006BA802006BA8020079A80200089B43F244
:10A7F0000202934242D038E003AB00221A605A6052
:10A800009A60DA601A6111238DF80C30BDF80630B9
:10A81000ADF80E3001238DF8263003AB1846FFF754
:10A82000FFFD2CE00DF10A02BDF806301146184676
:10A83000FFF72AFF0890089B002B03D1BDF80A30D0
:10A84000002B1CD100238DF82730BDF806301846A8
:10A8500000F0FCFE0346184600F03AFD0FE0BDF89C
:10A8600006301846FFF736FE09E0BDF806300899B5
:10A870001846FFF710FE02E000BF00E000BF0B4BE0
:10A8800019789DF82720BDF806301846FFF746FBDB
:10A89000074B19789DF82620BDF806301846FFF7BB
:10A8A0003DFB00BF0BB05DF804FB00BFD2240020CD
:10A8B000D324002000B583B003460091ADF80630E4
:10A8C000BDF806301846FFF705FE00BF03B05DF87F
:10A8D00004FB000008B5044B1B780022034918460E
:10A8E000FFF77AFB00BF08BDD1240020B5A8020005
:10A8F00000B583B003460091ADF806300A48FFF773
:10A9000053FD0346002B0CD0BDF806301846FFF768
:10A910005BFE0346002B03D10348FFF763FD00E015
:10A9200000BF03B05DF804FBCC24002000B583B069
:10A9300003460091ADF806300B4B1A78BDF806308F
:10A9400011461846FFF7BAFA034683F00103DBB25B
:10A95000002B04D0BDF806301846FFF7FFFE00BFFD
:10A9600003B05DF804FB00BFD324002008B5044BFE
:10A970001B78002203491846FFF72EFB00BF08BDD5
:10A98000D22400202DA9020000B583B00346ADF803
:10A990000630BDF80630184600F042FC0346002B96
:10A9A00007D0064B1978BDF8063001221846FFF78C
:10A9B000B5FA00BF03B05DF804FB00BFD22400204D
:10A9C00000B587B003460091ADF8063004AB042211
:10A9D0000021184609F036FE42F6A623ADF81030E5
:10A9E00001238DF812300D4B1B68039303AA04A9B1
:10A9F000BDF806301846FFF7C3FC0590059B002BF9
:10AA000007D1074B1978BDF8063001221846FFF729
:10AA100085FA00BF07B05DF804FB00BF884903005A
:10AA2000D524002000B585B00346ADF80630BDF84A
:10AA30000630184600F00AFE0346184602AA002314
:10AA4000092101F084FC0346052B07D1054B197839
:10AA5000BDF8063001221846FFF760FA00BF05B0C6
:10AA60005DF804FBD424002000B583B00B4B1B78A9
:10AA700000220B491846FFF7AFFA0190019B002B0B
:10AA800007D1084B1B78002207491846FFF7A4FAA4
:10AA9000019000BF03B05DF804FB00BFD02400208C
:10AAA000F1A80200D4240020C1A9020000B583B09F
:10AAB0000190019B1B78002B11D1019B5B881846EC
:10AAC000FFF708FD019B5B881846FFF75DFF019BC0
:10AAD0005B881846FFF7A6FFFFF7C6FF00E000BF40
:10AAE00000BF03B05DF804FB00B589B00190019B85
:10AAF0001B78092B5ED1019B5B7A002B5AD1019BFD
:10AB00001B7A082B47D0082B4DDC012B1BD0072BC1
:10AB100049D1019B9B88184600F042FE0346ADF8E0
:10AB20001E30BDF81E304FF6FF7293423DD0BDF887
:10AB30001E3001211846FFF72FFDBDF81E301846C4
:10AB4000FFF770FF31E0019B9B8803AA01211846A3
:10AB500002F0C8F80690069B002B28D1049B1B78B6
:10AB6000002B24D0019B9B88184600F019FE034659
:10AB7000ADF81630BDF816304FF6FF72934216D07E
:10AB80000F4B1978BDF8163001221846FFF7C6F9A9
:10AB9000FFF7ECFE0BE00B4B1B68012B09D10948BA
:10ABA000FFF720FC05E000BF04E000BF02E000BFAB
:10ABB00000E000BFFFF758FF00BF09B05DF804FBDD
:10ABC000D2240020CC24002000B587B003460A46DA
:10ABD000ADF8063013468DF8053003AB00221A603D
:10ABE0005A600123ADF80C3009238DF80E30104B5C
:10ABF0001978BDF8063000221846FFF78FF99DF846
:10AC00000530002B01D00B4B00E00B4B0493BDF83B
:10AC10000630184600F01AFD0346184603AB002222
:10AC2000194601F05BFC059000BF07B05DF804FB1E
:10AC3000D42400208C4903009049030000B58DB056
:10AC40000190019B9B88ADF82C30019B1B88353B04
:10AC50001F2B00F21E8101A252F823F06DAD0200FD
:10AC600013AE020093AE020093AE020093AE020058
:10AC700093AE020093AE020093AE020093AE0200C8
:10AC800093AE020093AE020093AE020093AE0200B8
:10AC900093AE020093AE020093AE020093AE0200A8
:10ACA00093AE020093AE020093AE020093AE020098
:10ACB00093AE020093AE020093AE020093AE020088
:10ACC00093AE020093AE020049AD020093AE0200C3
:10ACD000DDAC020093AE0200E9AC0200BDF82C30FE
:10ACE0001846FFF7F7FBD4E003AB00221A605A6066
:10ACF0009A60DA601A6112238DF80C30BDF82C309E
:10AD0000ADF80E30BDF82C30184600F09FFC03461D
:10AD1000ADF81030BDF81030184600F0D9FA614B8C
:10AD20001978BDF82C3000221846FFF7F7F85E4B73
:10AD30001978BDF82C3000221846FFF7EFF803AB66
:10AD40001846FFF76DFBA4E0019B06331846FFF79A
:10AD500089FB0346002B00F09580BDF82C300121C3
:10AD60001846FFF719FCFFF77FFE8BE000238DF8F4
:10AD70002F30019B9B88ADF82C30019B0A3309933F
:10AD80004A4B1A78BDF82C3011461846FFF796F852
:10AD9000034683F00103DBB2002B75D1434B1978D6
:10ADA000BDF82C3000221846FFF7B8F8019BDB886D
:10ADB000B3F5857F1FD0019BDB88002B1BD1099B3E
:10ADC0005B88012B17D1099B04331988BDF82C30FF
:10ADD00000221846FFF7D8FA0890089B002B0AD1EA
:10ADE00001238DF82F30324B1978BDF82C30012219
:10ADF0001846FFF793F89DF82F3083F00103DBB27C
:10AE0000002B43D0BDF82C3000211846FFF7DCFEA4
:10AE10003CE000238DF82E30019B9B88ADF82C3050
:10AE2000019B0A330A93224B1A78BDF82C30114645
:10AE30001846FFF743F8034683F00103DBB2002B0B
:10AE400026D11B4B1978BDF82C3000221846FFF78D
:10AE500065F8019BDB88002B0BD10A9B9B88012B9B
:10AE600007D10A9B9B79002B14BF012300238DF887
:10AE70002E309DF82E20BDF82C3011461846FFF7D5
:10AE8000A3FE06E000BF04E000BF02E000BF00E058
:10AE900000BFFFF71FFDFFF769FD00BF0DB05DF8B4
:10AEA00004FB00BFD3240020D2240020D52400209E
:10AEB000D6240020AFDF704700BF1846B1DF7047CF
:10AEC00000BF1846B2DF704700BF1846B3DF7047B7
:10AED00000BF184600B585B00190019B9B881846BD
:10AEE00000F05EFC03461A46019B5A800023039340
:10AEF00008E0084A039B52F8233001989847039BC7
:10AF000001330393039B002BF3D000BF00BF05B0B8
:10AF10005DF804FB3823002000B589B0244A05AB56
:10AF200092E8030083E8030036E0224B1B8805A962
:10AF30000022184601F0D2FA0790079B002B22D07E
:10AF40006B4600221A605A609A60DA601A61194BE7
:10AF50001B88ADF80430079B112B24D0079B862B50
:10AF600007D107238DF800306B461846FFF7B2FF74
:10AF700019E008238DF80030079B02936B461846B2
:10AF8000FFF7A8FF0FE00B4B1B88184601F064FB8E
:10AF900003461A46074B1A80064B1B884FF6FF7272
:10AFA0009342C2D100E000BF00BF09B05DF804FBCE
:10AFB00094490300D824002000B583B00190064BCB
:10AFC0001B884FF6FF72934201D0FFF7A5FF00BF29
:10AFD00003B05DF804FB00BFD824002000B58DB09D
:10AFE0000346ADF80630BDF80630184600F02EFBDB
:10AFF0000346ADF82630BDF826304FF6FF72934277
:10B0000002D143F202038EE00123ADF82A3000237F
:10B010008DF8293000238DF82930BDF82A305A1CCC
:10B02000ADF82A201A4604ABBDF82600082101F02D
:10B030006FFE0B900B9B002B6AD1059B0893089B1E
:10B0400003221A60089B991D089B1A1D089B1B6808
:10B05000BDF80600FFF736FF0B900B9B002B3ED18F
:10B0600002AABDF826300821184601F03BFE0B90DD
:10B070000B9B002B04D00B9B052B01D0032352E02C
:10B080000B9B052B11D0089B9A88039B9B889A42A7
:10B090000BD1089B981D039B991D089B9B881A4602
:10B0A00009F079FA0346002B09D0BDF82620BDF837
:10B0B00026300821184601F0D8FE0B902DE0BDF88F
:10B0C00026300821184601F0B1FE0690069B002BA1
:10B0D00002D10B230B9320E003230B931DE00B9B6A
:10B0E0000C2B03D101238DF8293004E00B9B052B99
:10B0F00001D100230B93BDF826300821184601F03A
:10B1000095FE0790079B002B07D003230B9304E0C9
:10B110000B9B072B01D10C230B939DF82930002B9F
:10B120007FF478AF0B9B18460DB05DF804FB00B5BB
:10B130008BB00346ADF80630BDF80630184600F077
:10B1400085FA0346ADF81430002308930023ADF8C8
:10B150001E300323069301238DF81730BDF81430F9
:10B160004FF6FF72934216D002AABDF814300821A0
:10B17000184601F0B7FD0990099B002B0BD1039BEA
:10B180000493049B06330893049B9B88ADF81E3000
:10B19000049B1B680693BDF81E20BDF80600069BA5
:10B1A0000899FFF78BFE0990099B042B02D111230C
:10B1B000099324E0099B082B02D1002309931EE088
:10B1C000099B0B2B1BD100238DF81730069B03F036
:10B1D0000203002B02D00123069310E0089B002BF2
:10B1E00003D1BDF81E30002B07D0002308930023A5
:10B1F000ADF81E300323069301E003230993099B56
:10B200000B2BC8D09DF8173083F00103DBB2002B65
:10B2100001D00B230993099B18460BB05DF804FB82
:10B2200000B589B00346ADF806300DF1170304935D
:10B23000BDF80630184600F009FA0346ADF81E3096
:10B2400003AABDF81E300121184601F04BFD0690FF
:10B25000069B002B01D0002301E0049B1B781846BD
:10B2600009B05DF804FB000000B585B00346ADF8F9
:10B2700006304FF6FF73ADF80E301448FFF726FE88
:10B280000290029B002B01D003231AE00F4B198878
:10B29000BDF80E20BDF806301846FFF70BFE0290F1
:10B2A000029B43F20302934205D1084B1B880133F2
:10B2B0009AB2064B1A80029B43F203029342E5D0F6
:10B2C000029B184605B05DF804FB00BFDA2400209D
:10B2D00000B585B00346ADF80630084A02AB92E8E7
:10B2E000030083E8030002A9BDF8063000221846D7
:10B2F00001F0F4F800BF05B05DF804FB9C490300C1
:10B3000046DF704700BF184600B585B001900023A6
:10B31000039308E0084A039B52F8233001989847AA
:10B32000039B01330393039B012BF3D900BF00BFA1
:10B3300005B05DF804FB00BFAC49030084B0019088
:10B34000002303930AE0019A039B13441B78002B0C
:10B3500001D0012306E0039B01330393039B0F2BD2
:10B36000F1D90023184604B0704700B583B00190AE
:10B370000091019B002B02D0009B002B01D10023E8
:10B380001BE0019B1B78C3F34603DAB2009B1B78DA
:10B39000C3F34603DBB29A4201D000230DE0019BC8
:10B3A000581C009B01330622194609F0F4F80346A5
:10B3B000002B0CBF01230023DBB2184603B05DF85D
:10B3C00004FB000030B597B00190019B1B88102B47
:10B3D00040F09180019B0AAC1D1D0FCD0FC40FCD15
:10B3E0000FC495E8070084E807004FF6FF73ADF837
:10B3F00056309DF82C3023F00103DBB2062B47D0EA
:10B4000001F00EF89DF82C30C3F34603DBB2012B9C
:10B4100002DC002B15DA3BE0022B2ED038E0089B33
:10B4200003F111020AAB043311461846FFF79DFFE2
:10B430000346002B05D0BDF82630ADF8563000BFCE
:10B4400026E007AA0DF126031946072000F0F2FFB7
:10B450000346002BE3D11BE0089B5A1C0AAB0433C4
:10B460001146184600F08FFA0346002B05D0BDF8B0
:10B470002630ADF8563000BF09E007AA0DF12603CB
:10B480001946072000F0D6FF0346002BE4D100BF89
:10B49000BDF828301946194A0B469B000B445B0047
:10B4A0001344BDF856201A80BDF828301946134AB7
:10B4B0000B469B000B445B00134402330BAA10683D
:10B4C00018609188927999809A71BDF856304FF63C
:10B4D000FF72934210D0BDF82830ADF80A30BDF8A5
:10B4E0005630ADF80C3000238DF8083002AB18460A
:10B4F000FFF70AFF00E000BF17B030BDDC240020DA
:10B5000000B587B001900091019B11330593009B1A
:10B5100011330493019B581C009B013310221946E0
:10B5200009F039F80346002B11D1019B013318466D
:10B53000FFF704FF0346002B09D0009B0133184698
:10B54000FFF7FCFE0346002B01D0012300E000239F
:10B550008DF80F309DF80F3003F001038DF80F3098
:10B5600004990598FFF701FF03468DF80E30059BFF
:10B570001B7823F00103DBB2042B16D0059B1B784C
:10B5800023F00103DBB2062B0FD0049B1B7823F0C2
:10B590000103DBB2042B08D0049B1B7823F00103CA
:10B5A000DBB2062B01D0012300E000238DF80D3023
:10B5B0009DF80D3003F001038DF80D309DF80E302D
:10B5C000002B03D09DF80D30002B0AD19DF80F30D1
:10B5D000002B08D09DF80D3083F00103DBB2002B67
:10B5E00001D0012300E0002303F00103DBB2184681
:10B5F00007B05DF804FB00B587B001900B46ADF8CD
:10B60000023000F00DFF10E0BDF81630BDF802204A
:10B610009A420AD0049B19460198FFF771FF03462E
:10B62000002B02D0BDF816300BE003AA0DF1160373
:10B630001946072000F0FEFE0346002BE4D14FF62A
:10B64000FF73184607B05DF804FB000000B583B037
:10B650000346ADF80630BDF80630132B0AD8BDF806
:10B6600006301846FEF76AFB034683F00103DBB29F
:10B67000002B02D04FF6FF7308E0BDF80620054905
:10B6800013469B0013445B000B441B88184603B011
:10B690005DF804FBDC24002000B583B00346009174
:10B6A000ADF80630BDF80630132B0AD8BDF80630C9
:10B6B0001846FEF743FB034683F00103DBB2002B81
:10B6C00002D043F2020311E0BDF8062000980949B8
:10B6D00013469B0013445B000B4402460233196877
:10B6E000116099889B79918093710023184603B06B
:10B6F0005DF804FBDC24002000B583B001900091CC
:10B70000019800F089F8034683F00103DBB2002BB7
:10B7100001D0002315E0019B1A88009B1B889A42E8
:10B7200001D000230DE0019B981C009B02330822EE
:10B73000194608F030FF0346002B0CBF01230023FD
:10B74000DBB2184603B05DF804FB00B587B001908A
:10B7500000F066FE14E0049B463319460198FFF79B
:10B76000CBFF0346002B08D1049B2A3319460198CE
:10B77000FFF7C2FF0346002B02D0BDF816300BE0E6
:10B7800003AA0DF116031946072000F053FE0346E5
:10B79000002BE0D14FF6FF73184607B05DF804FBAD
:10B7A00000B585B00346ADF80630BDF806304FF65B
:10B7B000FF72934202D14FF6FF7326E00023ADF8EB
:10B7C0000E301CE0BDF80E20124913469B001344B6
:10B7D0005B000B441B88BDF806209A420AD1BDF8D5
:10B7E0000E301846FEF7AAFA0346002B02D0BDF829
:10B7F0000E300AE0BDF80E300133ADF80E30BDF862
:10B800000E30132BDED94FF6FF73184605B05DF8E6
:10B8100004FB00BFDC24002084B00190019B1B8846
:10B82000002B01D0012312E0002303930BE0019AC7
:10B83000039B134402331B78002B01D0012306E045
:10B84000039B01330393039B072BF0D90023184676
:10B8500004B0704782B003460A46ADF8063013467E
:10B86000ADF80430BDF80630132B0AD8BDF8062019
:10B87000054913469B0013445B000B44BDF80420AC
:10B880001A8000BF02B07047DC24002000B585B0EC
:10B890000346ADF80630BDF806301846FFF780FFC6
:10B8A0000346ADF80E30BDF80630184601F0D8F961
:10B8B0000290029B002B0ED1BDF80E30132B0AD83C
:10B8C000BDF80E20064913469B0013445B000B4451
:10B8D0004FF6FF721A80029B184605B05DF804FB14
:10B8E000DC24002000B595B0039002910192002362
:10B8F00013930DE0139BC3F10F03039A13441978BC
:10B9000005AA139B13440A461A70139B0133139321
:10B91000139B0F2BEED905AB10330D2200211846D7
:10B9200008F090FE002312930DE0029A129B1A4435
:10B93000129BC3F10F03127850336B4403F82C2C85
:10B94000129B01331293129B022BEED905AB1846C2
:10B95000FFF7D6FC002311930DE0119BC3F10F02FA
:10B960000199119B0B4450326A4412F81C2C1A7036
:10B97000119B01331193119B022BEED900BF00BF25
:10B9800015B05DF804FB00B587B001900091019BF4
:10B990001B7823F00103DBB2042B01D000231FE04E
:10B9A000019B5A1C05AB1188927819809A70019BF3
:10B9B0001A1D03AB1188927819809A70009B04AA13
:10B9C00003A91846FFF78EFF04A905AB032218460A
:10B9D00008F0E1FD0346002B0CBF01230023DBB27E
:10B9E000184607B05DF804FB90DF704700BF1846AB
:10B9F000A5DF704700BF1846B5DF704700BF184687
:10BA000082B00190019B17221A80019B17225A8055
:10BA1000019B00221A71019B00225A71019B1B227B
:10BA20009A71019B1B22DA7100BF02B0704700B50A
:10BA300089B003460A46ADF806301346ADF8043027
:10BA4000BDF80430ADF81430BDF80430ADF8163050
:10BA50000023ADF818300023ADF81A3003AB0022F4
:10BA60001A609A8003AA05A9BDF806301846FFF7A8
:10BA7000BBFF0790079B002B02D0BDF80C30002BBA
:10BA8000079B184609B05DF804FB00B587B001902C
:10BA90000091009B9B88ADF81630BDF81630DB0096
:10BAA000019A134406330493019B1A79049B9A71FB
:10BAB000009BDB7B012B02D0022B05D009E0019B10
:10BAC0001A88049B1A8004E0019B5A88049B1A8000
:10BAD00000BF049B1A88049B5B889A4215D9049B7B
:10BAE0001A88BDF8163011461846FFF781FF0390FB
:10BAF000039B002B03D1049B01225A7105E0039B99
:10BB0000112B02D1049B01221A71049B9A79049B88
:10BB1000DB799A4208D9049B9B791A46BDF8163006
:10BB200011461846FFF783FF00BF07B05DF804FB1E
:10BB300000B583B001900091009B9B88DB00019AC7
:10BB4000134406331846FFF75BFF00BF03B05DF8F0
:10BB500004FB00B587B001900091009B9B88ADF875
:10BB60001630009B5B89ADF81430BDF81630DB0051
:10BB7000019A134406330493049B1B88BDF81420D8
:10BB8000934228BF13469AB2049B5A80049B5B8859
:10BB9000172B38BF17239AB2049B5A80019B1B694D
:10BBA000002B15D0049B5B79002B11D040F6772336
:10BBB000ADF80830BDF81630ADF80A30049B5B884C
:10BBC000ADF80C30019B1B6902AA114601989847F9
:10BBD000049B00225A71049B00221A7100BF07B017
:10BBE0005DF804FB00B589B001900091009B9B8833
:10BBF000ADF81E30009BDB88ADF81C30BDF81E3060
:10BC0000DB00019A134406330693BDF81C30172B52
:10BC100038BF1723ADF81C30069B1B88BDF81C20CD
:10BC2000934228BF13469AB2069B5A80069B002275
:10BC30001A71069B1A88BDF81E3011461846FFF788
:10BC4000DBFE0590069B5B79002B16D1019B1B69DF
:10BC5000002B13D040F67723ADF80C30BDF81E3022
:10BC6000ADF80E30069B5B88ADF81030019B1B6968
:10BC700003AA11460198984700E000BF09B05DF89B
:10BC800004FB30B591B001900091009B04AC1D1DE8
:10BC90000FCD0FC40FCD0FC495E8070084E807004F
:10BCA000BDF81030ADF83E30BDF81420BDF83E3080
:10BCB000D1B2019ADB0013440A465A73019B1B69F7
:10BCC000002B19D002AB00221A609A804DF67A231D
:10BCD000ADF80830BDF83E30ADF80A30BDF83E3062
:10BCE000019ADB0013445B7B8DF80C30019B1B69D0
:10BCF00002AA11460198984700BF11B030BD00B5A7
:10BD000087B001900091009B04330593059B1B882D
:10BD1000DB00019A134406330493059B9B888DF83E
:10BD20000F30049B9B799DF80F20934228BF134648
:10BD30008DF80E30059B1B889DF80E2092B211469F
:10BD40001846FFF774FE00BF07B05DF804FB00B5AE
:10BD500085B001900091019B002B01D10E231DE0C5
:10BD6000019B009A1A61019B17221A80019B1722DE
:10BD70005A80019B1B221A71002303930AE0039B44
:10BD8000DB00019A134406331846FFF739FE039B84
:10BD900001330393039B002BF1D00023184605B019
:10BDA0005DF804FB00B587B001900091009B0593FE
:10BDB000019B9B88ADF81230BDF81230002B40F08B
:10BDC0008480019B1B88552B48D0552B55DC242B98
:10BDD00032DC102B51DB103B142B4ED801A252F851
:10BDE00023F000BF3FBE020049BE02007BBE02003E
:10BDF0007BBE02007BBE02007BBE02007BBE020057
:10BE00007BBE02007BBE02007BBE02007BBE020046
:10BE10007BBE02007BBE02007BBE02007BBE020036
:10BE20007BBE02007BBE02007BBE02007BBE020026
:10BE300071BE020067BE02003A2B0AD01DE00199D4
:10BE40000598FFF722FE19E001990598FFF770FEAB
:10BE500014E001990598FFF77CFE0FE00199059821
:10BE6000FFF7C0FE0AE001990598FFF70AFF05E019
:10BE700001990598FFF743FF00E000BFBDF81230BD
:10BE8000059ADB0013449B7A002B1FD0BDF81230BB
:10BE9000059ADB001344DA88BDF8123011461846C3
:10BEA000FFF7A6FD0390039B002B0FD1BDF81230C6
:10BEB000059ADB00134400229A72BDF81230059AED
:10BEC000DB0013440122DA7200E000BF07B05DF826
:10BED00004FB00BFB0DF704700BF184666DF704745
:10BEE00000BF184682B001900091019B002B01D148
:10BEF0000E2316E0009B002B01D10E2311E0019BC5
:10BF00001B78DE2B01D108230BE0009B1A68019BF4
:10BF10005A60019BDE221A70019B4FF6FF725A8015
:10BF20000023184602B0704782B001900B46ADF86E
:10BF30000230019B002B01D10E230AE0019B1B78EC
:10BF4000DE2B01D0082304E0019BBDF802205A80BB
:10BF50000023184602B0704700B585B00190019BE0
:10BF60001B7A002B18D0019B5B8800211846FFF735
:10BF7000B5FF0390039B002B03D1019B00221A7293
:10BF80000AE0039B112B03D1019B01221A7203E0EB
:10BF9000019B5B680398984700BF05B05DF804FB00
:10BFA00000B583B001900091009B1B79012B0BD150
:10BFB000009B1A88019B5B889A4205D1019B012254
:10BFC0001A720198FFF7C8FF00BF03B05DF804FBC9
:10BFD00082B00190009100BF02B0704700B589B0F7
:10BFE00001900091009B1A88019B5B889A4236D190
:10BFF000009B02330793079B1B78022B31D1079BD1
:10C000001B7A042B07D0079B1B7A062B03D0079BB8
:10C010001B7A052B27D102AB00221A605A609A6066
:10C02000DA6002238DF808304FF4C073ADF80C309D
:10C03000079B1B7A052B02D10023ADF80C30009B27
:10C040001B8802AA11461846FFF744FF0690069B7C
:10C05000002B09D0019B5B680698984704E000BF5D
:10C0600002E000BF00E000BF09B05DF804FB00B5CE
:10C0700085B001900091009B002B43D0019B002BC9
:10C0800040D0009B0393039B1B78DE2B3AD1019B8E
:10C090009A88039B5B889A4202D10398FFF75CFF62
:10C0A000019B1B88512B18D0512B28DC112B1BD046
:10C0B000112B24DC012B02D0022B07D01FE0019BA7
:10C0C000043319460398FFF76BFF1BE0019B043311
:10C0D00019460398FFF77CFF14E0019B04331946CF
:10C0E0000398FFF77BFF0DE0019B9A88039B5B8819
:10C0F0009A4206D1039B4FF6FF725A8001E000BFBF
:10C1000000E000BF05B05DF804FB000000B585B09D
:10C110000190019B4FF6FF725A800023039305E0C4
:10C12000064B01989847039B01330393039B002B15
:10C13000F6D000BF00BF05B05DF804FBB5CB020030
:10C1400082B00346ADF80630BDF80630A3F5804353
:10C150009BB2184602B0704782B00346ADF8063075
:10C16000BDF8063003F580439BB2184602B0704715
:10C1700082B003468DF807309DF807309BB2A3F5D7
:10C1800080439BB2184602B0704782B003468DF8D8
:10C1900007309DF80730072B17D09DF80730012B8B
:10C1A00013D09DF80730082B0FD09DF80730052BD2
:10C1B0000BD09DF80730062B07D09DF80730092BD0
:10C1C00003D09DF80730042B01D1012300E00023A8
:10C1D00003F00103DBB2184602B0704700B589B026
:10C1E00003460091ADF8063003AB00221A605A6096
:10C1F0009A60DA601A6108238DF80C30BDF80630B9
:10C20000ADF81030009B059303AB1846FFF77EFF97
:10C2100000BF09B05DF804FB00B589B02F4B0022C8
:10C220001A7001AB08220021184608F00BFA4FF6ED
:10C23000FF7000F0A3FF0346ADF81E300CE0BDF820
:10C240001E30184600F0ECFEBDF81E30184600F017
:10C2500095FF0346ADF81E30BDF81E304FF6FF7255
:10C26000934210D0BDF81E301846FFF769FF034611
:10C27000184601AA03AB194606F08BFE034648F2A6
:10C2800009629342DBD0BDF81E304FF6FF72934235
:10C290001FD0BDF81E301846FFF752FF0346ADF819
:10C2A0001C30BDF81C30184606F00EFE0690069BAA
:10C2B00048F20762934203D1084B01221A7008E04A
:10C2C000069B002B05D0BDF81E3006991846FFF7D7
:10C2D00085FF00BF09B05DF804FB00BFA425002066
:10C2E00000B587B003460092ADF806300B468DF8D6
:10C2F00005309DF805301846FFF747FF02AB0822CE
:10C300000021184608F09EF9BDF806301846FFF7E0
:10C3100017FF0346ADF816309DF805301846FFF7B5
:10C3200027FF0346ADF8143002ABBDF81410BDF87A
:10C330001600009A06F004FE0490049B002B01D026
:10C34000052300E00023184607B05DF804FB00B5A4
:10C350008DB0029201930346ADF80E300B468DF876
:10C360000D30BDF80E30FF2B01D9072354E09DF8A6
:10C370000D301846FFF709FF034683F00103DBB2D7
:10C38000002B01D0072347E006AA9DF80D10BDF849
:10C390000E301846FFF7A4FF0B900B9B002B01D02B
:10C3A000052339E004AA06AB1146184606F0DEFC68
:10C3B0000B900B9B002B01D005232DE0029B9DF8D9
:10C3C0000D209A70049B5A88029B1A80019B002BB7
:10C3D00003D1059A029B5A6019E0029B1B889B00BF
:10C3E0000A93029B1B889A00019B1B68934228BFFB
:10C3F00013460993029B5B680599099A184608F051
:10C40000EFF8099A0A9B9A4201D20C2304E006AB8A
:10C41000184606F0E9FC002318460DB05DF804FB51
:10C4200008B508220021024808F00CF900BF08BD39
:10C43000A825002000B58DB00346029101928DF829
:10C440000F309DF80F301846FFF79FFE034683F02C
:10C450000103DBB2002B01D0012338E09DF80F303F
:10C460001846FFF785FE0346ADF82E3007A9BDF844
:10C470002E30194A184606F079FD0346002B01D0EC
:10C48000002324E005AA07AB1146184606F06EFC0F
:10C490000A900A9B002B01D0002318E0019B9DF815
:10C4A0000F209A70059B5A88019B1A80069A019B5F
:10C4B0005A60059B9B881846FFF74EFE03461A46B6
:10C4C000029B1A8007AB184606F08EFC0123184623
:10C4D0000DB05DF804FB00BFA825002000B58DB0AD
:10C4E000034602910192ADF80E30BDF80E30FF2BDD
:10C4F00001D907237DE0029B9B781846FFF745FE94
:10C50000034683F00103DBB2002B01D0072370E068
:10C51000BDF80E301846FFF713FE0346ADF8203085
:10C52000029B9B781846FFF723FE0346ADF82230A6
:10C53000029B5B680993029B1B880A93029B997874
:10C5400005AABDF80E301846FFF7CAFE0B900B9BEC
:10C55000052B07D108AA05AB1146184606F090FC3A
:10C560000B9006E008AA05AB1146184606F097FCAA
:10C570000B900B9B002B2BD00B9B48F20D62934230
:10C5800036D80B9B48F20262934231D30B9BA3F542
:10C590000643023B0B2B2BD801A252F823F000BF1D
:10C5A000EDC50200F1C50200F1C50200F1C50200AF
:10C5B000E9C50200E5C50200F1C50200F1C50200AF
:10C5C000F1C50200F1C50200F1C50200E5C5020097
:10C5D000019B002B04D005AB0199184606F0ECFC3A
:10C5E000002306E0112304E0862302E0102300E08C
:10C5F000032318460DB05DF804FB00BF08B54FF6E5
:10C60000FF7000F0D5FC0346184608BD00B583B0A6
:10C610000346ADF80630BDF80630FF2B01D90723DD
:10C6200007E0BDF80630184600F0D4FCFFF7F4FD33
:10C630000023184603B05DF804FB00B583B0034641
:10C64000ADF80630BDF80630184600F003FD03468D
:10C65000184603B05DF804FB00B583B00346ADF89F
:10C660000630BDF80630184600F054FD0346184663
:10C6700003B05DF804FB00B583B00346ADF80630A7
:10C68000BDF80630184600F079FD0346184603B0A1
:10C690005DF804FB82B00190019B4FF6FF721A8097
:10C6A000019BFF229A70019BFF225A72019A937A92
:10C6B00023F002039372019A937A23F00103937299
:10C6C000019B00221A72019B00225A6000BF02B037
:10C6D0007047000084B003460091ADF80630009B1F
:10C6E0001B68039319E01049039A13465B00134437
:10C6F0009B000B441B88BDF806209A420AD1009B80
:10C70000039A1A60039A13465B0013449B00064A7F
:10C71000134406E0039B01330393039B032BE2D9ED
:10C720000023184604B07047C025002000B585B02E
:10C7300003460A46ADF8063013468DF8053000234F
:10C74000029302AABDF8063011461846FFF7C2FF51
:10C7500003900AE0029B0133029302AABDF806305F
:10C7600011461846FFF7B6FF0390039B002B17D026
:10C77000039B9B789DF805209A42EBD1039B9B7A03
:10C7800003F00203DBB2002BE4D1039B9B7A03F09E
:10C790000103DBB2002BDDD1039B5B68002BD9D1F9
:10C7A000039B184605B05DF804FB000084B00190BF
:10C7B0000023039316E00F49039A13465B001344CA
:10C7C0009B000B4404331B68019A9A4207D1039AD9
:10C7D00013465B0013449B00064A134406E0039B88
:10C7E00001330393039B032BE5DD0023184604B0BC
:10C7F000704700BFC025002008B5FF214FF6FF702D
:10C80000FFF794FF0346184608BD000000B585B049
:10C810000190002303930CE0019B5A7A039BDBB247
:10C820001344DBB21946094801F014F8039B0133A5
:10C830000393019B1B7A1A46039B9342ECD3019806
:10C84000FFF728FF00BF05B05DF804FBB02500200E
:10C8500000B583B001900B46ADF8023013468DF859
:10C860000130019B002B13D0FFF7C6FF0246019B4E
:10C870001A60019B1B68002B0CD0019B1B68BDF844
:10C8800002201A80019B1B689DF801209A7002E02B
:10C8900000BF00E000BF03B05DF804FB00B585B049
:10C8A00001900023039308E0084A039B52F82330C9
:10C8B00001989847039B01330393039B032BF3D900
:10C8C00000BF00BF05B05DF804FB00BFB449030022
:10C8D00086B0039001921A460B468DF80B30134632
:10C8E000ADF80830BDF808301A46920013441B0119
:10C8F000ADF81630039B9DF80B209A70039B019AAC
:10C900005A60BDF8163003339B109AB2039B1A800D
:10C9100000BF06B0704700B585B003900192009348
:10C920000B468DF80B30009B9BB29DF80B10019AC3
:10C930000398FFF7CDFF00BF05B05DF804FB0000D2
:10C9400082B00190019B9B78013B072B27D801A265
:10C9500052F823F07DC902009FC902009FC902005E
:10C960009FC902009FC9020085C9020075C9020063
:10C970008DC90200019B14221A8011E0019B012243
:10C980001A800DE0019B01221A8009E0019B5B687F
:10C990009B8809339B089AB2019B1A8000E000BF74
:10C9A00000BF02B0704700BF00B587B00190002300
:10C9B000059302AB00221A605A60019B9B788DF8A8
:10C9C0000A30019B5B7A1946314800F012FF04904F
:10C9D000049B002B01D1032355E0019B9978019B17
:10C9E0001B7A02A8049AFFF796FF02AB1846FFF7DE
:10C9F000A7FF019B1888019B1A1D02AB1946FFF780
:10CA00006DFD0590059B862B2AD0059B862B35D87E
:10CA1000059B112B14D0059B112B2FD8059B002BA8
:10CA200003D0059B072B2CD028E0019A937A23F0A2
:10CA300002039372019A937A23F00103937221E027
:10CA4000019A937A43F002039372019A937A23F046
:10CA5000010393720F4B01221A700023059311E01A
:10CA6000019A937A23F002039372019A937A43F026
:10CA700001039372074B01221A7003E0032305930D
:10CA800000E000BF059B184607B05DF804FB00BF3F
:10CA9000B0250020F025002000B589B00190019854
:10CAA000FFF782FF0790079B002B19D04FF6FF730B
:10CAB000ADF80A30019B1B88ADF80C30079B862B24
:10CAC00003D107238DF8083004E008238DF80830DF
:10CAD000079B049302AB1846FFF7E0FE002300E03B
