:020000022000DC
:1070000000000420197202000172020003720200E3
:1070100005720200077202000972020000000000FF
:107020000000000000000000000000000B720200E1
:107030000D720200000000000F72020011720200C7
:1070400011030300137202006D110300137202009A
:107050001372020013720200651003001372020023
:107060001372020013720200137202001372020004
:1070700013720200137202001372020013720200F4
:10708000137202005D2A03001372020013720200E1
:107090001372020013720200A15C0300137202005B
:1070A00013720200137202001372020013720200C4
:1070B00013720200137202000000000000000000C2
:1070C00013720200137202001372020013720200A4
:1070D0001372020013720200137202001372020094
:1070E000137202001372020013720200000000000B
:1070F0000000000013720200000000001372020082
:10710000000000000000000000000000000000007F
:10711000000000000000000000000000000000006F
:10712000000000000000000000000000000000005F
:10713000000000000000000000000000000000004F
:10714000000000000000000000000000000000003F
:10715000000000000000000000000000000000002F
:10716000000000000000000000000000000000001F
:10717000000000000000000000000000000000000F
:1071800000000000000000000000000000000000FF
:1071900000000000000000000000000000000000EF
:1071A00000000000000000000000000000000000DF
:1071B00000000000000000000000000000000000CF
:1071C00000000000000000000000000000000000BF
:1071D00000000000000000000000000000000000AF
:1071E000000000000000000000000000000000009F
:1071F000000000000000000000000000000000008F
:10720000FEE7FEE7FEE7FEE7FEE7FEE7FEE7FEE756
:10721000FEE7FEE700F002B8FFF7FCBF0F484FF0B3
:107220000701884385460E4880470E48016841F4AF
:1072300070010160BFF34F8FBFF36F8F00F01AB87A
:1072400009480A490A4A884207D0521A05D00378E9
:1072500001300B700131013AF9D170470000042070
:107260008986020088ED00E018610300D037002015
:10727000E437002039493A480A1A02D007229143DC
:107280008D46384938480A1A06D00722914381F3BF
:107290000988022282F3148834483549354A00F0BF
:1072A0003EF835483549364A00F039F83548364910
:1072B000364A00F034F836483649374A00F02FF89D
:1072C00036483749374A00F02AF837483749384AAC
:1072D00000F025F837483849384A00F020F8384897
:1072E0003849002200F033F837483849002200F0CE
:1072F0002EF837483749091A0EF040FE364A9047B3
:1073000024482549884205D00268043003B49047D8
:1073100003BCF7E700200021304A9047FEE788428F
:1073200014D0521A12D003460B43134303242342B2
:1073300006D1036804300B600431043AF9D1704778
:10734000037801300B700131013AF9D1704788425E
:1073500002D002700130FAE77047000000000420FC
:1073600000E003200000042000000420B86D0300AA
:10737000E437002040380020E0730200E073020090
:10738000A0600300B86D0300E4370020E43700205C
:107390002C6103002C6103002C6103002C610300AD
:1073A0002C6103002C6103002C6103002C6103009D
:1073B000B86D0300146E03004038002040380020F0
:1073C0004038002084400020844000208440002079
:1073D000844000208460002041720200FB7E020095
:1073E00072DF704700BF184673DF704700BF184652
:1073F00076DF704700BF18467ADF704700BF184637
:107400007CDF704700BF18468FDF704700BF18460B
:10741000B1DF704700BF184600B583B00346009146
:10742000ADF80630BDF80630009A194603480AF058
:1074300025FA00BF03B05DF804FB00BFEFBEADDE70
:1074400008B5012000F031FF00BF08BD00B583B0D2
:107450000AF056FD0190019B0093009B002B04D085
:10746000044AB52100980AF009FA00BF03B05DF89C
:1074700004FB00BF2C61030000B587B09DF800300D
:10748000012262F303038DF800309DF800300122E1
:1074900062F307138DF800306B460A221A4918462A
:1074A000FFF7AEFF0590059B0493049B002B04D0CF
:1074B000164AC92104980AF0E1F901AB082200211B
:1074C00018460EF0BDFD5023ADF80430A023ADF8F2
:1074D00006300023ADF808304FF4C873ADF80A3019
:1074E00001AB1846FFF788FF0590059B0393039BAC
:1074F000002B04D0054AD32103980AF0BFF900BF3E
:1075000007B05DF804FB00BF9C6103002C61030021
:1075100000B583B00021094804F021FD0190019BD2
:107520000093009B002B04D0054ADC2100980AF050
:10753000A5F900BF03B05DF804FB00BFA038002030
:107540002C61030000B5ABB041F22353ADF8043019
:10755000364B9B7E8DF8063017AB3C220021184637
:107560000EF06EFD02238DF85C3001238DF85E3045
:1075700006238DF85F3008AB3C22002118460EF040
:107580005FFD0123ADF8303001AB0D93284B196836
:1075900017AB284A184601F0FEFD2990299B289335
:1075A000289B002B04D0244AFC2128980AF066F975
:1075B0001F4B996808AB214A184601F0ECFD299051
:1075C000299B2793279B002B04D01B4AFF21279838
:1075D0000AF054F902AB1822002118460EF030FDD3
:1075E0000023039300238DF81C30402304930123D0
:1075F0008DF808300023ADF8143001238DF81D30CC
:1076000002AB1A460A490E48FFF7EAFE2990299B69
:107610002693269B002B05D0074A4FF486712698A7
:107620000AF02CF900BF2BB05DF804FB8038002075
:10763000E8370020EC3700202C610300F4370020ED
:10764000E437002000B583B00190054A40F21911DB
:1076500001980AF013F900BF03B05DF804FB00BF06
:107660002C61030000B583B003460091ADF80630ED
:1076700013468DF805309DF80530002B03D002200D
:1076800000F062FD02E0022000F078FD00BF03B0D0
:107690005DF804FB00B587B0002300931D4B0093F9
:1076A000002305931AE0059A13465B0013449B00E0
:1076B000194A13446A461146184604F01BFD04900B
:1076C000049B0293029B002B05D0144A40F23F1109
:1076D00002980AF0D3F8059B01330593059B012B13
:1076E000E1D90F4B019301AB19460E4808F0F2F9AE
:1076F0000490049B0393039B002B05D0074A4FF48F
:10770000A37103980AF0BAF802F01CFA00BF07B0A0
:107710005DF804FB45760200BC3800202C610300B4
:10772000657602008038002000B583B00190054ADC
:107730004FF4A97101980AF0A1F800BF03B05DF8F9
:1077400004FB00BF2C61030000B58BB001AB1C2211
:10775000002118460EF074FC002301934FF4A0237F
:1077600002934FF4A033039303238DF810300023CA
:10777000ADF8123001238DF814300B4B079301AB99
:10778000184601F04DFF0990099B0893089B002BB8
:1077900005D0064A4FF4B47108980AF06FF800BF9C
:1077A0000BB05DF804FB00BF297702002C610300D9
:1077B00000B583B00C4B1B7801211846FFF714FE6F
:1077C0000190019B0093009B002B05D0074A4FF4CA
:1077D000BA7100980AF052F8002000F0B5FC00BF22
:1077E00003B05DF804FB00BFE43700202C61030008
:1077F00000B589B0019002F029FB069000230793A1
:1078000029E02E49079A13465B0013449B000B4462
:1078100002331B884FF6FF72934219D1079A134621
:107820005B0013449B00254A1A44019B1B881946A0
:10783000104604F081FC0590059B0493049B002BEB
:107840000DD01F4A4FF4C57104980AF017F806E0EE
:10785000079B01330793079B012BD2D900E000BFA0
:10786000184B1B780133DAB2164B1A70019B1B8838
:10787000144A12781449184608F029FA059009F0BC
:107880003DFF0590059B0393039B002B05D00C4AFD
:1078900040F29311039809F0F1FF012000F054FC2D
:1078A000069B022B03D1002000F068FC01E0FFF7EB
:1078B0007FFF00BF09B05DF804FB00BFBC380020AB
:1078C0002C6103000C3D00208038002000B587B0FB
:1078D000019002F0BBFA0590059B002B10D101200E
:1078E00000F04CFC09F036FF0490049B0393039BCB
:1078F000002B05D0074A4FF4DA71039809F0BEFF58
:10790000059B012B01D1FFF753FF00BF07B05DF8C6
:1079100004FB00BF2C61030000B589B00190009109
:10792000019B1B88562B00F08C80562B00F39C800B
:10793000522B5FD0522B00F39780212B2EDC102B83
:10794000C0F29280103B112B00F28E8001A252F8FF
:1079500023F000BFA3790200AF790200697A020028
:10796000697A0200697A0200697A0200697A020083
:10797000697A0200697A0200697A0200697A020073
:10798000697A0200697A0200697A0200697A020063
:10799000697A0200697A0200C17902003B2B3DD06E
:1079A00062E0019B04331846FFF722FF65E0019B6C
:1079B00004331846FFF78AFF324B00221A705CE04E
:1079C00000238DF8083000238DF80930019B9B8837
:1079D00002AA11461846FFF717FD0790079B03936D
:1079E000039B002B42D0284A4FF4F171039809F011
:1079F00045FF3BE0019B9888002300220021FFF710
:107A000007FD0790079B0593059B002B30D01E4A6E
:107A100040F2E911059809F031FF29E0019B9B88AC
:107A200013211846FFF7E4FC0790079B0493049B7F
:107A3000002B1FD0144A40F2F111049809F01EFFE8
:107A400018E0019B9B8813211846FFF7D1FC079093
:107A5000079B0693069B002B0ED00B4A40F2F911B0
:107A6000069809F00BFF07E000BF06E000BF04E046
:107A700000BF02E000BF00E000BF00BF09B05DF83A
:107A800004FB00BF0C3D00202C61030000B587B053
:107A90000EF026F80590059B0493049B002B05D05F
:107AA000164A4FF40371049809F0E8FE002301938D
:107AB00001AB194601200EF029F90590059B0393AF
:107AC000039B002B05D00D4A40F21221039809F0C8
:107AD000D5FE01AB18460EF093F90590059B029375
:107AE000029B002B05D0054A40F21621029809F0AE
:107AF000C5FE00BF07B05DF804FB00BF2C610300AA
:107B000000B591B003468DF8073002AB184602F07D
:107B1000C5F900238DF83F302DE09DF83F305B0024
:107B200040336B4433F8343C9DF80720174918461E
:107B300008F0A2F80E900E9B002B17D00E9B43F27C
:107B40000202934212D00E9B082B0FD00E9B43F2E1
:107B5000014293420AD00E9B0D930D9B002B05D042
:107B60000B4A40F235210D9809F088FE9DF83F3010
:107B700001338DF83F309DF83F20029B9A42CCD3D1
:107B80000023184611B05DF804FB00BF80380020C8
:107B90002C61030000B585B003460A468DF8073016
:107BA00013468DF806309DF80730262B06D19DF838
:107BB00006301846FFF7A4FF039008E09DF8073051
:107BC000054A40F25121184609F058FE00BF00BF97
:107BD00005B05DF804FB00BF2C61030000B58BB05D
:107BE0000190019B1B78122B00F29D8001A252F89C
:107BF00023F000BF417C0200277D0200117D0200BE
:107C00004F7C0200117D02005D7C0200117D0200AC
:107C1000737C0200A57C0200117D0200BF7C020083
:107C2000117D0200D77C0200117D0200F17C020070
:107C3000117D02000B7D0200117D0200117D02000A
:107C4000019B9B88184606F001F905906BE0019BAB
:107C50009B88184606F0FAF8059064E000238DF83A
:107C60000C30019B5B8803AA1146184605F0B4FF4F
:107C700059E00CF0DFFC0590059B48F20D62934241
:107C800048D0059B48F20762934243D0059B04937A
:107C9000049B002B3ED0264A40F29B21049809F019
:107CA000EDFD37E0019B9B680693069B002B33D0CC
:107CB0001F4A40F2A121069809F0E0FD2CE00023C4
:107CC0000793079B002B29D1194A40F2A9210020D4
:107CD00009F0D4FD22E0019B9B680893089B002BD0
:107CE0001ED0134A40F2B121089809F0C7FD17E0F1
:107CF000019B9B680993099B002B13D00C4A40F20F
:107D0000BA21099809F0BAFD0CE005F079FF0AE004
:107D100000BF08E000BF06E000BF04E000BF02E0D3
:107D200000BF00E000BF00BF0BB05DF804FB00BF68
:107D30002C61030000B58BB003468DF8073005F0C9
:107D4000BFFE0990099B0893089B002B05D0424A6F
:107D50004FF43671089809F091FD9DF80730002B1B
:107D60000DD005F075FF0990099B0793079B002B29
:107D700005D0394A40F2DD21079809F07FFD03ABB9
:107D80000522002118460EF05BF99DF80C3043F0F7
:107D900001038DF80C309DF80C3023F002038DF8B0
:107DA0000C309DF80C3023F004038DF80C309DF856
:107DB0000C3023F008038DF80C309DF80C300322B2
:107DC00062F306138DF80C309DF80C3023F080031D
:107DD0008DF80C3007238DF80D3010238DF80E3000
:107DE0009DF80F3043F001038DF80F309DF80F30F0
:107DF00043F002038DF80F309DF8103043F001037B
:107E00008DF810309DF8103043F002038DF81030DB
:107E100003AB184605F0C8FE0990099B0693069B24
:107E2000002B05D00C4A40F2F221069809F026FDFD
:107E30000A4805F091FE0990099B0593059B002BCC
:107E400005D0054A40F2F521059809F017FD00BF5D
:107E50000BB05DF804FB00BF2C610300DD7B02006A
:107E600000B583B040F233320121094809F0BEFB6E
:107E70000190019B0093009B002B05D0054A40F226
:107E80000631009809F0FAFC00BF03B05DF804FB6E
:107E9000F83700202C61030000B583B00023019364
:107EA000019B0093009B002B05D0054A40F20F3147
:107EB000009809F0E3FC00BF03B05DF804FB00BFCD
:107EC0002C61030000B583B00DF016FB0190019BFF
:107ED0000093009B002B05D0044A40F21B31009810
:107EE00009F0CCFC00BF03B05DF804FB2C6103007B
:107EF00008B50DF017FB00BF08BD00B583B0FFF754
:107F0000CBFFFFF7A3FAFFF79BFAFFF7A9FFFFF7F5
:107F1000D9FFFFF7BBFDFFF7AFFAFFF7F9FAFFF75D
:107F2000B9FBFFF70FFBFFF70FFC9DF80730184672
:107F3000FFF700FFFFF73CFCFFF7DAFFFCE700006C
:107F4000BFF34F8F00BF064BDB6803F4E0620449C8
:107F5000044B1343CB60BFF34F8F00BF00BFFDE75F
:107F600000ED00E00400FA0500B583B00190019B2C
:107F70001B68184600F0C3F80346002B04D10B49D8
:107F80004FF4F670FFF748FA019B1B681F2B02D8CD
:107F90004FF0A04306E0019B1B6803F01F02019B0A
:107FA0001A60034B184603B05DF804FBA861030098
:107FB0000003005000B585B00190084611461A46EE
:107FC00003468DF803300B468DF8023013468DF8CA
:107FD000013001AB1846FFF7C7FF03909DF803205F
:107FE0009DF802305B001A439DF801309B001A4354
:107FF0009DF818301B0242EA03019DF81C301B0457
:10800000019A1943039B02F5E07243F8221000BF66
:1080100005B05DF804FB00B585B003900023019323
:10802000002300930023012201210398FFF7C2FFE0
:1080300000BF05B05DF804FB00B585B003900B46AA
:108040008DF80B309DF80B30002201920022009237
:10805000002200210398FFF7ADFF00BF05B05DF8D7
:1080600004FB00B585B0019001AB1846FFF77CFF1B
:108070000390019B012202FA03F31946039800F0D2
:108080002AF800BF05B05DF804FB00B585B001908B
:1080900001AB1846FFF768FF0390019B012202FA2B
:1080A00003F31946039800F020F800BF05B05DF80F
:1080B00004FB00B583B001900091009B002B03D11D
:1080C0000198FFF7E2FF02E00198FFF7CAFF00BF47
:1080D00003B05DF804FB82B001900091019B009A0F
:1080E000C3F8082500BF02B0704782B0019000912C
:1080F000019B009AC3F80C2500BF02B0704784B002
:108100000190019B5B09029300230393029B002BC8
:1081100003D0029B012B04D007E04FF0FF33039301
:1081200003E04FF6FF73039300BF019B03F01F03AF
:108130000193039A019B22FA03F303F00103DBB2DC
:10814000184604B07047000000B583B00190019B51
:10815000032B03D907494120FFF75EF9064A019B2B
:1081600013441B7800211846FFF7A3FF00BF03B09C
:108170005DF804FBD86103003C62030000B583B0E6
:108180000190019B032B03D907494720FFF744F9CE
:10819000064A019B13441B7801211846FFF789FF0B
:1081A00000BF03B05DF804FBD86103003C6203002C
:1081B00000B583B00023019305E00198FFF7DEFFCF
:1081C000019B01330193019B032BF6D900BF00BF34
:1081D00003B05DF804FB000008B54FF01023D3F89E
:1081E000043303F00703072B21D1124B0122C3F8FC
:1081F000042500BF0F4BD3F80034002BFAD04FF00A
:108200001023D3F8043323F007034FF0102243F078
:108210000403C2F80433074B0022C3F8042500BF4F
:10822000044BD3F80034002BFAD0FFF789FE00BFCF
:1082300008BD00BF00E0014000B583B04FF08043AF
:10824000D3F8403603F00103002B01D0FFF7C4FF41
:108250000023019309E0094A019B13441B78184647
:10826000FFF7D9FE019B01330193019B032BF2D948
:10827000FFF79EFF00BF03B05DF804FB3C62030004
:1082800000B583B00023019307E02623032118469D
:10829000FFF7D2FE019B01330193019B002BF4D029
:1082A00000BF00BF03B05DF804FB00B583B00190D0
:1082B000019B03F00103002B01D0FFF7BDFF019BE1
:1082C00003F00203002B01D0FFF7DAFF00BF03B079
:1082D0005DF804FBBFF34F8F00BF064BDB6803F470
:1082E000E0620449044B1343CB60BFF34F8F00BFE0
:1082F00000BFFDE700ED00E00400FA0582B0164B78
:108300001B680193154B1B680093019B082B1FD121
:10831000009B052B1AD801A252F823F035830200E6
:10832000398302003D83020041830200458302003D
:108330004983020001230CE001230AE0012308E045
:10834000012306E0012304E0012302E0012300E011
:108350000023184602B070473001001034010010AD
:1083600082B0164B1B680193154B1B680093019B51
:10837000082B1FD1009B052B1AD801A252F823F01D
:10838000998302009D830200A1830200A58302005D
:10839000A9830200AD83020001230CE001230AE05F
:1083A000012308E0012306E0012304E0012302E0A9
:1083B000012300E00023184602B07047300100108E
:1083C0003401001082B0164B1B680193154B1B68DB
:1083D0000093019B082B1FD1009B052B1AD801A2EB
:1083E00052F823F0FD83020001840200058402009C
:1083F000098402000D8402001184020001230CE0B4
:1084000000230AE0002308E0002306E0002304E044
:10841000002302E0002300E00023184602B070476A
:10842000300100103401001082B0164B1B6801931C
:10843000154B1B680093019B082B1FD1009B052B3C
:108440001AD801A252F823F0618402006584020068
:10845000698402006D840200718402007584020048
:1084600001230CE000230AE0002308E0002306E0DB
:10847000002304E0002302E0002300E0002318466C
:1084800002B07047300100103401001082B0164B6A
:108490001B680193154B1B680093019B082B1FD190
:1084A000009B052B1AD801A252F823F0C5840200C4
:1084B000C9840200CD840200D1840200D584020068
:1084C000D984020001230CE000230AE0002308E025
:1084D000002306E0002304E0002302E0002300E084
:1084E0000023184602B0704730010010340100101C
:1084F00082B0164B1B680193154B1B680093019BC0
:10850000082B1FD1009B052B1AD801A252F823F08B
:10851000298502002D850200318502003585020083
:10852000398502003D85020001230CE000230AE0AA
:10853000002308E0002306E0002304E0002302E01B
:10854000002300E00023184602B0704730010010FD
:108550003401001082B0164B1B680193154B1B6849
:108560000093019B082B1FD1009B052B1AD801A259
:1085700052F823F08D850200918502009585020056
:10858000998502009D850200A185020001230CE06F
:1085900001230AE0012308E0012306E0012304E0AF
:1085A000012302E0012300E00023184602B07047D7
:1085B000300100103401001082B0164B1B6801938B
:1085C000154B1B680093019B082B1FD1009B052BAB
:1085D0001AD801A252F823F0F1850200F5850200B5
:1085E000F9850200FD850200018602000586020071
:1085F00000230CE000230AE0002308E0002306E04B
:10860000012304E0012302E0012300E000231846D7
:1086100002B07047300100103401001008B5FFF7B8
:10862000CBFF0346002B07D04FF010234FF08042C2
:10863000D3F80832C2F8583500BF08BD00BF044B5C
:10864000D3F80034002BFAD000BF00BF704700BF42
:1086500000E0014000B583B00190054A019BC2F8DB
:108660000435FFF7EBFF00BF03B05DF804FB00BF6C
:1086700000E00140024B034A1A6000BF704700BF90
:10868000003800200090D00308B5FFF737FE0346FE
:10869000002B0ED04FF080430022C3F80C214FF086
:1086A00080430022C3F810214FF080430022C3F81A
:1086B0003825FFF755FE0346002B76D04FF0805348
:1086C000734AD3F80434C2F820354FF08053704A0F
:1086D000D3F80834C2F824354FF080536C4AD3F8ED
:1086E0000C34C2F828354FF08053694AD3F810345F
:1086F000C2F82C354FF08053654AD3F81434C2F8D1
:1087000030354FF08053624AD3F81834C2F834350C
:108710004FF080535E4AD3F81C34C2F840354FF016
:1087200080535B4AD3F82034C2F844354FF080536D
:10873000574AD3F82434C2F848354FF08053544A8E
:10874000D3F82834C2F84C354FF08053504AD3F850
:108750002C34C2F850354FF080534D4AD3F83034A2
:10876000C2F854354FF08053494AD3F83434C2F834
:1087700060354FF08053464AD3F83834C2F8643538
:108780004FF08053424AD3F83C34C2F868354FF07A
:1087900080533F4AD3F84034C2F86C354FF08053D1
:1087A0003B4AD3F84434C2F87035FFF70BFE03465A
:1087B000002B02D0374B384A1A60FFF735FE0346CC
:1087C000002B03D0354BFB22C3F81825FFF75EFEC4
:1087D0000346002B0AD0324B1B6823F00F02314BAB
:1087E0001B6803F00F032E4913430B60FFF780FE55
:1087F0000346002B03D02C4B4FF400721A60FFF796
:10880000A9FE0346002B0DD04FF08043D3F800346F
:1088100003F00103002B05D04FF080436FF00102FD
:10882000C3F80024214BD3F88830204A43F4700366
:10883000C2F88830BFF34F8F00BFBFF36F8F00BF08
:10884000FFF7ECFE4FF01023D3F80032002B05DBCE
:108850004FF01023D3F80432002B15DA0120FFF774
:10886000F9FE4FF010231222C3F80022FFF7E6FEB4
:108870004FF010231222C3F80422FFF7DFFE00207E
:10888000FFF7E8FEFFF726FDFFF7F4FE00BF08BD87
:1088900000C000408C5600404881030000F00040BA
:1088A000E40E0040580200104096024000ED00E047
:1088B0006DDF704700BF184679DF704700BF18466C
:1088C0007DDF704700BF184664DF704700BF184661
:1088D00082B003460091ADF80630BDF80630DAB23A
:1088E000009B1A70BDF806301B0A9AB2009B013338
:1088F000D2B21A700223184602B0704700B589B090
:10890000039002911346ADF80630029B1B8803F1D9
:108910000902BDF806309A4201D90C2353E004AB9A
:108920001846FFF7C5FF0790079B0693069B002B91
:1089300001D0069B47E0029B1B881A46039B134409
:1089400008221A70029B1B8801339AB2029B1A807C
:10895000029B1B881A46039B13441B221A70029B1E
:108960001B8801339AB2029B1A80029B1B881A460D
:10897000039B981804AB0133062219460DF02EFB19
:10898000029B1B8806339AB2029B1A809DF8103016
:1089900023F00103DBB2002B07D1029B1B881A4690
:1089A000039B134400221A7006E0029B1B881A46A0
:1089B000039B134401221A70029B1B8801339AB255
:1089C000029B1A800023184609B05DF804FB00B52D
:1089D00089B0039002910192ADF80230039B1B789D
:1089E000012B05D1039B5B78002B01D1072391E07C
:1089F000019B1B889A1CBDF802309A420ED8039B3B
:108A00001B78012B0CD1019B1B881A46039B5B78BA
:108A100013449A1CBDF802309A4201D90C2379E024
:108A2000019B1B88BDF80220D31A9BB2023BADF814
:108A30001C30BDF81C30ADF81230019B1B8802338E
:108A4000029A13440DF1120211461846FFF738FF3F
:108A50000690069B0593059B002B01D0059B59E0D2
:108A6000039B1B78022B06D0039B5B781A46BDF84C
:108A700012309A4209D3BDF81230BDF81C209A4238
:108A800003D309238DF81F3016E008238DF81F301B
:108A9000039B1B78012B0BD1039B5B781A46BDF817
:108AA0001C30934204D3039B5B78ADF8123003E093
:108AB000BDF81C30ADF81230BDF81230FE2B01D9D4
:108AC0000C2327E0BDF81230DAB2019B1B8819464F
:108AD000029B0B440132D2B21A70019B1B880133F6
:108AE0009AB2019B1A80019B1B881A46029B134471
:108AF0009DF81F201A70019B1B8801339AB2019BBD
:108B00001A80019B1A88BDF8123013449AB2019B57
:108B10001A800023184609B05DF804FB00B589B03F
:108B2000039002911346ADF80630029B1B881A1D74
:108B3000BDF806309A4201D90C233AE00DF1160334
:108B40001846FFF7B9FE0790079B0693069B002B7C
:108B500001D0069B2DE0029B1B881A46039B134401
:108B600003221A70029B1B8801339AB2029B1A805F
:108B7000029B1B881A46039B134419221A70029BFE
:108B80001B8801339AB2029B1A80BDF81620029B03
:108B90001B881946039B0B4419461046FFF798FEA5
:108BA00003461A46029B1B8813449AB2029B1A8002
:108BB0000023184609B05DF804FB84B002910192CD
:108BC0001A4603468DF80F301346ADF80C30019B62
:108BD0001B88DA1CBDF80C309A4201D90C2328E01E
:108BE000019B1B881A46029B134402221A70019BA8
:108BF0001B8801339AB2019B1A80019B1B881A467D
:108C0000029B134401221A70019B1B8801339AB204
:108C1000019B1A80019B1B881A46029B13449DF8F6
:108C20000F201A70019B1B8801339AB2019B1A8096
:108C30000023184604B0704784B0029101921A468E
:108C400003468DF80F301346ADF80C30019B1B889E
:108C5000DA1CBDF80C309A4201D90C2328E0019BA4
:108C60001B881A46029B134402221A70019B1B8820
:108C700001339AB2019B1A80019B1B881A46029B02
:108C800013440A221A70019B1B8801339AB2019B7C
:108C90001A80019B1B881A46029B13449DF80F20E3
:108CA0001A70019B1B8801339AB2019B1A80002322
:108CB000184604B0704700B58FB0039001930B467F
:108CC0008DF80B3013468DF80A3000238DF83330C1
:108CD000109B1B88ADF8303000230D9370E0039B90
:108CE0005A680D9B9B001A4405AB106818600DF183
:108CF0001B0105AB00221846FFF7E6FD0A900A9B10
:108D00000993099B002B01D0099B7BE09DF81B3048
:108D10009DF80A209A4250D19DF83330002B01D0A3
:108D2000002300E002238DF82330109B1B881A4695
:108D30009DF81B301A449DF823301A44BDF8443086
:108D40009A4201DD0C235DE09DF8333083F001038E
:108D5000DBB2002B16D0109B1B8801339AB2109BFC
:108D60001A80109B1B881A46019B13449DF80B2008
:108D70001A70109B1B8801339AB2109B1A80012332
:108D80008DF83330109B1B881A46019B1A440DF155
:108D90001B0105AB1846FFF797FD0A900A9B079346
:108DA000079B002B01D0079B2CE0109B1B889DF894
:108DB0001B2013449AB2109B1A800D9B01330D9314
:108DC000039B1B881A460D9B934288DB9DF833302A
:108DD000002B16D0109B1A88BDF83030D31A9BB2E6
:108DE000013BADF82E30BDF82E30FF2B01D90C23FE
:108DF00008E0BDF83030019A1344BDF82E20D2B2FD
:108E00001A70002318460FB05DF804FB00B58BB054
:108E1000059003930B468DF8133013468DF81230EE
:108E20009DF81310BDF8343001930C9B0093039B05
:108E300002220598FFF73FFF0990099B0893089BC2
:108E4000002B01D0089B14E09DF81210BDF83430BF
:108E500001930C9B0093039B10220598FFF72BFFB7
:108E60000990099B0793079B002B01D0079B00E00B
:108E7000002318460BB05DF804FB82B00190019B03
:108E80001B88052B0AD9019B1B88B3F5486F07D9AE
:108E9000019B1B884FF6FF72934201D0072325E008
:108EA000019B5B88052B0AD9019B5B88B3F5486F52
:108EB00007D9019B5B884FF6FF72934201D00723CD
:108EC00014E0019B1B884FF6FF7293420DD0019B6B
:108ED0005B884FF6FF72934207D0019B1A88019B73
:108EE0005B889A4201D9072300E00023184602B0AC
:108EF000704700B587B0039002910192ADF802303F
:108F0000019B1B889A1DBDF802309A4201D90C239F
:108F10004BE00398FFF7B1FF0590059B0493049B7A
:108F2000002B01D0049B40E0019B1B881A46029B4A
:108F3000134405221A70019B1B8801339AB2019BCE
:108F40001A80019B1B881A46029B134412221A7036
:108F5000019B1B8801339AB2019B1A80039B1A88DC
:108F6000019B1B881946029B0B4419461046FFF7CC
:108F7000AFFC03461A46019B1B8813449AB2019B1F
:108F80001A80039B5A88019B1B881946029B0B443D
:108F900019461046FFF79CFC03461A46019B1B88A6
:108FA00013449AB2019B1A800023184607B05DF85B
:108FB00004FB00B587B0039002910192ADF8023036
:108FC000039B9B8802330593019B1B881A46059BD4
:108FD00013449A1CBDF802309A4201D90C2353E085
:108FE000059BFE2B01D90C234EE0059BDAB2019BB9
:108FF0001B881946029B0B440132D2B21A70019BA6
:109000001B8801339AB2019B1A80019B1B881A4668
:10901000029B1344FF221A70019B1B8801339AB2F2
:10902000019B1A80039B1A88019B1B881946029B8F
:109030000B4419461046FFF74BFC03461A46019BAA
:109040001B8813449AB2019B1A80039B9B88002BB8
:1090500019D0039B9B68002B01D1072314E0019BCF
:109060001B881A46029B9818039B9968039B9B8850
:109070001A460CF0B3FF019B1A88039B9B8813448C
:109080009AB2019B1A800023184607B05DF804FBD2
:1090900000B589B0039002910192ADF80230039BB4
:1090A0009B6A002B01D1072371E000238DF81F304C
:1090B00065E0039B996A9DF81F2013465B001344EB
:1090C0009B000B440693069B9B8802330593059BEC
:1090D000FE2B01D90C235AE0059BDAB2019B1B88B9
:1090E0001946029B0B440132D2B21A70019B1B88B5
:1090F00001339AB2019B1A80019B1B881A46029B7E
:10910000134416221A70019B1B8801339AB2019BEB
:109110001A80069B1A88019B1B881946029B0B44E8
:1091200019461046FFF7D4FB03461A46019B1B88DD
:1091300013449AB2019B1A80069B9B88002B19D07E
:10914000069B9B68002B01D1072320E0019B1B8815
:109150001A46029B9818069B9968069B9B881A469C
:109160000CF03CFF019B1A88069B9B8813449AB223
:10917000019B1A809DF81F3001338DF81F30039B2F
:1091800093F82C309DF81F209A4292D30023184662
:1091900009B05DF804FB00B595B005900491039209
:1091A00000231393039B1B88ADF84A30039B0022D6
:1091B0001A80059B93F82D30002B0ED0BDF84A3055
:1091C0001A4603990498FFF799FB1390139B119388
:1091D000119B002B01D0119BD8E0059B9B78002BA5
:1091E0000ED0BDF84A301A4603990498FFF796FC52
:1091F0001390139B1093109B002B01D0109BC5E084
:10920000059BDB78002B10D0059BDB7858B2BDF8AE
:109210004A30039A0499FFF7D0FC1390139B0F93E5
:109220000F9B002B01D00F9BB0E0059B5B68002BD0
:1092300011D0059B5B6893F90000BDF84A30039A92
:109240000499FFF7F9FC1390139B0E930E9B002BD0
:1092500001D00E9B9AE0059B1B89002B14D0059B27
:1092600003F10800BDF84A300193039B0093049B6F
:1092700006220221FFF7CAFD1390139B0D930D9B4D
:10928000002B01D00D9B81E0059B1B8A002B14D085
:10929000059B03F11000BDF84A300193039B009336
:1092A000049B07220321FFF7B1FD1390139B0C933E
:1092B0000C9B002B01D00C9B68E0059B1B8B002BAB
:1092C00014D0059B03F11800BDF84A300193039BAD
:1092D0000093049B15221421FFF798FD1390139B14
:1092E0000B930B9B002B01D00B9B4FE0059B1B6A44
:1092F000002B0FD0059B186ABDF84A30039A0499D9
:10930000FFF7F7FD1390139B0A930A9B002B01D0E4
:109310000A9B3BE0059B5B6A002B0FD0059B586ABC
:10932000BDF84A30039A0499FFF743FE1390139B4C
:109330000993099B002B01D0099B27E0059B93F81B
:109340002C30002B0ED0BDF84A30039A04990598B2
:10935000FFF79EFE1390139B0893089B002B01D0F0
:10936000089B13E0059B1B78002B0ED0BDF84A30FC
:10937000039A04990598FFF72AFB1390139B079310
:10938000079B002B01D0079B00E0139B184615B0EC
:109390005DF804FB75DF704700BF184676DF704745
:1093A00000BF18467ADF704700BF18467BDF704762
:1093B00000BF184684B00346ADF80630002303937F
:1093C00016E00F49039A13469B0013449B000B447D
:1093D0001B88BDF806209A4207D1039A13469B00CA
:1093E00013449B00064A134406E0039B0133039396
:1093F000039B012BE5D90023184604B0704700BF3A
:109400001839002082B001900B46ADF80230019B64
:10941000BDF802201A80019B00221A72019B0549A7
:1094200003F10A020B4603CB1060516000BF02B08B
:10943000704700BF5C39002082B00190019B4FF65D
:10944000FF721A8000BF02B0704788B0039002918B
:1094500011461A460B46ADF806301346ADF80430F7
:10946000039B9B881A46BDF8063013440793039B61
:109470009B881946039B9B88BDF80620934228BF12
:1094800013469BB2CB1A0693039BDB881A46BDF8A2
:10949000043013440593039BDB881946039BDB8848
:1094A000BDF80420934228BF13469BB2CB1A049305
:1094B000029B5A88039B1B889A4205D3029B5A88B9
:1094C000039B5B889A4201D900231CE0029B9B8886
:1094D0001A46069B934205D8029B9B881A46079B17
:1094E000934201D200230EE0029BDB881A46049BC4
:1094F000934205D8029BDB881A46059B934201D212
:10950000002300E00123184608B0704700B583B07F
:109510000190064B9B69002B03D0044B9B6901987B
:10952000984700BF03B05DF804FB00BF403900203E
:1095300000B585B003460091ADF80630BDF80630A1
:1095400000991846FFF726FF0390039B002B05D0D8
:10955000039B112B02D00398FFF7D8FF039B002B2E
:109560000CBF01230023DBB2184605B05DF804FBF5
:1095700000B589B00190019B0793079B9BB21846E9
:10958000FFF718FF0690069B002B42D0069B1A7A25
:10959000224B1B7B9A4215D2079B9AB2069B0A3339
:1095A00019461046FFF7C4FF03468DF813309DF8A7
:1095B0001330002B2DD0069B1B7A0133DAB2069BA9
:1095C0001A7226E0069B00221A72144B1B7C002B99
:1095D0000FD0079B9BB23B211846FFF7DFFE05909B
:1095E000059B002B05D0059B082B02D00598FFF7A3
:1095F0008DFF0A4B5B69002B0BD000238DF80C30DC
:10960000079B9BB2ADF80E30044B5B6903AA104672
:10961000984700BF09B05DF804FB00BF4039002047
:1096200030B587B00190019B002B01D10E2353E090
:109630002B4A019B14461D460FCD0FC495E8070029
:1096400084E80700264B274A1A60019B1B68002B01
:1096500011D0019B1B681846FFF7A4FE0490049BE1
:10966000002B01D0049B37E0019B1A681D4B10684A
:10967000516803C308E01B48FFF798FE0490049B61
:10968000002B01D0049B27E00023059320E0059ADE
:1096900013469B0013449B00134A134403930398FF
:1096A000FFF7CAFE059B5B01104A1A44039B5A60F0
:1096B000039B04330E4A0021184608F05FFC049017
:1096C000049B002B01D0032306E0059B0133059387
:1096D000059B012BDBD90023184607B030BD00BF26
:1096E000403900205C39002018390020D83800208B
:1096F0007195020000B587B003460091ADF80630C1
:10970000009B5B7A002B1AD1009B1B7A002B03D1A4
:10971000164B5B68059302E0144B9B680593009B16
:109720005B68BDF806200599184608F061FC0490B6
:10973000049B002B16D00498FFF7E8FE12E0009B74
:1097400000221A72094B5B69002B0BD001238DF8A4
:109750000C30BDF80630ADF80E30044B5B6903AA3F
:109760001046984700BF07B05DF804FB4039002061
:1097700000B585B00190019BDB7B8DF80F30019B1C
:109780009B88ADF80C309DF80F30012B2CD14FF693
:10979000FF70FFF70FFE0290029B002B03D1042005
:1097A000FFF7B4FE21E0BDF80C3019460298FFF730
:1097B00029FE029B03F10A00019B03F110014FF601
:1097C000FF7340F2F312FFF740FE03461A46029B76
:1097D0005A72074BDB89002B07D1BDF80C30029978
:1097E0001846FFF787FF00E000BF05B05DF804FBF7
:1097F0004039002000B587B00190019B9B88ADF8EF
:109800001630BDF816301846FFF7D4FD0490049BBF
:10981000002B0ED0049B5B68184608F041FC0390B7
:10982000039B002B02D00398FFF770FE0498FFF70C
:1098300003FE00BF07B05DF804FB000000B587B071
:109840000190019B06330593059B1A88194BDB8910
:109850009A422BD1059B5B89022B27D1019B9B88C8
:10986000ADF81230BDF812301846FFF7A3FD039093
:10987000039B002B1AD0059B0C33184600F007FC05
:109880000346002B06D0BDF8123003991846FFF7A7
:1098900031FF0BE0039B5B68184608F001FC029067
:1098A000029B002B02D00298FFF730FE00BF07B0EA
:1098B0005DF804FB4039002000B585B00190019BA4
:1098C0009B88ADF80E30BDF80E301846FFF772FDDC
:1098D0000290029B002B15D0029B03F10A00019B12
:1098E00003F108014FF6FF7340F2F312FFF7ADFDED
:1098F00003461A46029B5A72BDF80E30029918466A
:10990000FFF7F8FE00BF05B05DF804FB00B583B0BB
:1099100001900091019B1B88502B12D0502B18DC1A
:10992000122B12D0122B14DC102B02D0112B04D0CE
:109930000FE00198FFF71CFF0CE00198FFF75AFFBA
:1099400008E00198FFF77AFF04E00198FFF7B4FF01
:1099500000E000BF00BF03B05DF804FB08B57C2247
:10996000002102480CF06CFB00BF08BD64390020E8
:1099700030B58FB00190009100230293009B002B23
:109980001AD000230D9314E06B460D9918460BF086
:1099900062F80346002B09D0029B5A1C02920D9AD2
:1099A00092B25B0038336B4423F82C2C0D9B0133AF
:1099B0000D930D9B132BE7D9019B1D4602AC0FCCD9
:1099C0000FC50FCC0FC594E8070085E80700019884
:1099D0000FB030BD00B585B0019000230393002384
:1099E00002930DE001AB029918460BF034F80346E0
:1099F000002B02D0039B01330393029B013302939C
:109A0000029B132BEED9039B184605B05DF804FBAF
:109A100000B583B00346ADF80630BDF80630132B11
:109A200001D900230CE0BDF80630194606480AF0BB
:109A3000BDFFBDF80630194604480AF0B7FF012300
:109A4000184603B05DF804FB6C390020683900202B
:109A500000B585B00346ADF80630002303930DE052
:109A6000039B9B00094A13440433BDF806201146AA
:109A700018460AF0D7FF039B01330393039B1D2B6A
:109A8000EED900BF00BF05B05DF804FB64390020CB
:109A900000B583B00346ADF80630BDF80630194670
:109AA00003480AF0BFFF00BF03B05DF804FB00BF2E
:109AB0006C39002030B59BB0184B9B68DB43189382
:109AC000164B5A6818AB114618460BF082F8189AD4
:109AD0006B4611461846FFF74BFF0DAC6D460FCD98
:109AE0000FC40FCD0FC495E8070084E807000023DA
:109AF00019930BE0199B5B0068336B4433F8303CDF
:109B00001846FFF7A5FF199B013319930D9B199A6E
:109B10009A42EFD300BF00BF1BB030BD64390020B4
:109B200000B583B003468DF807309DF8073019461D
:109B300003480AF090FF0346184603B05DF804FBA3
:109B40006439002008B5FFF709FF00BF08BD00B564
:109B500083B001900B46ADF8023013468DF801300A
:109B60009DF80130002B06D0BDF80230194601984F
:109B70000AF01CFF05E0BDF80230194601980AF012
:109B800051FF00BF03B05DF804FB000000B585B0D5
:109B900001900091019B9B88ADF80E30019B1B88C2
:109BA000103B0A2B00F2838001A252F823F000BF81
:109BB000DD9B0200199C0200AF9C0200AF9C0200DA
:109BC000AF9C0200AF9C0200AF9C0200AF9C020061
:109BD000AF9C0200839C0200259C0200FFF76AFFF5
:109BE000BDF80E301846FFF713FF034683F001035C
:109BF000DBB2002B05D0304AF021042007F03EFEF6
:109C000052E0019BDB7B022B4ED1BDF80E30194692
:109C10002A480AF0CBFE47E0BDF80E301846FFF7A1
:109C200037FF44E0019B1B7AC3F30313DBB28DF8CB
:109C30000D309DF80D30032B8CBF01230023DAB2C9
:109C4000BDF80E3019461E48FFF781FF9DF80D3014
:109C5000022B8CBF01230023DAB2BDF80E30194667
:109C60001848FFF774FF9DF80D30012B8CBF0123BE
:109C70000023DAB2BDF80E3019461348FFF767FF2C
:109C800015E0019B1B7A002B10D1019B5B7AC3F37B
:109C9000C0038DF80C309DF80C20BDF80E3019462D
:109CA0000748FFF754FF01E000BF00E000BF00BF1E
:109CB00005B05DF804FB00BF40620300703900206E
:109CC0007C390020783900207439002000B583B039
:109CD0000346ADF80630BDF80630132B01D900233A
:109CE00006E0BDF80630194603480AF0B4FE034604
:109CF000184603B05DF804FB6839002000B585B054
:109D00000346ADF8063000238DF80F30BDF806305D
:109D10001846FFF7DBFF0346002B11D0BDF80630D5
:109D200019460A480AF097FE03468DF80E309DF852
:109D30000E30002B01D0022300E001238DF80F30FC
:109D40009DF80F30184605B05DF804FB703900200F
:109D500000B585B00346ADF8063000238DF80F300E
:109D6000BDF806301846FFF7B1FF0346002B11D0AF
:109D7000BDF8063019460A480AF06DFE03468DF814
:109D80000E309DF80E30002B01D0022300E001239D
:109D90008DF80F309DF80F30184605B05DF804FBC4
:109DA0006C39002000B583B00346ADF80630BDF82D
:109DB00006301846FFF78AFF0346002B07D0BDF890
:109DC0000630194604480AF046FE034600E0002328
:109DD000184603B05DF804FB7439002000B583B069
:109DE0000346ADF80630BDF806301846FFF76EFFA3
:109DF0000346002B07D0BDF80630194604480AF088
:109E00002AFE034600E00023184603B05DF804FB79
:109E10007839002000B583B00346ADF80630BDF8B0
:109E200006301846FFF752FF0346002B07D0BDF857
:109E30000630194604480AF00EFE034600E00023EF
:109E4000184603B05DF804FB7C39002000B583B0F0
:109E5000094BDB68DB430193074B9A6801AB114662
:109E600018460AF0B6FE019B1846FFF7B3FD0346FD
:109E7000184603B05DF804FB6439002000B583B0D8
:109E80000190054B5A68019B11461846FFF770FD7B
:109E9000019803B05DF804FB6439002000B585B07B
:109EA00001900A4BDB68DB430393084B9A6803ABD2
:109EB000114618460AF08DFE039A019B114618467A
:109EC000FFF756FD019805B05DF804FB64390020EA
:109ED00000B583B0182107480AF0D5FD0190019B19
:109EE000182B01D1182301E0019BDBB2184603B007
:109EF0005DF804FB6439002000B583B003460A46D0
:109F0000ADF8063013468DF805309DF8053018463B
:109F1000FFF706FE0346002B16D0BDF806301846A4
:109F2000FFF7D4FE0346002B0ED09DF80530063314
:109F30009B00084A13440433BDF806201146184616
:109F40000AF089FD034600E00023184603B05DF8DF
:109F500004FB00BF6439002000B583B00346ADF8B0
:109F600006300B468DF8053013468DF804309DF809
:109F700005301846FFF7D4FD0346002B15D0BDF879
:109F800006301846FFF7A2FE0346002B0DD09DF8C1
:109F9000053006339B00074A134404339DF8042020
:109FA000BDF806101846FFF7D2FD00BF03B05DF8FC
:109FB00004FB00BF6439002000B587B00390029114
:109FC0000192029B002B01D100231FE00023059387
:109FD000039B002B19D00023049313E003AB0499D7
:109FE00018460AF038FD0346002B08D0049B9AB2AD
:109FF000029B019910469847059B01330593049BEA
:10A0000001330493049B132BE8D9059B184607B032
:10A010005DF804FB00B585B00346029101928DF80E
:10A020000F309DF80F301846FFF77AFD034683F096
:10A030000103DBB2002B01D000230CE09DF80F30B0
:10A04000074A06339B0013445B68019A029918463D
:10A05000FFF7B2FF0346184605B05DF804FB00BFEA
:10A060006439002082B00190019B1B781AB2019BD9
:10A0700001331B781BB21B021BB213431BB29BB2F2
:10A08000184602B07047AADF704700BF184600B5F7
:10A0900085B001900198FFF7E5FF0346ADF80E305B
:10A0A000BDF80E3003F00103DBB2184605B05DF8D1
:10A0B00004FB000082B0034600918DF80730009A3F
:10A0C000137823F00F031370009A137823F0F00332
:10A0D00013709DF80730052B5BD801A252F823F0CE
:10A0E000F9A002000FA1020029A1020043A1020071
:10A0F0005DA1020077A10200009A137823F00F03FC
:10A100001370009A137823F0F003137040E0009A64
:10A110001378012161F303031370009A137801216E
:10A1200061F30713137033E0009A1378012161F390
:10A1300003031370009A1378022161F3071313705D
:10A1400026E0009A1378012161F303031370009A4B
:10A150001378032161F30713137019E0009A137841
:10A16000022161F303031370009A1378012161F354
:10A17000071313700CE0009A1378022161F30303B4
:10A180001370009A1378022161F30713137000BF54
:10A1900000BF00BF02B0704700B595B00346029102
:10A1A0000192ADF80E30029B9B78002B03D1012366
:10A1B0008DF81E3003E0029B9B788DF81E30029BC9
:10A1C0001B88ADF81C3006AB0322002118460BF0AB
:10A1D00037FF029B5B7C06AA11461846FFF76AFF11
:10A1E000029B9A7C06AB013319461046FFF762FFCB
:10A1F000029BDA7B9DF81A3062F3C3038DF81A30A4
:10A20000029B1A7C9DF81A3062F304138DF81A3001
:10A21000029B1A7B9DF81A3062F300038DF81A3006
:10A22000029B1B7D002B01D0022200E001229DF841
:10A230001A3062F342038DF81A300DAB1C22002154
:10A2400018460BF0FDFE029B5B7B03F01003DBB2B4
:10A25000002B06D1029B5B7B03F02003DBB2002BBB
:10A2600024D004AB0322002118460BF0E9FE029B28
:10A27000DA7C04AB013319461046FFF71BFF9DF84B
:10A280001030012262F303038DF810309DF8103076
:10A29000012262F307138DF810309DF8123001226D
:10A2A00062F342038DF8123004AB1293029B5B7B86
:10A2B0008DF83430029B9B7B8DF8353008AB14222F
:10A2C000002118460BF0BCFE07AB089306AB0993C0
:10A2D000029B9B88ADF82C30029B9B68002B06D01C
:10A2E000029BDB88ADF82830029B9B680C93029B95
:10A2F0009B69002B4FD005AB0322002118460BF0C1
:10A300009FFE029B9B691B88ADF83C30029B9B69BA
:10A310005B88ADF83E30029B9B695B680E9305AB92
:10A320001193029B9B691B7B05AA11461846FFF7F8
:10A33000C1FE029B9B695A7B05AB0133194610464F
:10A34000FFF7B8FE029B9B699A7A9DF8163062F37C
:10A35000C3038DF81630029B9B69DA7A9DF816309C
:10A3600062F304138DF81630029B9B691A7A9DF8EC
:10A37000163062F300038DF81630029B9B699B7BBD
:10A38000002B01D0022200E001229DF8163062F37A
:10A3900042038DF81630029BDB69002B02D0029B32
:10A3A000DB69109308AA0DA9BDF80E00019BFFF709
:10A3B0006AFE0346184615B05DF804FBA0DF70473F
:10A3C00000BF1846A1DF704700BF1846ADDF7047D9
:10A3D00000BF1846B3DF704700BF1846B4DF7047B0
:10A3E00000BF184600B583B00190019B002B03D13C
:10A3F00006497220FDF710F8019B00221A60BFF396
:10A400005F8F00BF00BF03B05DF804FBB0620300C4
:10A4100000B585B00190019B002B03D10A4985202E
:10A42000FCF7FAFF012101980AF08CFB0390BFF3BF
:10A430005F8F00BF039B002B0CBF01230023DBB207
:10A44000184605B05DF804FBB062030000B583B0A8
:10A450000190019B002B03D10A499220FCF7DCFFFD
:10A46000019B1B68012B03D006499320FCF7D4FF06
:10A47000BFF35F8F00BF019B00221A6000BF03B0D3
:10A480005DF804FBB0620300024B00221A7000BFAB
:10A49000704700BFE039002000B585B00190019BF6
:10A4A0005B88184601F0DAF903461A46019B9A8048
:10A4B0000023039308E0084A039B52F823300198D5
:10A4C0009847039B01330393039B002BF3D000BFFA
:10A4D00000BF05B05DF804FB0438002082B0019095
:10A4E000019B9B79012B0BD1019B1B79012B07D180
:10A4F000019B5B8842F60212934201D1012300E0E6
:10A50000002303F00103DBB2184602B0704700B528
:10A5100089B003460091ADF8063003AB00221A6003
:10A520005A609A60DA601A6108238DF80C30BDF821
:10A530000630ADF80E30009B059303AB1846FFF7CD
:10A54000ABFF00BF09B05DF804FB000000B58BB0A5
:10A550000346ADF8063000238DF8273003AB002208
:10A560001A605A609A60DA601A61BDF80630ADF878
:10A570000E30BDF806304FF6FF72934242D0BDF860
:10A580000630184600F0CBFE0890089B43F202020A
:10A5900093422CD0089B43F20202934220D8089B9E
:10A5A000112B11D0089B112B1AD8089B002B03D01C
:10A5B000089B0B2B0CD013E00F238DF80C3003AB52
:10A5C0001846FFF769FF13E001238DF827300FE0ED
:10A5D00010238DF80C3003AB1846FFF75DFF07E042
:10A5E000BDF8063008991846FFF791FF00E000BF5C
:10A5F000064B19789DF82720BDF806301846FFF75E
:10A60000ABFC00E000BF0BB05DF804FBE9390020B3
:10A6100000B583B003460A46ADF8063013468DF800
:10A620000530064B19789DF80520BDF80630184610
:10A63000FFF792FC00BF03B05DF804FBE83900208F
:10A6400000B58BB00346ADF8063000238DF82730F7
:10A6500000238DF82630BDF80630184600F0B6FD10
:10A660000890089B43F20202934239D0089B43F2C0
:10A67000020293422DD8089B862B17D0089B862B6D
:10A6800027D8089B112B0DD0089B112B21D8089B94
:10A69000002B03D0089B0B2B22D01AE001238DF84E
:10A6A00026301EE001238DF827301AE003AB00228C
:10A6B0001A605A609A60DA601A6107238DF80C30CC
:10A6C000BDF80630ADF80E3003AB1846FFF7E4FED8
:10A6D00007E0BDF8063008991846FFF718FF00E0BC
:10A6E00000BF9DF82720BDF8063011461846FFF739
:10A6F0008FFF9DF8263018460BB05DF804FB000074
:10A7000000B589B003460091ADF8063000238DF8FE
:10A710001F300DF116031846FFF75CFE0690069BEE
:10A72000002B04D02A494FF49970FCF775FE0123E1
:10A73000ADF81C3040E00223ADF808300023ADF83E
:10A740000A3004AB039304A9BDF81C30002218465C
:10A75000FFF744FE0690069B002B01D0069B32E0DB
:10A760009DF81F3083F00103DBB2002B09D0BDF848
:10A77000103042F60522934203D101238DF81F3099
:10A7800015E09DF81F30002B11D0BDF8103042F6B7
:10A79000021293420BD1009B039302AABDF81C1036
:10A7A000BDF806301846FFF711FE03460BE0BDF872
:10A7B0001C300133ADF81C30BDF81630BDF81C203C
:10A7C0009A42B8D30523184609B05DF804FB00BFD0
:10A7D000E862030000B58BB00346ADF806300123F4
:10A7E0008DF8273000238DF82630BDF80630184646
:10A7F00000F042FE0890089B43F2014293426AD067
:10A80000089B43F2014293426BD8089B112B29D835
:10A81000089B112B65D801A252F823F071A8020001
:10A82000E3A80200E3A80200E3A80200E3A80200F4
:10A83000E3A80200BDA80200E3A802009DA8020050
:10A84000E3A80200E3A80200E3A80200E3A80200D4
:10A85000E3A80200E3A80200E3A80200E3A80200C4
:10A86000F1A80200089B43F20202934242D038E072
:10A8700003AB00221A605A609A60DA601A611123F1
:10A880008DF80C30BDF80630ADF80E3001238DF890
:10A89000263003AB1846FFF7FFFD2CE00DF10A024E
:10A8A000BDF8063011461846FFF72AFF0890089BAE
:10A8B000002B03D1BDF80A30002B1CD100238DF8EA
:10A8C0002730BDF80630184600F0C8FF034618468A
:10A8D00000F006FE0FE0BDF806301846FFF736FE22
:10A8E00009E0BDF8063008991846FFF710FE02E0AF
:10A8F00000BF00E000BF0B4B19789DF82720BDF882
:10A9000006301846FFF728FB074B19789DF82620DC
:10A91000BDF806301846FFF71FFB00BF0BB05DF80F
:10A9200004FB00BFEA390020EB39002000B583B0FA
:10A9300003460091ADF80630BDF806301846FFF723
:10A9400005FE00BF03B05DF804FB000008B5044B32
:10A950001B78002203491846FFF75CFB00BF08BDC7
:10A96000E93900202DA9020000B583B0034600910B
:10A97000ADF806300A48FFF74BFD0346002B0CD01C
:10A98000BDF806301846FFF75BFE0346002B03D1E7
:10A990000348FFF75BFD00E000BF03B05DF804FB78
:10A9A000E439002000B583B003460091ADF80630CD
:10A9B0000B4B1A78BDF8063011461846FFF79CFA83
:10A9C000034683F00103DBB2002B04D0BDF8063050
:10A9D0001846FFF7FFFE00BF03B05DF804FB00BFA1
:10A9E000EB39002008B5044B1B78002203491846B8
:10A9F000FFF710FB00BF08BDEA390020A5A902003F
:10AA000000B583B00346ADF80630BDF806301846F1
:10AA100000F00EFD0346002B07D0064B1978BDF859
:10AA2000063001221846FFF797FA00BF03B05DF821
:10AA300004FB00BFEA39002000B587B0034600914F
:10AA4000ADF8063004AB0422002118460BF0F8FAEA
:10AA500042F6A623ADF8103001238DF812300D4BCD
:10AA60001B68039303AA04A9BDF806301846FFF734
:10AA7000A5FC0590059B002B07D1074B1978BDF865
:10AA8000063001221846FFF767FA00BF07B05DF8ED
:10AA900004FB00BF64630300ED39002000B585B0FE
:10AAA0000346ADF80630BDF80630184600F0D6FE75
:10AAB0000346184602AA0023092101F091FE03462D
:10AAC000052B07D1054B1978BDF806300122184631
:10AAD000FFF742FA00BF05B05DF804FBEC39002037
:10AAE00000B583B00B4B1B7800220B491846FFF7CB
:10AAF00091FA0190019B002B07D1084B1B78002293
:10AB000007491846FFF786FA019000BF03B05DF8C9
:10AB100004FB00BFE839002069A90200EC390020DD
:10AB200039AA020000B583B00190019B1B78002B6D
:10AB300011D1019B5B881846FFF708FD019B5B88DC
:10AB40001846FFF75DFF019B5B881846FFF7A6FFDD
:10AB5000FFF7C6FF00E000BF00BF03B05DF804FBD5
:10AB600000B589B00190019B1B78092B5ED1019B38
:10AB70005B7A002B5AD1019B1B7A082B47D0082BFC
:10AB80004DDC012B1BD0072B49D1019B9B8818461C
:10AB900000F00EFF0346ADF81E30BDF81E304FF634
:10ABA000FF7293423DD0BDF81E3001211846FFF7D9
:10ABB0002FFDBDF81E301846FFF770FF31E0019BF6
:10ABC0009B8803AA0121184602F018FB0690069BF9
:10ABD000002B28D1049B1B78002B24D0019B9B8841
:10ABE000184600F0E5FE0346ADF81630BDF8163005
:10ABF0004FF6FF72934216D00F4B1978BDF81630FE
:10AC000001221846FFF7A8F9FFF7ECFE0BE00B4B0B
:10AC10001B68012B09D10948FFF718FC05E000BFAC
:10AC200004E000BF02E000BF00E000BFFFF758FFF4
:10AC300000BF09B05DF804FBEA390020E4390020C8
:10AC400008B5FFF721FCFFF743F903461A46264BE8
:10AC50001A70FFF73DF903461A46244B1A70FFF7A6
:10AC600037F903461A46224B1A70FFF731F90346AB
:10AC70001A46204B1A70FFF72BF903461A461E4B53
:10AC80001A70FFF725F903461A461C4B1A70FFF796
:10AC90001FF903461A461A4B1A70134B1B78182BD0
:10ACA00017D0124B1B78182B13D0114B1B78182B75
:10ACB0000FD0104B1B78182B0BD00F4B1B78182B79
:10ACC00007D00E4B1B78182B03D00D4B1B78182B7D
:10ACD00001D1032306E00B48FFF784FB0A4B012256
:10ACE0001A700023184608BDE8390020E939002011
:10ACF000EA390020EB390020EC390020ED39002042
:10AD0000EE390020E4390020E039002000B587B09A
:10AD100003460A46ADF8063013468DF8053003ABFE
:10AD200000221A605A600123ADF80C3009238DF817
:10AD30000E30104B1978BDF8063000221846FFF788
:10AD40000BF99DF80530002B01D00B4B00E00B4BAD
:10AD50000493BDF80630184600F080FD03461846FF
:10AD600003AB0022194601F003FE059000BF07B0B7
:10AD70005DF804FBEC390020686303006C6303009A
:10AD800000B58DB00190019B9B88ADF82C30019BE4
:10AD90001B88353B1F2B00F21E8101A252F823F0C5
:10ADA000B1AE020057AF0200D7AF0200D7AF02002A
:10ADB000D7AF0200D7AF0200D7AF0200D7AF020073
:10ADC000D7AF0200D7AF0200D7AF0200D7AF020063
:10ADD000D7AF0200D7AF0200D7AF0200D7AF020053
:10ADE000D7AF0200D7AF0200D7AF0200D7AF020043
:10ADF000D7AF0200D7AF0200D7AF0200D7AF020033
:10AE0000D7AF0200D7AF0200D7AF02008DAE02006D
:10AE1000D7AF020021AE0200D7AF02002DAE020074
:10AE2000BDF82C301846FFF791FBD4E003AB0022AD
:10AE30001A605A609A60DA601A6112238DF80C3039
:10AE4000BDF82C30ADF80E30BDF82C30184600F0AF
:10AE500005FD0346ADF81030BDF81030184600F07F
:10AE60003FFB614B1978BDF82C3000221846FFF7E4
:10AE700073F85E4B1978BDF82C3000221846FFF7A6
:10AE80006BF803AB1846FFF707FBA4E0019B063302
:10AE90001846FFF723FB0346002B00F09580BDF812
:10AEA0002C3001211846FFF7B3FBFFF719FE8BE0AA
:10AEB00000238DF82F30019B9B88ADF82C30019B2F
:10AEC0000A3309934A4B1A78BDF82C3011461846BC
:10AED000FFF712F8034683F00103DBB2002B75D1B4
:10AEE000434B1978BDF82C3000221846FFF734F890
:10AEF000019BDB88B3F5857F1FD0019BDB88002B8E
:10AF00001BD1099B5B88012B17D1099B043319883E
:10AF1000BDF82C3000221846FFF754FA0890089B21
:10AF2000002B0AD101238DF82F30324B1978BDF850
:10AF30002C3001221846FFF70FF89DF82F3083F0D0
:10AF40000103DBB2002B43D0BDF82C3000211846A2
:10AF5000FFF7DCFE3CE000238DF82E30019B9B8840
:10AF6000ADF82C30019B0A330A93224B1A78BDF8B6
:10AF70002C3011461846FEF7BFFF034683F001034D
:10AF8000DBB2002B26D11B4B1978BDF82C300022E8
:10AF90001846FEF7E1FF019BDB88002B0BD10A9BD3
:10AFA0009B88012B07D10A9B9B79002B14BF01239F
:10AFB00000238DF82E309DF82E20BDF82C30114640
:10AFC0001846FFF7A3FE06E000BF04E000BF02E062
:10AFD00000BF00E000BFFFF7B9FCFFF703FD00BFB3
:10AFE0000DB05DF804FB00BFEB390020EA3900200A
:10AFF000ED390020EE39002000B58DB000F008FAE0
:10B000006B461846FEF73AFF0023ADF82E3021E0DC
:10B01000BDF82E305B0030336B4433F82C3C1846BF
:10B0200000F01CFC03461A464FF6FF739A420CD1FF
:10B03000BDF82E305B0030336B4433F82C3C0B4AA8
:10B04000117801221846FEF787FFBDF82E30013334
:10B05000ADF82E30BDF82E20009B9A42D8D3FFF7D2
:10B06000C1FC00BF0DB05DF804FB00BFEA39002051
:10B07000AFDF704700BF1846B1DF704700BF18460A
:10B08000B2DF704700BF1846B3DF704700BF1846F5
:10B09000044B00221A70044B4FF6FF721A8000BF57
:10B0A000704700BFEF390020F039002000B585B0AF
:10B0B0000190019B9B88184600F07AFC03461A46D3
:10B0C000019B5A800023039308E0084A039B52F82F
:10B0D000233001989847039B01330393039B002B74
:10B0E000F3D000BF00BF05B05DF804FB08380020B6
:10B0F00000B589B0244A05AB92E8030083E8030059
:10B1000036E0224B1B8805A90022184601F030FCCE
:10B110000790079B002B22D06B4600221A605A60D2
:10B120009A60DA601A61194B1B88ADF80430079BEE
:10B13000112B24D0079B862B07D107238DF80030D5
:10B140006B461846FFF7B2FF19E008238DF8003070
:10B15000079B02936B461846FFF7A8FF0FE00B4BC7
:10B160001B88184601F0C2FC03461A46074B1A809A
:10B17000064B1B884FF6FF729342C2D100E000BF1E
:10B1800000BF09B05DF804FB70630300F0390020D4
:10B1900000B583B00190064B1B884FF6FF729342B7
:10B1A00001D0FFF7A5FF00BF03B05DF804FB00BFAF
:10B1B000F039002008B5FFF76BFF034B01221A702E
:10B1C0000023184608BD00BFEF39002000B58DB040
:10B1D0000346ADF80630BDF80630184600F03EFBD9
:10B1E0000346ADF82630BDF826304FF6FF72934285
:10B1F00002D143F202038EE00123ADF82A3000238E
:10B200008DF8293000238DF82930BDF82A305A1CDA
:10B21000ADF82A201A4604ABBDF82600082102F03A
:10B2200003F80B900B9B002B6AD1059B0893089B9E
:10B2300003221A60089B991D089B1A1D089B1B6816
:10B24000BDF80600FFF71CFF0B900B9B002B3ED1B7
:10B2500002AABDF826300821184601F0CFFF0B9056
:10B260000B9B002B04D00B9B052B01D0032352E03A
:10B270000B9B052B11D0089B9A88039B9B889A42B5
:10B280000BD1089B981D039B991D089B9B881A4610
:10B290000AF07FFE0346002B09D0BDF82620BDF83A
:10B2A00026300821184602F06CF80B902DE0BDF80E
:10B2B00026300821184602F045F80690069B002B20
:10B2C00002D10B230B9320E003230B931DE00B9B78
:10B2D0000C2B03D101238DF8293004E00B9B052BA7
:10B2E00001D100230B93BDF826300821184602F047
:10B2F00029F80790079B002B07D003230B9304E04A
:10B300000B9B072B01D10C230B939DF82930002BAD
:10B310007FF478AF0B9B18460DB05DF804FB00B5C9
:10B320008BB00346ADF80630BDF80630184600F085
:10B3300095FA0346ADF81430002308930023ADF8C6
:10B340001E300323069301238DF81730BDF8143007
:10B350004FF6FF72934216D002AABDF814300821AE
:10B36000184601F04BFF0990099B002B0BD1039B62
:10B370000493049B06330893049B9B88ADF81E300E
:10B38000049B1B680693BDF81E20BDF80600069BB3
:10B390000899FFF771FE0990099B042B02D1112334
:10B3A000099324E0099B082B02D1002309931EE096
:10B3B000099B0B2B1BD100238DF81730069B03F044
:10B3C0000203002B02D00123069310E0089B002B00
:10B3D00003D1BDF81E30002B07D0002308930023B3
:10B3E000ADF81E300323069301E003230993099B64
:10B3F0000B2BC8D09DF8173083F00103DBB2002B74
:10B4000001D00B230993099B18460BB05DF804FB90
:10B4100008B54FF6FF7001F069FB03461A46034B6F
:10B420001A80FFF765FE00BF08BD00BFF03900209D
:10B4300000B589B00346ADF806300DF1170304934B
:10B44000BDF80630184600F009FA0346ADF81E3084
:10B4500003AABDF81E300121184601F0CFFE069068
:10B46000069B002B01D0002301E0049B1B781846AB
:10B4700009B05DF804FB000000B585B00346ADF8E7
:10B4800006304FF6FF73ADF80E301448FFF7FCFDA1
:10B490000290029B002B01D003231AE00F4B198866
:10B4A000BDF80E20BDF806301846FFF7E1FD02900A
:10B4B000029B43F20302934205D1084B1B880133E0
:10B4C0009AB2064B1A80029B43F203029342E5D0E4
:10B4D000029B184605B05DF804FB00BFF23900205E
:10B4E00000B585B00346ADF80630084A02AB92E8D5
:10B4F000030083E8030002A9BDF8063000221846C5
:10B5000001F036FA00BF05B05DF804FB7863030074
:10B5100046DF704700BF184600B585B00190002394
:10B52000039308E0084A039B52F823300198984798
:10B53000039B01330393039B012BF3D900BF00BF8F
:10B5400005B05DF804FB00BF8863030084B0019080
:10B55000002303930AE0019A039B13441B78002BFA
:10B5600001D0012306E0039B01330393039B0F2BC0
:10B57000F1D90023184604B0704700B583B001909C
:10B580000091019B002B02D0009B002B01D10023D6
:10B590001BE0019B1B78C3F34603DAB2009B1B78C8
:10B5A000C3F34603DBB29A4201D000230DE0019BB6
:10B5B000581C009B0133062219460AF0EAFC034698
:10B5C000002B0CBF01230023DBB2184603B05DF84B
:10B5D00004FB000030B597B00190019B1B88102B35
:10B5E00040F09180019B0AAC1D1D0FCD0FC40FCD03
:10B5F0000FC495E8070084E807004FF6FF73ADF825
:10B6000056309DF82C3023F00103DBB2062B47D0D7
:10B6100001F050F99DF82C30C3F34603DBB2012B47
:10B6200002DC002B15DA3BE0022B2ED038E0089B21
:10B6300003F111020AAB043311461846FFF79DFFD0
:10B640000346002B05D0BDF82630ADF8563000BFBC
:10B6500026E007AA0DF126031946072001F034F968
:10B660000346002BE3D11BE0089B5A1C0AAB0433B2
:10B670001146184600F08FFA0346002B05D0BDF89E
:10B680002630ADF8563000BF09E007AA0DF12603B9
:10B690001946072001F018F90346002BE4D100BF3A
:10B6A000BDF828301946194A0B469B000B445B0035
:10B6B0001344BDF856201A80BDF828301946134AA5
:10B6C0000B469B000B445B00134402330BAA10682B
:10B6D00018609188927999809A71BDF856304FF62A
:10B6E000FF72934210D0BDF82830ADF80A30BDF893
:10B6F0005630ADF80C3000238DF8083002AB1846F8
:10B70000FFF70AFF00E000BF17B030BDF43900209A
:10B7100000B587B001900091019B11330593009B08
:10B7200011330493019B581C009B013310221946CE
:10B730000AF02FFC0346002B11D1019B0133184660
:10B74000FFF704FF0346002B09D0009B0133184686
:10B75000FFF7FCFE0346002B01D0012300E000238D
:10B760008DF80F309DF80F3003F001038DF80F3086
:10B7700004990598FFF701FF03468DF80E30059BED
:10B780001B7823F00103DBB2042B16D0059B1B783A
:10B7900023F00103DBB2062B0FD0049B1B7823F0B0
:10B7A0000103DBB2042B08D0049B1B7823F00103B8
:10B7B000DBB2062B01D0012300E000238DF80D3011
:10B7C0009DF80D3003F001038DF80D309DF80E301B
:10B7D000002B03D09DF80D30002B0AD19DF80F30BF
:10B7E000002B08D09DF80D3083F00103DBB2002B55
:10B7F00001D0012300E0002303F00103DBB218466F
:10B8000007B05DF804FB00B587B001900B46ADF8BA
:10B81000023001F04FF810E0BDF81630BDF80220FC
:10B820009A420AD0049B19460198FFF771FF03461C
:10B83000002B02D0BDF816300BE003AA0DF1160361
:10B840001946072001F040F80346002BE4D14FF6DB
:10B85000FF73184607B05DF804FB000000B583B025
:10B860000346ADF80630BDF80630132B0AD8BDF8F4
:10B8700006301846FEF72AFA034683F00103DBB2CE
:10B88000002B02D04FF6FF7308E0BDF806200549F3
:10B8900013469B0013445B000B441B88184603B0FF
:10B8A0005DF804FBF439002000B583B00346009135
:10B8B000ADF80630BDF80630132B0AD8BDF80630B7
:10B8C0001846FEF703FA034683F00103DBB2002BB0
:10B8D00002D043F2020311E0BDF8062000980949A6
:10B8E00013469B0013445B000B4402460233196865
:10B8F000116099889B79918093710023184603B059
:10B900005DF804FBF439002000B583B0019000918C
:10B91000019800F089F8034683F00103DBB2002BA5
:10B9200001D0002315E0019B1A88009B1B889A42D6
:10B9300001D000230DE0019B981C009B02330822DC
:10B9400019460AF026FB0346002B0CBF01230023F7
:10B95000DBB2184603B05DF804FB00B587B0019078
:10B9600000F0A8FF14E0049B463319460198FFF746
:10B97000CBFF0346002B08D1049B2A3319460198BC
:10B98000FFF7C2FF0346002B02D0BDF816300BE0D4
:10B9900003AA0DF116031946072000F095FF034690
:10B9A000002BE0D14FF6FF73184607B05DF804FB9B
:10B9B00000B585B00346ADF80630BDF806304FF649
:10B9C000FF72934202D14FF6FF7326E00023ADF8D9
:10B9D0000E301CE0BDF80E20124913469B001344A4
:10B9E0005B000B441B88BDF806209A420AD1BDF8C3
:10B9F0000E301846FEF76AF90346002B02D0BDF858
:10BA00000E300AE0BDF80E300133ADF80E30BDF84F
:10BA10000E30132BDED94FF6FF73184605B05DF8D4
:10BA200004FB00BFF439002084B00190019B1B8807
:10BA3000002B01D0012312E0002303930BE0019AB5
:10BA4000039B134402331B78002B01D0012306E033
:10BA5000039B01330393039B072BF0D90023184664
:10BA600004B0704782B003460A46ADF8063013466C
:10BA7000ADF80430BDF80630132B0AD8BDF8062007
:10BA8000054913469B0013445B000B44BDF804209A
:10BA90001A8000BF02B07047F439002000B585B0AD
:10BAA0000346ADF80630BDF806301846FFF780FFB4
:10BAB0000346ADF80E30BDF80630184601F05CFBC9
:10BAC0000290029B002B0ED1BDF80E30132B0AD82A
:10BAD000BDF80E20064913469B0013445B000B443F
:10BAE0004FF6FF721A80029B184605B05DF804FB02
:10BAF000F439002000B595B0039002910192002323
:10BB000013930DE0139BC3F10F03039A13441978A9
:10BB100005AA139B13440A461A70139B013313930F
:10BB2000139B0F2BEED905AB10330D2200211846C5
:10BB30000AF086FA002312930DE0029A129B1A442F
:10BB4000129BC3F10F03127850336B4403F82C2C73
:10BB5000129B01331293129B022BEED905AB1846B0
:10BB6000FFF7D6FC002311930DE0119BC3F10F02E8
:10BB70000199119B0B4450326A4412F81C2C1A7024
:10BB8000119B01331193119B022BEED900BF00BF13
:10BB900015B05DF804FB00B587B001900091019BE2
:10BBA0001B7823F00103DBB2042B01D000231FE03C
:10BBB000019B5A1C05AB1188927819809A70019BE1
:10BBC0001A1D03AB1188927819809A70009B04AA01
:10BBD00003A91846FFF78EFF04A905AB03221846F8
:10BBE0000AF0D7F90346002B0CBF01230023DBB278
:10BBF000184607B05DF804FB90DF704700BF184699
:10BC0000A5DF704700BF1846B5DF704700BF184674
:10BC100082B00190019B17221A80019B17225A8043
:10BC2000019B00221A71019B00225A71019B1B2269
:10BC30009A71019B1B22DA7100BF02B0704700B5F8
:10BC400089B003460A46ADF806301346ADF8043015
:10BC5000BDF80430ADF81430BDF80430ADF816303E
:10BC60000023ADF818300023ADF81A3003AB0022E2
:10BC70001A609A8003AA05A9BDF806301846FFF796
:10BC8000BBFF0790079B002B02D0BDF80C30002BA8
:10BC9000079B184609B05DF804FB00B587B001901A
:10BCA0000091009B9B88ADF81630BDF81630DB0084
:10BCB000019A134406330493019B1A79049B9A71E9
:10BCC000009BDB7B012B02D0022B05D009E0019BFE
:10BCD0001A88049B1A8004E0019B5A88049B1A80EE
:10BCE00000BF049B1A88049B5B889A4215D9049B69
:10BCF0001A88BDF8163011461846FFF781FF0390E9
:10BD0000039B002B03D1049B01225A7105E0039B86
:10BD1000112B02D1049B01221A71049B9A79049B76
:10BD2000DB799A4208D9049B9B791A46BDF81630F4
:10BD300011461846FFF783FF00BF07B05DF804FB0C
:10BD400000B583B001900091009B9B88DB00019AB5
:10BD5000134406331846FFF75BFF00BF03B05DF8DE
:10BD600004FB00B587B001900091009B9B88ADF863
:10BD70001630009B5B89ADF81430BDF81630DB003F
:10BD8000019A134406330493049B1B88BDF81420C6
:10BD9000934228BF13469AB2049B5A80049B5B8847
:10BDA000172B38BF17239AB2049B5A80019B9B69BB
:10BDB000002B15D0049B5B79002B11D040F6772324
:10BDC000ADF80830BDF81630ADF80A30049B5B883A
:10BDD000ADF80C30019B9B6902AA11460198984767
:10BDE000049B00225A71049B00221A7100BF07B005
:10BDF0005DF804FB00B589B001900091009B9B8821
:10BE0000ADF81E30009BDB88ADF81C30BDF81E304D
:10BE1000DB00019A134406330693BDF81C30172B40
:10BE200038BF1723ADF81C30069B1B88BDF81C20BB
:10BE3000934228BF13469AB2069B5A80069B002263
:10BE40001A71069B1A88BDF81E3011461846FFF776
:10BE5000DBFE0590069B5B79002B16D1019B9B694D
:10BE6000002B13D040F67723ADF80C30BDF81E3010
:10BE7000ADF80E30069B5B88ADF81030019B9B69D6
:10BE800003AA11460198984700E000BF09B05DF889
:10BE900004FB30B591B001900091009B04AC1D1DD6
:10BEA0000FCD0FC40FCD0FC495E8070084E807003D
:10BEB000BDF81030ADF83E30BDF81420BDF83E306E
:10BEC000D1B2019ADB0013440A465A73019B9B6965
:10BED000002B19D002AB00221A609A804DF67A230B
:10BEE000ADF80830BDF83E30ADF80A30BDF83E3050
:10BEF000019ADB0013445B7B8DF80C30019B9B693E
:10BF000002AA11460198984700BF11B030BD00B594
:10BF100087B001900091009B04330593059B1B881B
:10BF2000DB00019A134406330493059B9B888DF82C
:10BF30000F30049B9B799DF80F20934228BF134636
:10BF40008DF80E30059B1B889DF80E2092B211468D
:10BF50001846FFF774FE00BF07B05DF804FB00B59C
:10BF600085B001900091019B002B01D10E231DE0B3
:10BF7000019B009A9A61019B17221A80019B17224C
:10BF80005A80019B1B221A71002303930AE0039B32
:10BF9000DB00019A134406331846FFF739FE039B72
:10BFA00001330393039B012BF1D90023184605B0FD
:10BFB0005DF804FB00B587B001900091009B0593EC
:10BFC000019B9B88ADF81230BDF81230012B00F2B6
:10BFD0008480019B1B88552B48D0552B55DC242B86
:10BFE00032DC102B51DB103B142B4ED801A252F83F
:10BFF00023F000BF4FC0020059C002008BC00200F6
:10C000008BC002008BC002008BC002008BC00200FC
:10C010008BC002008BC002008BC002008BC00200EC
:10C020008BC002008BC002008BC002008BC00200DC
:10C030008BC002008BC002008BC002008BC00200CC
:10C0400081C0020077C002003A2B0AD01DE001999E
:10C050000598FFF722FE19E001990598FFF770FE99
:10C0600014E001990598FFF77CFE0FE0019905980F
:10C07000FFF7C0FE0AE001990598FFF70AFF05E007
:10C0800001990598FFF743FF00E000BFBDF81230AB
:10C09000059ADB0013449B7A002B1FD0BDF81230A9
:10C0A000059ADB001344DA88BDF8123011461846B1
:10C0B000FFF7A6FD0390039B002B0FD1BDF81230B4
:10C0C000059ADB00134400229A72BDF81230059ADB
:10C0D000DB0013440122DA7200E000BF07B05DF814
:10C0E00004FB00BFB0DF704700BF184666DF704733
:10C0F00000BF184682B001900091019B002B01D136
:10C100000E2316E0009B002B01D10E2311E0019BB2
:10C110001B78DE2B01D108230BE0009B1A68019BE2
:10C120005A60019BDE221A70019B4FF6FF725A8003
:10C130000023184602B0704782B001900B46ADF85C
:10C140000230019B002B01D10E230AE0019B1B78DA
:10C15000DE2B01D0082304E0019BBDF802205A80A9
:10C160000023184602B0704700B585B00190019BCE
:10C170001B7A002B18D0019B5B8800211846FFF723
:10C18000B5FF0390039B002B03D1019B00221A7281
:10C190000AE0039B112B03D1019B01221A7203E0D9
:10C1A000019B5B680398984700BF05B05DF804FBEE
:10C1B00000B583B001900091009B1B79012B0BD13E
:10C1C000009B1A88019B5B889A4205D1019B012242
:10C1D0001A720198FFF7C8FF00BF03B05DF804FBB7
:10C1E00082B00190009100BF02B0704700B589B0E5
:10C1F00001900091009B1A88019B5B889A4236D17E
:10C20000009B02330793079B1B78022B31D1079BBE
:10C210001B7A042B07D0079B1B7A062B03D0079BA6
:10C220001B7A052B27D102AB00221A605A609A6054
:10C23000DA6002238DF808304FF4C073ADF80C308B
:10C24000079B1B7A052B02D10023ADF80C30009B15
:10C250001B8802AA11461846FFF744FF0690069B6A
:10C26000002B09D0019B5B680698984704E000BF4B
:10C2700002E000BF00E000BF09B05DF804FB00B5BC
:10C2800085B001900091009B002B43D0019B002BB7
:10C2900040D0009B0393039B1B78DE2B3AD1019B7C
:10C2A0009A88039B5B889A4202D10398FFF75CFF50
:10C2B000019B1B88512B18D0512B28DC112B1BD034
:10C2C000112B24DC012B02D0022B07D01FE0019B95
:10C2D000043319460398FFF76BFF1BE0019B0433FF
:10C2E00019460398FFF77CFF14E0019B04331946BD
:10C2F0000398FFF77BFF0DE0019B9A88039B5B8807
:10C300009A4206D1039B4FF6FF725A8001E000BFAC
:10C3100000E000BF05B05DF804FB000000B585B08B
:10C320000190019B4FF6FF725A800023039305E0B2
:10C33000064B01989847039B01330393039B002B03
:10C34000F6D000BF00BF05B05DF804FB81D002004D
:10C3500082B00346ADF80630BDF80630A3F5804341
:10C360009BB2184602B0704782B00346ADF8063063
:10C37000BDF8063003F580439BB2184602B0704703
:10C3800082B003468DF807309DF807309BB2A3F5C5
:10C3900080439BB2184602B0704782B00346ADF8A6
:10C3A0000630BDF80630DBB2184602B0704782B0E6
:10C3B0000346ADF80630BDF80630B3F5404F07D35D
:10C3C000BDF806304FF6FF72934201D0012300E022
:10C3D000002303F00103DBB2184602B0704782B0BD
:10C3E0000346ADF80630BDF80630B3F5404F07D32D
:10C3F000BDF806304FF6FF72934201D0012300E0F2
:10C40000002303F00103DBB2184602B0704782B08C
:10C4100003468DF807309DF80730072B17D09DF89D
:10C420000730012B13D09DF80730082B0FD09DF853
:10C430000730052B0BD09DF80730062B07D09DF851
:10C440000730092B03D09DF80730042B01D10123BD
:10C4500000E0002303F00103DBB2184602B070478E
:10C4600000B589B003460091ADF8063003AB002259
:10C470001A605A609A60DA601A6108238DF80C30ED
:10C48000BDF80630ADF81030009B059303AB18469D
:10C49000FFF744FF00BF09B05DF804FB00B589B0A9
:10C4A0002F4B00221A7001AB08220021184609F018
:10C4B000C7FD4FF6FF7001F001F90346ADF81E30DD
:10C4C0000CE0BDF81E30184601F04AF8BDF81E30E9
:10C4D000184601F0F3F80346ADF81E30BDF81E30E3
:10C4E0004FF6FF72934210D0BDF81E301846FFF78A
:10C4F0002FFF0346184601AA03AB194608F0F5F8CA
:10C50000034648F209629342DBD0BDF81E304FF675
:10C51000FF7293421FD0BDF81E301846FFF718FF78
:10C520000346ADF81C30BDF81C30184608F046F83C
:10C530000690069B48F20762934203D1084B012202
:10C540001A7008E0069B002B05D0BDF81E30069936
:10C550001846FFF785FF00BF09B05DF804FB00BF78
:10C56000BD3A002000B587B003460092ADF8063012
:10C570000B468DF805309DF805301846FFF747FF4C
:10C5800002AB08220021184609F05AFDBDF806301A
:10C590001846FFF7DDFE0346ADF816309DF805306E
:10C5A0001846FFF7EDFE0346ADF8143002ABBDF8B8
:10C5B0001410BDF81600009A08F06EF80490049B61
:10C5C000002B01D0052300E00023184607B05DF8DA
:10C5D00004FB00B589B06B4608220021184609F01B
:10C5E0002FFD0720FFF7CCFE0346ADF81E3016E006
:10C5F00002AA04AB1146184607F032FF029B9B8843
:10C600001846FFF7B1FE0346ADF81C3004AB1846E0
:10C6100007F064FFBDF81C30184600F069FF6A4659
:10C6200004A9BDF81E30184608F04CF80346002B4C
:10C63000DED000BF00BF09B05DF804FB00B589B0D3
:10C64000019003AB00221A605A609A60DA601A61A6
:10C65000019B9B891846FFF787FE0346ADF8103013
:10C66000019B1B78052B6ED0052B00F38380032BD9
:10C6700002DC002B03DC7DE0042B3DD07AE0019B43
:10C680009B891846FFF793FE0346002B07D1019BB9
:10C69000DB891846FFF7A3FE0346002B6CD0019BF5
:10C6A000DB891846FFF779FE03468DF81430019BAD
:10C6B0001B78032B0CBF01230023DBB28DF8153050
:10C6C000019B9B680693019B5B68002B09D10923A2
:10C6D0008DF80C309DF81C3043F001038DF81C30B0
:10C6E00005E00A238DF80C30019B5B68079303ABD0
:10C6F0001846FFF713FE3FE0019B9B891846FFF7A2
:10C7000056FE0346002B39D0019BDB89002B35D127
:10C71000019B5B68002B08D10B238DF80C30BDF812
:10C720001030184600F01CFF05E00C238DF80C308B
:10C73000019B5B680593174B01221A7003AB1846E7
:10C74000FFF7ECFD1AE0019B5B68002B03D114237B
:10C750008DF80C3005E015238DF80C30019B5B68DB
:10C7600005934FF6FF73ADF8103003AB1846FFF793
:10C77000D5FD04E000BF02E000BF00E000BF054BB4
:10C780001B78DBB2002B01D0FFF788FE00BF09B099
:10C790005DF804FBBD3A002000B583B00E4807F0F9
:10C7A0004BFD0190019B002B01D003230FE007F00C
:10C7B000BFFD0190019B002B01D0862307E000F014
:10C7C0002DFEFFF706FF054B01221A7000231846C5
:10C7D00003B05DF804FB00BF3DC60200BC3A002078
:10C7E00000B58DB0029201930346ADF80E300B46B2
:10C7F0008DF80D30BDF80E30FF2B01D9072354E022
:10C800009DF80D301846FFF702FE034683F0010342
:10C81000DBB2002B01D0072347E006AA9DF80D10DC
:10C82000BDF80E301846FFF79DFE0B900B9B002BBA
:10C8300001D0052339E004AA06AB1146184607F0DB
:10C840000FFE0B900B9B002B01D005232DE0029BCC
:10C850009DF80D209A70049B5A88029B1A80019BB8
:10C86000002B03D1059A029B5A6019E0029B1B889A
:10C870009B000A93029B1B889A00019B1B689342B2
:10C8800028BF13460993029B5B680599099A1846CD
:10C8900009F0A4FB099A0A9B9A4201D20C2304E0F6
:10C8A00006AB184607F01AFE002318460DB05DF8D7
:10C8B00004FB000008B508220021024809F0C0FB73
:10C8C00000BF08BDC03A002000B58DB003460291FC
:10C8D00001928DF80F309DF80F301846FFF797FD45
:10C8E000034683F00103DBB2002B01D0012338E0C3
:10C8F0009DF80F301846FFF743FD0346ADF82E3084
:10C9000007A9BDF82E30194A184607F0DBFE03468A
:10C91000002B01D0002324E005AA07AB11461846DE
:10C9200007F09EFD0A900A9B002B01D0002318E01F
:10C93000019B9DF80F209A70059B5A88019B1A80D5
:10C94000069A019B5A60059B9B881846FFF70CFDD1
:10C9500003461A46029B1A8007AB184607F0BEFD35
:10C96000012318460DB05DF804FB00BFC03A00205B
:10C9700000B58DB0034602910192ADF80E30BDF8BE
:10C980000E30FF2B01D907237DE0029B9B781846D0
:10C99000FFF73DFD034683F00103DBB2002B01D01E
:10C9A000072370E0BDF80E301846FFF7D1FC0346B0
:10C9B000ADF82030029B9B781846FFF7E1FC034658
:10C9C000ADF82230029B5B680993029B1B880A9397
:10C9D000029B997805AABDF80E301846FFF7C2FDF4
:10C9E0000B900B9B052B07D108AA05AB11461846E7
:10C9F00007F0C0FD0B9006E008AA05AB11461846EB
:10CA000007F0C7FD0B900B9B002B2BD00B9B48F224
:10CA10000D62934236D80B9B48F20262934231D3A7
:10CA20000B9BA3F50643023B0B2B2BD801A252F81C
:10CA300023F000BF81CA020085CA020085CA020035
:10CA400085CA02007DCA020079CA020085CA0200B6
:10CA500085CA020085CA020085CA020085CA020092
:10CA600079CA0200019B002B04D005AB019918463E
:10CA700007F04EFE002306E0112304E0862302E0C7
:10CA8000102300E0032318460DB05DF804FB00BF3F
:10CA900008B54FF6FF7000F02BFD0346184608BDA1
:10CAA00000B583B00346ADF80630BDF80630FF2B65
:10CAB00001D9072307E0BDF80630184600F02AFD2B
:10CAC000FFF7ECFC0023184603B05DF804FB00B54B
:10CAD00083B00346ADF80630BDF80630184600F0C6
