:020000022000DC
:1070000000000420197202000172020003720200E3
:1070100005720200077202000972020000000000FF
:107020000000000000000000000000000B720200E1
:107030000D720200000000000F72020011720200C7
:107040003DB002001372020099BE020013720200EA
:10705000137202001372020091BD0200137202004B
:107060001372020013720200137202001372020004
:1070700013720200137202001372020013720200F4
:1070800013720200D9F2020013720200137202009E
:107090001372020013720200011E03001372020039
:1070A00013720200137202001372020013720200C4
:1070B00013720200137202000000000000000000C2
:1070C00013720200137202001372020013720200A4
:1070D0001372020013720200137202001372020094
:1070E000137202001372020013720200000000000B
:1070F0000000000013720200000000001372020082
:10710000000000000000000000000000000000007F
:10711000000000000000000000000000000000006F
:10712000000000000000000000000000000000005F
:10713000000000000000000000000000000000004F
:10714000000000000000000000000000000000003F
:10715000000000000000000000000000000000002F
:10716000000000000000000000000000000000001F
:10717000000000000000000000000000000000000F
:1071800000000000000000000000000000000000FF
:1071900000000000000000000000000000000000EF
:1071A00000000000000000000000000000000000DF
:1071B00000000000000000000000000000000000CF
:1071C00000000000000000000000000000000000BF
:1071D00000000000000000000000000000000000AF
:1071E000000000000000000000000000000000009F
:1071F000000000000000000000000000000000008F
:10720000FEE7FEE7FEE7FEE7FEE7FEE7FEE7FEE756
:10721000FEE7FEE700F002B8FFF7FCBF0F484FF0B3
:107220000701884385460E4880470E48016841F4AF
:1072300070010160BFF34F8FBFF36F8F00F01AB87A
:1072400009480A490A4A884207D0521A05D00378E9
:1072500001300B700131013AF9D170470000042070
:107260006985020088ED00E0E82C0300002300207F
:107270000023002039493A480A1A02D007229143D4
:107280008D46384938480A1A06D00722914381F3BF
:107290000988022282F3148834483549354A00F0BF
:1072A0003EF835483549364A00F039F83548364910
:1072B000364A00F034F836483649374A00F02FF89D
:1072C00036483749374A00F02AF837483749384AAC
:1072D00000F025F837483849384A00F020F8384897
:1072E0003849002200F033F837483849002200F0CE
:1072F0002EF837483749091A0BF062FB364A904797
:1073000024482549884205D00268043003B49047D8
:1073100003BCF7E700200021304A9047FEE788428F
:1073200014D0521A12D003460B43134303242342B2
:1073300006D1036804300B600431043AF9D1704778
:10734000037801300B700131013AF9D1704788425E
:1073500002D002700130FAE77047000000000420FC
:1073600000E003200000042000000420544B030030
:1073700000230020D4230020E0730200E073020009
:10738000FC2B0300544B03000023002000230020AB
:10739000E82C0300E82C0300E82C0300E82C030091
:1073A000E82C0300E82C0300E82C0300E82C030081
:1073B000514B0300284C0300D4230020D423002089
:1073C000D4230020FC2C0020FC2C0020FC2C0020CE
:1073D000FC2C0020FC4C002041720200C57D020004
:1073E00072DF704700BF184673DF704700BF184652
:1073F00076DF704700BF18467ADF704700BF184637
:107400007CDF704700BF18467FDF704700BF18461B
:107410008FDF704700BF1846B1DF704700BF1846C6
:1074200000B583B003460091ADF80630BDF80630D4
:10743000009A1946034806F0D3FD00BF03B05DF87B
:1074400004FB00BFEFBEADDE08B5012000F09DFEDD
:1074500000BF08BD10B584B001901D4B1B780133EF
:10746000DAB21B4B1A701A4B1B781A4A04211A48BD
:107470000AF066FF194B1C8817480BF0ACFA03465C
:107480009BB2154A1649204603F0F8F90390154BB4
:1074900001221A70039B002B16D0039B43F20202B9
:1074A000934211D0039B082B0ED0039B43F2014261
:1074B000934209D0039B0293029B002B04D00A4AFB
:1074C0007D21029806F08CFD00BF04B010BD00BF06
:1074D0000C240020EC2C030050240020202300204A
:1074E000D423002054240020F02C030000B585B0E4
:1074F00007F026F90390039B0293029B002B04D014
:107500000C4A8A21029806F06BFD0B4A01210B48B8
:1075100007F054F90390039B0193019B002B04D0C7
:10752000044A8D21019806F05BFD00BF05B05DF8AF
:1075300004FB00BFF02C030055740200E82C03008C
:1075400000B587B09DF80030012262F303038DF887
:1075500000309DF80030012262F307138DF80030EF
:107560006B460D221A491846FFF74AFF0590059B06
:107570000493049B002B04D0164AA121049806F022
:107580002FFD01AB0822002118460BF091FA502381
:10759000ADF80430A023ADF806300023ADF8083074
:1075A0004FF4C873ADF80A3001AB1846FFF724FF5B
:1075B0000590059B0393039B002B04D0054AAB2148
:1075C000039806F00DFD00BF07B05DF804FB00BF97
:1075D000602D0300F02C030000B583B000210948A2
:1075E00002F074FE0190019B0093009B002B04D0DD
:1075F000054AB421009806F0F3FC00BF03B05DF823
:1076000004FB00BFEC230020F02C030000B5ABB05E
:1076100041F22353ADF81C30364B9B7C8DF81E3065
:1076200017AB3C22002118460BF042FA02238DF8DA
:107630005C3001238DF85E3006238DF85F3008AB97
:107640003C22002118460BF033FA0123ADF830300C
:1076500007AB0D93284B196817AB284A184601F061
:107660000AFD2990299B2893289B002B04D0244AAB
:10767000D221289806F0B4FC1F4B996808AB214A28
:10768000184601F0F8FC2990299B2793279B002B93
:1076900004D01B4AD521279806F0A2FC01AB182282
:1076A000002118460BF004FA01238DF8193000234D
:1076B000ADF8103001238DF804300023029300232D
:1076C0008DF818304023039301AB1A460A490E483F
:1076D000FFF786FE2990299B2693269B002B04D03A
:1076E000074AE421269806F07BFC00BF2BB05DF82A
:1076F00004FB00BFD42300202423002028230020E3
:10770000F02C0300302300202223002000B583B09A
:107710000190044AF121019806F062FC00BF03B019
:107720005DF804FBF02C030000B583B00346009124
:10773000ADF8063013468DF805309DF80530002B66
:107740000ED0022000F070FC0E4A0F4BD31ADB085B
:107750001B0443F003030D49184609F023FD0DE017
:10776000022000F07BFC074A074BD31ADB081B04FE
:1077700043F003030649184609F014FD00BF03B0A7
:107780005DF804FB882C0300602C0300702D0300BF
:10779000842D030000B587B00023029300230193DA
:1077A000144B019301AB1946134802F073FE059088
:1077B000059B0493049B002B05D0104A40F2151141
:1077C000049806F00DFC0E4B029302AB19460D48CF
:1077D00002F0B4FF0590059B0393039B002B05D09B
:1077E000064A4FF48E71039806F0FAFB00BF07B00B
:1077F0005DF804FB0D77020000240020F02C03004C
:1078000029770200D423002000B585B00190019BA8
:107810001B78002B11D10B4B1B883B211846FFF71F
:10782000E7FD0390039B0293029B002B05D0064AC1
:107830004FF49971029806F0D3FB00BF05B05DF8D4
:1078400004FB00BF20230020F02C030000B583B010
:107850000190054A40F23D11019806F0C1FB00BFBE
:1078600003B05DF804FB00BFF02C030000B58BB043
:1078700001AB1C22002118460BF01AF900230193DA
:107880004FF4A02302934FF4A033039303238DF806
:1078900010300023ADF8123000238DF814300C4B5B
:1078A00006930C4B079301AB184601F029FE099093
:1078B000099B0893089B002B05D0074A4FF4AA7137
:1078C000089806F08DFB00BF0BB05DF804FB00BF0D
:1078D000097802004D780200F02C030000B583B057
:1078E0000C4B1B7801211846FFF77EFD0190019B90
:1078F0000093009B002B05D0074A40F25F110098CF
:1079000006F06EFB002000F08FFB00BF03B05DF8B7
:1079100004FB00BF22230020F02C030000B58DB033
:1079200001900091019B1B88562B00F0EF80562B95
:1079300000F3FF80522B00F0C280522B00F3F9803D
:10794000212B2DDC102BC0F2F480103B112B00F208
:10795000F08001A252F823F0A9790200177A020000
:10796000337B0200637A0200337B0200337B020028
:10797000337B0200337B0200337B0200337B020047
:10798000337B0200337B0200337B0200337B020037
:10799000337B0200337B0200337B02008B7A0200D0
:1079A0003B2B00F0A080C4E06A4A6B4BD31ADB0883
:1079B0001B0443F003036949184609F0F3FB012057
:1079C00000F032FB002000F049FB019B9A88644BD9
:1079D0001A80634B1B881946624802F07DFD0B90AC
:1079E0000B9B0493049B002B05D05F4A4FF4BB71A3
:1079F000049806F0F5FA06F033FA0B900B9B03930C
:107A0000039B002B00F09780574A4FF4BC710398FA
:107A100006F0E6FA8FE04F4A4F4BD31ADB081B04FF
:107A200043F003035149184609F0BCFB012000F064
:107A300015FB4B4B4FF6FF721A8006F03DFA0B9088
:107A40000B9B0593059B002B05D0474A4FF4C07153
:107A5000059806F0C5FA464B00221A70FFF73EFF64
:107A600074E03F4B1888002300228521FFF7CCFCEF
:107A70000B900B9B0693069B002B5ED03A4A40F27C
:107A80008B11069806F0ACFA57E000238DF8083009
:107A900000238DF80930019B9B8802AA11461846E5
:107AA000FFF7B6FC0B900B9B0793079B002B46D070
:107AB0002D4A40F29711079806F092FA3FE0284BC2
:107AC0001888002300220021FFF7A6FC0B900B9BD7
:107AD0000993099B002B34D0234A40F29D11099849
:107AE00006F07EFA2DE0019B9B8813211846FFF7D4
:107AF0007FFC0B900B9B0893089B002B23D01A4A0A
:107B000040F2A511089806F06BFA1CE0019B9B88D7
:107B100013211846FFF76CFC0B900B9B0A930A9BF2
:107B2000002B12D0104A40F2AD110A9806F058FA14
:107B30000BE000BF0AE000BF08E000BF06E000BFA6
:107B400004E000BF02E000BF00E000BF00BF0DB0D6
:107B50005DF804FB882C0300602C0300982D0300C3
:107B60002023002000240020F02C0300A42D03007B
:107B70000C24002000B587B00AF0C0F80590059BE2
:107B80000493049B002B05D0164A4FF4E07104982F
:107B900006F026FA0023019301AB194601200AF0F2
:107BA00065F90590059B0393039B002B05D00D4AB7
:107BB0004FF4E371039806F013FA01AB18460AF08C
:107BC00049FA0590059B0293029B002B05D0054ABC
:107BD0004FF4E571029806F003FA00BF07B05DF8B4
:107BE00004FB00BFF02C030010B588B003460A4622
:107BF0008DF8073013468DF806309DF80730262B98
:107C000067D19DF80630002B16D0384B00221A7031
:107C1000374B00224FF48041184606F009FE0790CA
:107C2000079B0393039B002B5CD0324A4FF4F17106
:107C3000039806F0D5F955E02D4B184606F050FE96
:107C40000790079B0693069B002B05D0294A40F21C
:107C5000E711069806F0C4F9244B1B7883F0010362
:107C6000DBB2002B3ED0244B1B780133DAB2224B1F
:107C70001A70214B1B78214A042121480AF060FB2D
:107C8000204B1C881E480AF0A6FE03469BB21C4AE5
:107C90001D49204602F0F2FD0590059B002B21D0E6
:107CA000059B43F2020293421CD0059B082B19D07E
:107CB000059B43F20142934214D0059B0493049B1D
:107CC000002B0FD00B4A4FF4FB71049806F088F993
:107CD00008E09DF80730074A4FF4FF71184606F098
:107CE0007FF900E000BF00BF08B010BD54240020A1
:107CF00000230020F02C03000C240020EC2C0300B7
:107D00005024002020230020D423002000B583B07D
:107D100040F233320121094806F01AF80190019B24
:107D20000093009B002B05D0054A40F212210098D9
:107D300006F056F900BF03B05DF804FB34230020C1
:107D4000F02C030000B583B04FF48041002008F010
:107D500053FF0190019B0093009B002B05D0064A26
:107D600040F21921009806F03BF908F0DBFE00BF55
:107D700003B05DF804FB00BFF02C030000B583B036
:107D800008F082FB0190019B0093009B002B05D023
:107D9000044A40F22521009806F022F900BF03B002
:107DA0005DF804FBF02C030008B509F057FA034610
:107DB00083F00103DBB2002B01D008F07BFB00BF96
:107DC00008BD000008B5FFF7BDFFFFF73DFBFFF75B
:107DD0008DFBFFF79BFFFFF7D1FFFFF7CBFEFFF710
:107DE000AFFBFFF7F9FBFFF7D5FCFFF70FFCFFF741
:107DF0003DFD084A084BD31ADB081B0443F003037C
:107E00000649184609F0CEF9FFF768FDFFF7CCFFE9
:107E1000FCE700BF882C0300602C0300B42D030096
:107E2000BFF34F8F00BF064BDB6803F4E0620449E9
:107E3000044B1343CB60BFF34F8F00BF00BFFDE780
:107E400000ED00E00400FA0500B583B00190019B4D
:107E50001B68184600F0C3F80346002B04D10B49F9
:107E60004FF4F670FFF7DCFA019B1B681F2B02D85A
:107E70004FF0A04306E0019B1B6803F01F02019B2B
:107E80001A60034B184603B05DF804FBCC2D0300C9
:107E90000003005000B585B00190084611461A460F
:107EA00003468DF803300B468DF8023013468DF8EB
:107EB000013001AB1846FFF7C7FF03909DF8032080
:107EC0009DF802305B001A439DF801309B001A4375
:107ED0009DF818301B0242EA03019DF81C301B0478
:107EE000019A1943039B02F5E07243F8221000BF88
:107EF00005B05DF804FB00B585B003900023019345
:107F0000002300930023012201210398FFF7C2FF01
:107F100000BF05B05DF804FB00B585B003900B46CB
:107F20008DF80B309DF80B30002201920022009258
:107F3000002200210398FFF7ADFF00BF05B05DF8F8
:107F400004FB00B585B0019001AB1846FFF77CFF3C
:107F50000390019B012202FA03F31946039800F0F3
:107F60002AF800BF05B05DF804FB00B585B00190AC
:107F700001AB1846FFF768FF0390019B012202FA4C
:107F800003F31946039800F020F800BF05B05DF830
:107F900004FB00B583B001900091009B002B03D13E
:107FA0000198FFF7E2FF02E00198FFF7CAFF00BF68
:107FB00003B05DF804FB82B001900091019B009A30
:107FC000C3F8082500BF02B0704782B0019000914D
:107FD000019B009AC3F80C2500BF02B0704784B023
:107FE0000190019B5B09029300230393029B002BEA
:107FF00003D0029B012B04D007E04FF0FF33039323
:1080000003E04FF6FF73039300BF019B03F01F03D0
:108010000193039A019B22FA03F303F00103DBB2FD
:10802000184604B07047000000B583B00190019B72
:10803000032B03D907494120FFF7F2F9064A019BB8
:1080400013441B7800211846FFF7A3FF00BF03B0BD
:108050005DF804FBFC2D0300642E030000B583B023
:108060000190019B032B03D907494720FFF7D8F95B
:10807000064A019B13441B7801211846FFF789FF2C
:1080800000BF03B05DF804FBFC2D0300642E030069
:1080900000B583B00023019305E00198FFF7DEFFF0
:1080A000019B01330193019B032BF6D900BF00BF55
:1080B00003B05DF804FB000008B54FF01023D3F8BF
:1080C000043303F00703072B21D1124B0122C3F81D
:1080D000042500BF0F4BD3F80034002BFAD04FF02B
:1080E0001023D3F8043323F007034FF0102243F09A
:1080F0000403C2F80433074B0022C3F8042500BF71
:10810000044BD3F80034002BFAD0FFF789FE00BFF0
:1081100008BD00BF00E0014000B583B04FF08043D0
:10812000D3F8403603F00103002B01D0FFF7C4FF62
:108130000023019309E0094A019B13441B78184668
:10814000FFF7D9FE019B01330193019B032BF2D969
:10815000FFF79EFF00BF03B05DF804FB642E030031
:1081600000B583B00023019307E0262303211846BE
:10817000FFF7D2FE019B01330193019B002BF4D04A
:1081800000BF00BF03B05DF804FB00B583B00190F1
:10819000019B03F00103002B01D0FFF7BDFF019B02
:1081A00003F00203002B01D0FFF7DAFF00BF03B09A
:1081B0005DF804FBBFF34F8F00BF064BDB6803F491
:1081C000E0620449044B1343CB60BFF34F8F00BF01
:1081D00000BFFDE700ED00E00400FA0582B0164B99
:1081E0001B680193154B1B680093019B082B1FD143
:1081F000009B052B1AD801A252F823F01582020029
:10820000198202001D8202002182020025820200E2
:108210002982020001230CE001230AE0012308E087
:10822000012306E0012304E0012302E0012300E032
:108230000023184602B070473001001034010010CE
:1082400082B0164B1B680193154B1B680093019B72
:10825000082B1FD1009B052B1AD801A252F823F03E
:10826000798202007D820200818202008582020002
:10827000898202008D82020001230CE001230AE0C2
:10828000012308E0012306E0012304E0012302E0CA
:10829000012300E00023184602B0704730010010AF
:1082A0003401001082B0164B1B680193154B1B68FC
:1082B0000093019B082B1FD1009B052B1AD801A20C
:1082C00052F823F0DD820200E1820200E582020022
:1082D000E9820200ED820200F182020001230CE03B
:1082E00000230AE0002308E0002306E0002304E066
:1082F000002302E0002300E00023184602B070478C
:10830000300100103401001082B0164B1B6801933D
:10831000154B1B680093019B082B1FD1009B052B5D
:108320001AD801A252F823F04183020045830200CB
:10833000498302004D8302005183020055830200ED
:1083400001230CE000230AE0002308E0002306E0FC
:10835000002304E0002302E0002300E0002318468D
:1083600002B07047300100103401001082B0164B8B
:108370001B680193154B1B680093019B082B1FD1B1
:10838000009B052B1AD801A252F823F0A583020006
:10839000A9830200AD830200B1830200B58302000D
:1083A000B983020001230CE000230AE0002308E067
:1083B000002306E0002304E0002302E0002300E0A5
:1083C0000023184602B0704730010010340100103D
:1083D00082B0164B1B680193154B1B680093019BE1
:1083E000082B1FD1009B052B1AD801A252F823F0AD
:1083F000098402000D840200118402001584020029
:10840000198402001D84020001230CE000230AE00D
:10841000002308E0002306E0002304E0002302E03C
:10842000002300E00023184602B07047300100101E
:108430003401001082B0164B1B680193154B1B686A
:108440000093019B082B1FD1009B052B1AD801A27A
:1084500052F823F06D8402007184020075840200DA
:10846000798402007D8402008184020001230CE0F3
:1084700001230AE0012308E0012306E0012304E0D0
:10848000012302E0012300E00023184602B07047F8
:10849000300100103401001082B0164B1B680193AC
:1084A000154B1B680093019B082B1FD1009B052BCC
:1084B0001AD801A252F823F0D1840200D584020018
:1084C000D9840200DD840200E1840200E584020018
:1084D00000230CE000230AE0002308E0002306E06C
:1084E000012304E0012302E0012300E000231846F9
:1084F00002B07047300100103401001008B5FFF7DA
:10850000CBFF0346002B07D04FF010234FF08042E3
:10851000D3F80832C2F8583500BF08BD00BF044B7D
:10852000D3F80034002BFAD000BF00BF704700BF63
:1085300000E0014000B583B00190054A019BC2F8FC
:108540000435FFF7EBFF00BF03B05DF804FB00BF8D
:1085500000E00140024B034A1A6000BF704700BFB1
:108560003C2300200090D00308B5FFF737FE0346F8
:10857000002B0ED04FF080430022C3F80C214FF0A7
:1085800080430022C3F810214FF080430022C3F83B
:108590003825FFF755FE0346002B76D04FF0805369
:1085A000734AD3F80434C2F820354FF08053704A30
:1085B000D3F80834C2F824354FF080536C4AD3F80E
:1085C0000C34C2F828354FF08053694AD3F8103480
:1085D000C2F82C354FF08053654AD3F81434C2F8F2
:1085E00030354FF08053624AD3F81834C2F834352E
:1085F0004FF080535E4AD3F81C34C2F840354FF038
:1086000080535B4AD3F82034C2F844354FF080538E
:10861000574AD3F82434C2F848354FF08053544AAF
:10862000D3F82834C2F84C354FF08053504AD3F871
:108630002C34C2F850354FF080534D4AD3F83034C3
:10864000C2F854354FF08053494AD3F83434C2F855
:1086500060354FF08053464AD3F83834C2F8643559
:108660004FF08053424AD3F83C34C2F868354FF09B
:1086700080533F4AD3F84034C2F86C354FF08053F2
:108680003B4AD3F84434C2F87035FFF70BFE03467B
:10869000002B02D0374B384A1A60FFF735FE0346ED
:1086A000002B03D0354BFB22C3F81825FFF75EFEE5
:1086B0000346002B0AD0324B1B6823F00F02314BCC
:1086C0001B6803F00F032E4913430B60FFF780FE76
:1086D0000346002B03D02C4B4FF400721A60FFF7B7
:1086E000A9FE0346002B0DD04FF08043D3F8003491
:1086F00003F00103002B05D04FF080436FF001021F
:10870000C3F80024214BD3F88830204A43F4700387
:10871000C2F88830BFF34F8F00BFBFF36F8F00BF29
:10872000FFF7ECFE4FF01023D3F80032002B05DBEF
:108730004FF01023D3F80432002B15DA0120FFF795
:10874000F9FE4FF010231222C3F80022FFF7E6FED5
:108750004FF010231222C3F80422FFF7DFFE00209F
:10876000FFF7E8FEFFF726FDFFF7F4FE00BF08BDA8
:1087700000C000408C5600404881030000F00040DB
:10878000E40E0040580200104096024000ED00E068
:108790006DDF704700BF184679DF704700BF18468D
:1087A0007DDF704700BF184664DF704700BF184682
:1087B00082B003460091ADF80630BDF80630DAB25B
:1087C000009B1A70BDF806301B0A9AB2009B013359
:1087D000D2B21A700223184602B0704700B589B0B1
:1087E000039002911346ADF80630029B1B8803F1FB
:1087F0000902BDF806309A4201D90C2353E004ABBC
:108800001846FFF7C5FF0790079B0693069B002BB2
:1088100001D0069B47E0029B1B881A46039B13442A
:1088200008221A70029B1B8801339AB2029B1A809D
:10883000029B1B881A46039B13441B221A70029B3F
:108840001B8801339AB2029B1A80029B1B881A462E
:10885000039B981804AB0133062219460AF0F6F878
:10886000029B1B8806339AB2029B1A809DF8103037
:1088700023F00103DBB2002B07D1029B1B881A46B1
:10888000039B134400221A7006E0029B1B881A46C1
:10889000039B134401221A70029B1B8801339AB276
:1088A000029B1A800023184609B05DF804FB00B54E
:1088B00089B0039002910192ADF80230039B1B78BE
:1088C000012B05D1039B5B78002B01D1072391E09D
:1088D000019B1B889A1CBDF802309A420ED8039B5C
:1088E0001B78012B0CD1019B1B881A46039B5B78DC
:1088F00013449A1CBDF802309A4201D90C2379E046
:10890000019B1B88BDF80220D31A9BB2023BADF835
:108910001C30BDF81C30ADF81230019B1B880233AF
:10892000029A13440DF1120211461846FFF738FF60
:108930000690069B0593059B002B01D0059B59E0F3
:10894000039B1B78022B06D0039B5B781A46BDF86D
:1089500012309A4209D3BDF81230BDF81C209A4259
:1089600003D309238DF81F3016E008238DF81F303C
:10897000039B1B78012B0BD1039B5B781A46BDF838
:108980001C30934204D3039B5B78ADF8123003E0B4
:10899000BDF81C30ADF81230BDF81230FE2B01D9F5
:1089A0000C2327E0BDF81230DAB2019B1B88194670
:1089B000029B0B440132D2B21A70019B1B88013317
:1089C0009AB2019B1A80019B1B881A46029B134492
:1089D0009DF81F201A70019B1B8801339AB2019BDE
:1089E0001A80019B1A88BDF8123013449AB2019B79
:1089F0001A800023184609B05DF804FB00B589B061
:108A0000039002911346ADF80630029B1B881A1D95
:108A1000BDF806309A4201D90C233AE00DF1160355
:108A20001846FFF7B9FE0790079B0693069B002B9D
:108A300001D0069B2DE0029B1B881A46039B134422
:108A400003221A70029B1B8801339AB2029B1A8080
:108A5000029B1B881A46039B134419221A70029B1F
:108A60001B8801339AB2029B1A80BDF81620029B24
:108A70001B881946039B0B4419461046FFF798FEC6
:108A800003461A46029B1B8813449AB2029B1A8023
:108A90000023184609B05DF804FB84B002910192EE
:108AA0001A4603468DF80F301346ADF80C30019B83
:108AB0001B88DA1CBDF80C309A4201D90C2328E03F
:108AC000019B1B881A46029B134402221A70019BC9
:108AD0001B8801339AB2019B1A80019B1B881A469E
:108AE000029B134401221A70019B1B8801339AB226
:108AF000019B1A80019B1B881A46029B13449DF818
:108B00000F201A70019B1B8801339AB2019B1A80B7
:108B10000023184604B0704784B0029101921A46AF
:108B200003468DF80F301346ADF80C30019B1B88BF
:108B3000DA1CBDF80C309A4201D90C2328E0019BC5
:108B40001B881A46029B134402221A70019B1B8841
:108B500001339AB2019B1A80019B1B881A46029B23
:108B600013440A221A70019B1B8801339AB2019B9D
:108B70001A80019B1B881A46029B13449DF80F2004
:108B80001A70019B1B8801339AB2019B1A80002343
:108B9000184604B0704700B58FB0039001930B46A0
:108BA0008DF80B3013468DF80A3000238DF83330E2
:108BB000109B1B88ADF8303000230D9370E0039BB1
:108BC0005A680D9B9B001A4405AB106818600DF1A4
:108BD0001B0105AB00221846FFF7E6FD0A900A9B31
:108BE0000993099B002B01D0099B7BE09DF81B306A
:108BF0009DF80A209A4250D19DF83330002B01D0C5
:108C0000002300E002238DF82330109B1B881A46B6
:108C10009DF81B301A449DF823301A44BDF84430A7
:108C20009A4201DD0C235DE09DF8333083F00103AF
:108C3000DBB2002B16D0109B1B8801339AB2109B1D
:108C40001A80109B1B881A46019B13449DF80B2029
:108C50001A70109B1B8801339AB2109B1A80012353
:108C60008DF83330109B1B881A46019B1A440DF176
:108C70001B0105AB1846FFF797FD0A900A9B079367
:108C8000079B002B01D0079B2CE0109B1B889DF8B5
:108C90001B2013449AB2109B1A800D9B01330D9335
:108CA000039B1B881A460D9B934288DB9DF833304B
:108CB000002B16D0109B1A88BDF83030D31A9BB207
:108CC000013BADF82E30BDF82E30FF2B01D90C231F
:108CD00008E0BDF83030019A1344BDF82E20D2B21E
:108CE0001A70002318460FB05DF804FB00B58BB076
:108CF000059003930B468DF8133013468DF8123010
:108D00009DF81310BDF8343001930C9B0093039B26
:108D100002220598FFF73FFF0990099B0893089BE3
:108D2000002B01D0089B14E09DF81210BDF83430E0
:108D300001930C9B0093039B10220598FFF72BFFD8
:108D40000990099B0793079B002B01D0079B00E02C
:108D5000002318460BB05DF804FB82B00190019B24
:108D60001B88052B0AD9019B1B88B3F5486F07D9CF
:108D7000019B1B884FF6FF72934201D0072325E029
:108D8000019B5B88052B0AD9019B5B88B3F5486F73
:108D900007D9019B5B884FF6FF72934201D00723EE
:108DA00014E0019B1B884FF6FF7293420DD0019B8C
:108DB0005B884FF6FF72934207D0019B1A88019B94
:108DC0005B889A4201D9072300E00023184602B0CD
:108DD000704700B587B0039002910192ADF8023060
:108DE000019B1B889A1DBDF802309A4201D90C23C1
:108DF0004BE00398FFF7B1FF0590059B0493049B9C
:108E0000002B01D0049B40E0019B1B881A46029B6B
:108E1000134405221A70019B1B8801339AB2019BEF
:108E20001A80019B1B881A46029B134412221A7057
:108E3000019B1B8801339AB2019B1A80039B1A88FD
:108E4000019B1B881946029B0B4419461046FFF7ED
:108E5000AFFC03461A46019B1B8813449AB2019B40
:108E60001A80039B5A88019B1B881946029B0B445E
:108E700019461046FFF79CFC03461A46019B1B88C7
:108E800013449AB2019B1A800023184607B05DF87C
:108E900004FB00B587B0039002910192ADF8023057
:108EA000039B9B8802330593019B1B881A46059BF5
:108EB00013449A1CBDF802309A4201D90C2353E0A6
:108EC000059BFE2B01D90C234EE0059BDAB2019BDA
:108ED0001B881946029B0B440132D2B21A70019BC7
:108EE0001B8801339AB2019B1A80019B1B881A468A
:108EF000029B1344FF221A70019B1B8801339AB214
:108F0000019B1A80039B1A88019B1B881946029BB0
:108F10000B4419461046FFF74BFC03461A46019BCB
:108F20001B8813449AB2019B1A80039B9B88002BD9
:108F300019D0039B9B68002B01D1072314E0019BF0
:108F40001B881A46029B9818039B9968039B9B8871
:108F50001A4609F07BFD019B1A88039B9B881344EA
:108F60009AB2019B1A800023184607B05DF804FBF3
:108F700000B589B0039002910192ADF80230039BD5
:108F80009B6A002B01D1072371E000238DF81F306D
:108F900065E0039B996A9DF81F2013465B0013440C
:108FA0009B000B440693069B9B8802330593059B0D
:108FB000FE2B01D90C235AE0059BDAB2019B1B88DA
:108FC0001946029B0B440132D2B21A70019B1B88D6
:108FD00001339AB2019B1A80019B1B881A46029B9F
:108FE000134416221A70019B1B8801339AB2019B0D
:108FF0001A80069B1A88019B1B881946029B0B440A
:1090000019461046FFF7D4FB03461A46019B1B88FE
:1090100013449AB2019B1A80069B9B88002B19D09F
:10902000069B9B68002B01D1072320E0019B1B8836
:109030001A46029B9818069B9968069B9B881A46BD
:1090400009F004FD019B1A88069B9B8813449AB281
:10905000019B1A809DF81F3001338DF81F30039B50
:1090600093F82C309DF81F209A4292D30023184683
:1090700009B05DF804FB00B595B00590049103922A
:1090800000231393039B1B88ADF84A30039B0022F7
:109090001A80059B93F82D30002B0ED0BDF84A3076
:1090A0001A4603990498FFF799FB1390139B1193A9
:1090B000119B002B01D0119BD8E0059B9B78002BC6
:1090C0000ED0BDF84A301A4603990498FFF796FC73
:1090D0001390139B1093109B002B01D0109BC5E0A5
:1090E000059BDB78002B10D0059BDB7858B2BDF8D0
:1090F0004A30039A0499FFF7D0FC1390139B0F9307
:109100000F9B002B01D00F9BB0E0059B5B68002BF1
:1091100011D0059B5B6893F90000BDF84A30039AB3
:109120000499FFF7F9FC1390139B0E930E9B002BF1
:1091300001D00E9B9AE0059B1B89002B14D0059B48
:1091400003F10800BDF84A300193039B0093049B90
:1091500006220221FFF7CAFD1390139B0D930D9B6E
:10916000002B01D00D9B81E0059B1B8A002B14D0A6
:10917000059B03F11000BDF84A300193039B009357
:10918000049B07220321FFF7B1FD1390139B0C935F
:109190000C9B002B01D00C9B68E0059B1B8B002BCC
:1091A00014D0059B03F11800BDF84A300193039BCE
:1091B0000093049B15221421FFF798FD1390139B35
:1091C0000B930B9B002B01D00B9B4FE0059B1B6A65
:1091D000002B0FD0059B186ABDF84A30039A0499FA
:1091E000FFF7F7FD1390139B0A930A9B002B01D006
:1091F0000A9B3BE0059B5B6A002B0FD0059B586ADE
:10920000BDF84A30039A0499FFF743FE1390139B6D
:109210000993099B002B01D0099B27E0059B93F83C
:109220002C30002B0ED0BDF84A30039A04990598D3
:10923000FFF79EFE1390139B0893089B002B01D011
:10924000089B13E0059B1B78002B0ED0BDF84A301D
:10925000039A04990598FFF72AFB1390139B079331
:10926000079B002B01D0079B00E0139B184615B00D
:109270005DF804FB75DF704700BF184676DF704766
:1092800000BF18467ADF704700BF18467BDF704783
:1092900000BF184684B00346ADF8063000230393A0
:1092A00016E00F49039A13469B0013449B000B449E
:1092B0001B88BDF806209A4207D1039A13469B00EB
:1092C00013449B00064A134406E0039B01330393B7
:1092D000039B002BE5D00023184604B0704700BF65
:1092E0007824002082B001900B46ADF80230019B3B
:1092F000BDF802201A80019B00221A72019B0549C9
:1093000003F10A020B4603CB1060516000BF02B0AC
:10931000704700BFA824002082B00190019B4FF647
:10932000FF721A8000BF02B0704788B003900291AC
:1093300011461A460B46ADF806301346ADF8043018
:10934000039B9B881A46BDF8063013440793039B82
:109350009B881946039B9B88BDF80620934228BF33
:1093600013469BB2CB1A0693039BDB881A46BDF8C3
:10937000043013440593039BDB881946039BDB8869
:10938000BDF80420934228BF13469BB2CB1A049326
:10939000029B5A88039B1B889A4205D3029B5A88DA
:1093A000039B5B889A4201D900231CE0029B9B88A7
:1093B0001A46069B934205D8029B9B881A46079B38
:1093C000934201D200230EE0029BDB881A46049BE5
:1093D000934205D8029BDB881A46059B934201D233
:1093E000002300E00123184608B0704700B583B0A1
:1093F0000190064B9B69002B03D0044B9B6901989D
:10940000984700BF03B05DF804FB00BF8C24002028
:1094100000B585B003460091ADF80630BDF80630C2
:1094200000991846FFF726FF0390039B002B05D0F9
:10943000039B112B02D00398FFF7D8FF039B002B4F
:109440000CBF01230023DBB2184605B05DF804FB16
:1094500000B589B00190019B0793079B9BB218460A
:10946000FFF718FF0690069B002B42D0069B1A7A46
:10947000224B1B7B9A4215D2079B9AB2069B0A335A
:1094800019461046FFF7C4FF03468DF813309DF8C8
:109490001330002B2DD0069B1B7A0133DAB2069BCA
:1094A0001A7226E0069B00221A72144B1B7C002BBA
:1094B0000FD0079B9BB23B211846FFF7DFFE0590BC
:1094C000059B002B05D0059B082B02D00598FFF7C4
:1094D0008DFF0A4B5B69002B0BD000238DF80C30FD
:1094E000079B9BB2ADF80E30044B5B6903AA104694
:1094F000984700BF09B05DF804FB00BF8C24002032
:1095000030B587B00190019B002B01D10E2353E0B1
:109510002B4A019B14461D460FCD0FC495E807004A
:1095200084E80700264B274A1A60019B1B68002B22
:1095300011D0019B1B681846FFF7A4FE0490049B02
:10954000002B01D0049B37E0019B1A681D4B10686B
:10955000516803C308E01B48FFF798FE0490049B82
:10956000002B01D0049B27E00023059320E0059AFF
:1095700013469B0013449B00134A13440393039820
:10958000FFF7CAFE059B5B01104A1A44039B5A6011
:10959000039B04330E4A0021184605F00FF904908E
:1095A000049B002B01D0032306E0059B01330593A8
:1095B000059B002BDBD00023184607B030BD00BF51
:1095C0008C240020A8240020782400205824002087
:1095D0005194020000B587B003460091ADF8063003
:1095E000009B5B7A002B1AD1009B1B7A002B03D1C6
:1095F000164B5B68059302E0144B9B680593009B38
:109600005B68BDF806200599184605F011F904902D
:10961000049B002B16D00498FFF7E8FE12E0009B95
:1096200000221A72094B5B69002B0BD001238DF8C5
:109630000C30BDF80630ADF80E30044B5B6903AA60
:109640001046984700BF07B05DF804FB8C2400204B
:1096500000B585B00190019BDB7B8DF80F30019B3D
:109660009B88ADF80C309DF80F30012B2CD14FF6B4
:10967000FF70FFF70FFE0290029B002B03D1042026
:10968000FFF7B4FE21E0BDF80C3019460298FFF751
:1096900029FE029B03F10A00019B03F110014FF622
:1096A000FF7340F2F312FFF740FE03461A46029B97
:1096B0005A72074BDB89002B07D1BDF80C30029999
:1096C0001846FFF787FF00E000BF05B05DF804FB18
:1096D0008C24002000B587B00190019B9B88ADF8D9
:1096E0001630BDF816301846FFF7D4FD0490049BE1
:1096F000002B0ED0049B5B68184605F0F1F8039030
:10970000039B002B02D00398FFF770FE0498FFF72D
:1097100003FE00BF07B05DF804FB000000B587B092
:109720000190019B06330593059B1A88194BDB8931
:109730009A422BD1059B5B89022B27D1019B9B88E9
:10974000ADF81230BDF812301846FFF7A3FD0390B4
:10975000039B002B1AD0059B0C33184600F0FBF935
:109760000346002B06D0BDF8123003991846FFF7C8
:1097700031FF0BE0039B5B68184605F0B1F80290DF
:10978000029B002B02D00298FFF730FE00BF07B00B
:109790005DF804FB8C24002000B585B00190019B8E
:1097A0009B88ADF80E30BDF80E301846FFF772FDFD
:1097B0000290029B002B15D0029B03F10A00019B33
:1097C00003F108014FF6FF7340F2F312FFF7ADFD0E
:1097D00003461A46029B5A72BDF80E30029918468B
:1097E000FFF7F8FE00BF05B05DF804FB00B583B0DD
:1097F00001900091019B1B88502B12D0502B18DC3C
:10980000122B12D0122B14DC102B02D0112B04D0EF
:109810000FE00198FFF71CFF0CE00198FFF75AFFDB
:1098200008E00198FFF77AFF04E00198FFF7B4FF22
:1098300000E000BF00BF03B05DF804FB30B58FB09F
:109840000190009100230293009B002B1AD000236B
:109850000D9314E06B460D99184605F07EFE034605
:10986000002B09D0029B5A1C02920D9A92B25B0007
:1098700038336B4423F82C2C0D9B01330D930D9B37
:10988000132BE7D9019B1D4602AC0FCC0FC50FCCA3
:109890000FC594E8070085E8070001980FB030BDB8
:1098A00000B583B00346ADF80630BDF80630132B83
:1098B00001D900230CE0BDF806301946064805F032
:1098C0001BFEBDF806301946044805F015FE0123BD
:1098D000184603B05DF804FBB8240020B42400202F
:1098E00000B585B00346ADF80630002303930DE0C4
:1098F000039B9B00094A13440433BDF8062011461C
:10990000184605F011FE039B01330393039B1D2BA7
:10991000EED900BF00BF05B05DF804FBB024002005
:1099200000B583B00346ADF80630BDF806301946E1
:10993000034805F0F9FD00BF03B05DF804FB00BF6C
:10994000B824002030B59BB0184B9B68DB431893BC
:10995000164B5A6818AB1146184605F05DFE189A6A
:109960006B4611461846FFF769FF0DAC6D460FCDEB
:109970000FC40FCD0FC495E8070084E8070000234B
:1099800019930BE0199B5B0068336B4433F8303C50
:109990001846FFF7A5FF199B013319930D9B199AE0
:1099A0009A42EFD300BF00BF1BB030BDB0240020EF
:1099B00000B583B001900B46ADF8023013468DF828
:1099C00001309DF80130002B06D0BDF80230194659
:1099D000019805F091FD05E0BDF8023019460198A7
:1099E00005F0A2FD00BF03B05DF804FB00B585B033
:1099F00001900091019B9B88ADF80E30019B1B8864
:109A0000103B0A2B00F2838001A252F823F000BF22
:109A10003D9A0200799A02000F9B02000F9B020000
:109A20000F9B02000F9B02000F9B02000F9B020086
:109A30000F9B0200E39A0200859A0200FFF782FF63
:109A4000BDF80E301846FFF72BFF034683F00103E5
:109A5000DBB2002B05D0304AF021042004F0C0FA1C
:109A600052E0019BDB7B022B4ED1BDF80E30194634
:109A70002A4805F041FD47E0BDF80E301846FFF7D3
:109A80004FFF44E0019B1B7AC3F30313DBB28DF855
:109A90000D309DF80D30032B8CBF01230023DAB26B
:109AA000BDF80E3019461E48FFF782FF9DF80D30B5
:109AB000022B8CBF01230023DAB2BDF80E30194609
:109AC0001848FFF775FF9DF80D30012B8CBF01235F
:109AD0000023DAB2BDF80E3019461348FFF768FFCD
:109AE00015E0019B1B7A002B10D1019B5B7AC3F31D
:109AF000C0038DF80C309DF80C20BDF80E301946CF
:109B00000748FFF755FF01E000BF00E000BF00BFBE
:109B100005B05DF804FB00BF682E0300BC240020E4
:109B2000C8240020C4240020C024002082B001905A
:109B3000019B1B781AB2019B01331B781BB21B02DD
:109B40001BB213431BB29BB2184602B07047AADF88
:109B5000704700BF184600B585B001900198FFF727
:109B6000E5FF0346ADF80E30BDF80E3003F00103FB
:109B7000DBB2184605B05DF804FB000082B0034676
:109B800000918DF80730009A137823F00F031370BB
:109B9000009A137823F0F00313709DF80730052B1B
:109BA0005BD801A252F823F0C19B0200D79B0200B0
:109BB000F19B02000B9C0200259C02003F9C0200CE
:109BC000009A137823F00F031370009A137823F090
:109BD000F003137040E0009A1378012161F303034E
:109BE0001370009A1378012161F30713137033E0A7
:109BF000009A1378012161F303031370009A13781C
:109C0000022161F30713137026E0009A13780121F3
:109C100061F303031370009A1378032161F30713B0
:109C2000137019E0009A1378022161F30303137093
:109C3000009A1378012161F3071313700CE0009A66
:109C40001378022161F303031370009A1378022141
:109C500061F30713137000BF00BF00BF02B070476D
:109C600000B595B0034602910192ADF80E30029B0B
:109C70009B78002B03D101238DF81E3003E0029B5B
:109C80009B788DF81E30029B1B88ADF81C3006AB0C
:109C900003220021184608F00BFF029B5B7C06AAFA
:109CA00011461846FFF76AFF029B9A7C06AB013308
:109CB00019461046FFF762FF029BDA7B9DF81A30C7
:109CC00062F3C3038DF81A30029B1A7C9DF81A3098
:109CD00062F304138DF81A30029B1A7B9DF81A3038
:109CE00062F300038DF81A30029B1B7D002B01D01C
:109CF000022200E001229DF81A3062F342038DF83F
:109D00001A300DAB1C220021184608F0D1FE029B30
:109D10005B7B03F01003DBB2002B06D1029B5B7B65
:109D200003F02003DBB2002B24D004AB032200217C
:109D3000184608F0BDFE029BDA7C04AB01331946DD
:109D40001046FFF71BFF9DF81030012262F303035A
:109D50008DF810309DF81030012262F307138DF852
:109D600010309DF81230012262F342038DF8123058
:109D700004AB1293029B5B7B8DF83430029B9B7B80
:109D80008DF8353008AB14220021184608F090FEFB
:109D900007AB089306AB0993029B9B88ADF82C3068
:109DA000029B9B68002B06D0029BDB88ADF8283015
:109DB000029B9B680C93029B9B69002B4FD005ABC9
:109DC00003220021184608F073FE029B9B691B8842
:109DD000ADF83C30029B9B695B88ADF83E30029B3E
:109DE0009B695B680E9305AB1193029B9B691B7B80
:109DF00005AA11461846FFF7C1FE029B9B695A7BD4
:109E000005AB013319461046FFF7B8FE029B9B696C
:109E10009A7A9DF8163062F3C3038DF81630029BD0
:109E20009B69DA7A9DF8163062F304138DF81630C8
:109E3000029B9B691A7A9DF8163062F300038DF835
:109E40001630029B9B699B7B002B01D0022200E015
:109E500001229DF8163062F342038DF81630029B02
:109E6000DB69002B02D0029BDB69109308AA0DA9C5
:109E7000BDF80E00019BFFF76AFE0346184615B0B9
:109E80005DF804FB90DF704700BF1846A5DF704700
:109E900000BF1846B5DF704700BF184682B001907A
:109EA000019B17221A80019B17225A80019B0022D6
:109EB0001A71019B00225A71019B1B229A71019B0E
:109EC0001B22DA7100BF02B07047000030B589B0C4
:109ED00003460A46ADF806301346ADF80430BDF827
:109EE0000430ADF81430BDF80430ADF8163000235E
:109EF000ADF818300023ADF81A3003AB00221A6019
:109F00009A8003AA05A9BDF806301846FFF7BAFFE4
:109F10000790079B002B39D01E4A1F4BD31ADB0832
:109F20001B0443F00104BDF80650079806F004FC3A
:109F300003462A461949204607F053F9BDF80C306C
:109F4000002B03D1BDF80E30002B0ED0114A124B5E
:109F5000D31ADB081B0443F00100BDF80C301A468D
:109F6000BDF80E300E4907F03CF9BDF81030002B5B
:109F70000CD0084A084BD31ADB081B0443F001033A
:109F8000BDF810200749184607F01AF9079B184634
:109F900009B030BDA82C0300602C0300EC2E030098
:109FA000382F0300782F030010B586B00190009180
:109FB000009B9B88ADF80E30BDF80E30DB00019A97
:109FC000134406330593019B1A79059B9A71009BF4
:109FD000DB7B012B02D0022B05D009E0019B1A8804
:109FE000059B1A8004E0019B5A88059B1A8000BFDC
:109FF000059B1A88059B5B889A4226D9059B1A887F
:10A00000BDF80E3011461846FFF740FF0490049B40
:10A01000002B03D1059B01225A7116E0049B112BE2
:10A0200003D1059B01221A710FE0114A114BD31A7B
:10A03000DB081B0443F00104049806F07DFB034693
:10A040001A460D49204607F0BBF8059B9A79059BF7
:10A05000DB799A4208D9059B9B791A46BDF80E30E8
:10A0600011461846FFF732FF00BF06B010BD00BF13
:10A07000A82C0300602C0300D02F030000B583B090
:10A0800001900091009B9B88DB00019A13440633EA
:10A090001846FFF703FF00BF03B05DF804FB00B5EF
:10A0A00087B001900091009B9B88ADF81630009B13
:10A0B0005B89ADF81430BDF81630DB00019A13440B
:10A0C00006330493049B1B88BDF81420934228BFD9
:10A0D00013469AB2049B5A80049B5B88172B38BFA7
:10A0E00017239AB2049B5A80019B1B69002B15D041
:10A0F000049B5B79002B11D040F67723ADF8083034
:10A10000BDF81630ADF80A30049B5B88ADF80C3012
:10A11000019B1B6902AA114601989847049B0022E3
:10A120005A71049B00221A7100BF07B05DF804FB4E
:10A1300010B588B001900091009B9B88ADF81A3053
:10A14000009BDB88ADF81830BDF81A30DB00019AAF
:10A15000134406330593BDF81830172B38BF172367
:10A16000ADF81830059B1B88BDF81820934228BF16
:10A1700013469AB2059B5A80059B00221A71059BD3
:10A180001A88BDF81A3011461846FFF783FE07906B
:10A19000079B002B0FD0174A174BD31ADB081B0461
:10A1A00043F00104079806F0C7FA03461A4613491C
:10A1B000204607F005F8059B5B79002B16D1019B23
:10A1C0001B69002B13D040F67723ADF80C30BDF897
:10A1D0001A30ADF80E30059B5B88ADF81030019B4E
:10A1E0001B6903AA11460198984700E000BF08B018
:10A1F00010BD00BFA82C0300602C03000430030036
:10A2000030B591B001900091009B04AC1D1D0FCDA5
:10A210000FC40FCD0FC495E8070084E80700BDF810
:10A220001030ADF83E30BDF81420BDF83E30D1B24C
:10A23000019ADB0013440A465A73019B1B69002BE9
:10A2400019D002AB00221A609A804DF67A23ADF83D
:10A250000830BDF83E30ADF80A30BDF83E30019A06
:10A26000DB0013445B7B8DF80C30019B1B6902AA59
:10A2700011460198984700BF11B030BD00B587B0B6
:10A2800001900091009B04330593059B1B88DB0024
:10A29000019A134406330493059B9B888DF80F3075
:10A2A000049B9B799DF80F20934228BF13468DF89D
:10A2B0000E30059B1B889DF80E2092B21146184661
:10A2C000FFF704FE00BF07B05DF804FB00B585B0E2
:10A2D00001900091019B002B01D10E231DE0019BF9
:10A2E000009A1A61019B17221A80019B17225A803B
:10A2F000019B1B221A71002303930AE0039BDB00DE
:10A30000019A134406331846FFF7C8FD039B013337
:10A310000393039B002BF1D00023184605B05DF892
:10A3200004FB000010B586B001900091009B0593DE
:10A33000019B9B88ADF81230BDF81230002B40F025
:10A340009880019B1B88552B48D0552B55DC242B1E
:10A3500032DC102B51DB103B142B4ED801A252F8EB
:10A3600023F000BFBFA30200C9A30200FBA30200A9
:10A37000FBA30200FBA30200FBA30200FBA302005D
:10A38000FBA30200FBA30200FBA30200FBA302004D
:10A39000FBA30200FBA30200FBA30200FBA302003D
:10A3A000FBA30200FBA30200FBA30200FBA302002D
:10A3B000F1A30200E7A302003A2B0AD01DE00199A5
:10A3C0000598FFF7F1FD19E001990598FFF756FE92
:10A3D00014E001990598FFF762FE0FE001990598D6
:10A3E000FFF7A6FE0AE001990598FFF709FF05E0CF
:10A3F00001990598FFF742FF00E000BFBDF8123059
:10A40000059ADB0013449B7A002B33D0BDF8123041
:10A41000059ADB001344DA88BDF81230114618465D
:10A42000FFF734FD0390039B002B0ED1BDF81230D3
:10A43000059ADB00134400229A72BDF81230059A87
:10A44000DB0013440122DA7214E0039B112B11D0BC
:10A45000094A0A4BD31ADB081B0443F00104039892
:10A4600006F06AF903461A460549204606F0A8FE9A
:10A4700000E000BF06B010BDA82C0300602C030054
:10A48000D02F0300B0DF704700BF184666DF70476B
:10A4900000BF184682B001900091019B002B01D1B2
:10A4A0000E2316E0009B002B01D10E2311E0019B2F
:10A4B0001B78DE2B01D108230BE0009B1A68019B5F
:10A4C0005A60019BDE221A70019B4FF6FF725A8080
:10A4D0000023184602B0704782B001900B46ADF8D9
:10A4E0000230019B002B01D10E230AE0019B1B7857
:10A4F000DE2B01D0082304E0019BBDF802205A8026
:10A500000023184602B0704700B585B00190019B4A
:10A510001B7A002B18D0019B5B8800211846FFF79F
:10A52000B5FF0390039B002B03D1019B00221A72FD
:10A530000AE0039B112B03D1019B01221A7203E055
:10A54000019B5B680398984700BF05B05DF804FB6A
:10A5500000B583B001900091009B1B79012B0BD1BA
:10A56000009B1A88019B5B889A4205D1019B0122BE
:10A570001A720198FFF7C8FF00BF03B05DF804FB33
:10A5800082B00190009100BF02B0704700B589B061
:10A5900001900091009B1A88019B5B889A4236D1FA
:10A5A000009B02330793079B1B78022B31D1079B3B
:10A5B0001B7A042B07D0079B1B7A062B03D0079B23
:10A5C0001B7A052B27D102AB00221A605A609A60D1
:10A5D000DA6002238DF808304FF4C073ADF80C3008
:10A5E000079B1B7A052B02D10023ADF80C30009B92
:10A5F0001B8802AA11461846FFF744FF0690069BE7
:10A60000002B09D0019B5B680698984704E000BFC7
:10A6100002E000BF00E000BF09B05DF804FB00B538
:10A6200085B001900091009B002B43D0019B002B33
:10A6300040D0009B0393039B1B78DE2B3AD1019BF8
:10A640009A88039B5B889A4202D10398FFF75CFFCC
:10A65000019B1B88512B18D0512B28DC112B1BD0B0
:10A66000112B24DC012B02D0022B07D01FE0019B11
:10A67000043319460398FFF76BFF1BE0019B04337B
:10A6800019460398FFF77CFF14E0019B0433194639
:10A690000398FFF77BFF0DE0019B9A88039B5B8883
:10A6A0009A4206D1039B4FF6FF725A8001E000BF29
:10A6B00000E000BF05B05DF804FBA8DF704700BFF5
:10A6C0001846AEDF704700BF184662DF704700BF14
:10A6D000184600B585B001900091009B06330393A6
:10A6E000039B1A88019B5B889A420FD1039B5B896D
:10A6F000012B0BD1019B5B69002B07D0019B5B6990
:10A70000009A9088039A127B0199984700BF05B080
:10A710005DF804FB00B585B001900091009B0393A8
:10A72000019B1B88502B04D101990398FFF7D1FF9F
:10A7300000E000BF00BF05B05DF804FB10B592B0AB
:10A7400001900091009B1A68019B5A614A4B02AC30
:10A750000FCB84E80F00019B03F1120202AB1146FC
:10A760001846FFF7B2FF1190119B1093109B002B1E
:10A7700001D0109B7CE0019B9B7C8DF83A3041F22C
:10A780002353ADF83830019A0EAB19460120FFF77C
:10A7900094FF1190119B0F930F9B002B01D00F9BE7
:10A7A00066E006AB20220021184608F081F941F24C
:10A7B0002453ADF81830019B9B7C8DF81A3004238C
:10A7C000ADF81E300423ADF81C309DF8253043F061
:10A7D00002038DF825309DF8253043F010038DF8E5
:10A7E000253001238DF8243001238DF829300123F1
:10A7F0008DF82B30019B1888019B03F10A0206ABF0
:10A800001946FFF72DFA1190119B002B01D0119BD7
:10A810002EE006AB20220021184608F049F941F24B
:10A820002553ADF81830019B9B7C8DF81A3001231D
:10A83000ADF81E300123ADF81C309DF8253043F0F3
:10A8400002038DF825309DF8253043F008038DF87C
:10A85000253001238DF8293001238DF82A30019B02
:10A860001888019B9A1C06AB1946FFF7F9F90346B5
:10A87000184612B010BD00BF3430030000B589B0D7
:10A88000029101921A460346ADF80E301346ADF818
:10A890000C3004AB10220021184608F009F90123FE
:10A8A0008DF81230029B5B89ADF810300023ADF8B3
:10A8B0001430019B079303AB069304AABDF80E3036
:10A8C00011461846FFF7FDFE0346184609B05DF82D
:10A8D00004FB000082B003468DF807309DF9073075
:10A8E000002B13DB9DF8073003F01F0209499DF987
:10A8F00007305B09012000FA02F2203341F82320DF
:10A90000BFF34F8F00BFBFF36F8F00BF00BF02B018
:10A91000704700BF00E100E0044BD3F80034002B87
:10A9200014BF01230023DBB218467047000001402A
:10A9300008B507F037FA034683F00103DBB2002BBA
:10A9400003D109497B20FCF76BFDFFF7E5FF0346C8
:10A9500083F00103DBB2002B04D000F04FFB034B6C
:10A9600000229A7000BF08BD4C3003002C25002047
:10A9700000B583B000230193184B1B78002B02D045
:10A98000852301931CE0154B00229A60134B002293
:10A990005A60124B00221A61104B0022DA601048F4
:10A9A00000F0F2FA019007F0FDF9034683F001038D
:10A9B000DBB2002B01D000F00DFB084B01221A7016
:10A9C000FFF7AAFF0346002B02D0044B01229A7026
:10A9D000019B184603B05DF804FB00BF2C25002046
:10A9E000B9AA020084B00190019B1B680393039BEA
:10A9F000002B03D0039B1A68019B1A60039B184627
:10AA000004B0704700B583B0164B1B78002B04D1FF
:10AA1000154940F21710FCF703FD124BDB68002BC1
:10AA200004D111494FF48C70FCF7FAFC00238DF827
:10AA300007300DF10703184604F022F8094BDB68D4
:10AA4000013B084AD360074BDB68002B01D1FFF7BD
:10AA50006FFF9DF80730184604F028F800BF03B0D8
:10AA60005DF804FB2C2500204C30030000B585B0B8
:10AA700003468DF807309DF80730002B02D10C4BB0
:10AA8000039301E00B4B03930398FFF7ABFF029096
:10AA9000029B002B06D0029B5B689DF807201046A6
:10AAA0009847F1E700BF00BF05B05DF804FB00BFA9
:10AAB000342500203C25002000B583B003468DF8E6
:10AAC00007309DF80730002B05D10A4B01225A7040
:10AAD0000020FFF7CBFF9DF80730012B05D1054B78
:10AAE00001229A700120FFF7C1FF00BF03B05DF89B
:10AAF00004FB00BF2C25002000B583B0019000911D
:10AB0000019B002B05D1054B01225A700020FFF755
:10AB1000ADFF00BF03B05DF804FB00BF2C25002093
:10AB200000B585B0034600918DF807309DF80730D9
:10AB3000032B29D0032B35DC002B02D0012B04D0B2
:10AB400030E00020FFF7C6FE2DE000238DF80F3027
:10AB50000DF10F03184603F093FF154B1B7883F09C
:10AB60000103DBB2002B01D0FFF702FF104BDB68C3
:10AB700001330F4AD3600E4B01229A709DF80F30BB
:10AB8000184603F093FF0EE0094B1B78002B04D10D
:10AB9000084940F25220FCF743FC00F01BFAFFF793
:10ABA00031FF00E000BF00BF05B05DF804FB00BF4F
:10ABB0002C2500204C30030000B589B00190009195
:10ABC000009B0793019B1B788DF80C30019B5B6801
:10ABD0000493019B9B68DBB28DF81430019BDB680A
:10ABE0000693074A079B52F823300649079A51F803
:10ABF000221003AA1046984700BF09B05DF804FB75
:10AC0000402500204825002000B589B00190009122
:10AC1000009B0793019B1B788DF80C30019B5B68B0
:10AC20000493019B9B68DBB28DF81430019BDB68B9
:10AC30000693074A079B52F823300649079A51F8B2
:10AC4000221003AA1046984700BF09B05DF804FB24
:10AC5000402500204825002030B58FB00390029198
:10AC60000192039B1B780C932C490C9B019A41F891
:10AC70002320029B1A692A490C9B41F823200C9B34
:10AC8000012B07D1029B5B7F002B03D12549762046
:10AC9000FCF7C6FB029B5B7F1946234A0C9B1344BF
:10ACA0000A461A70029B04AC1D460FCD0FC495E8EE
:10ACB0000F0084E80F000C9B089300230D93039B67
:10ACC0001B781A46184B9B5C002B0DD0039B181D5C
:10ACD000019B002B01D0154A00E0002204AB19466D
:10ACE00002F064FB0D9014E0039B1B781A460E4B98
:10ACF0009B5C002B0DD1039B03F10C00019B002BEF
:10AD000001D00B4A00E0002204AB194601F0CAFC56
:10AD10000D900D9B18460FB030BD00BF40250020A0
:10AD200048250020C030030050250020B9AB0200A8
:10AD300009AC020082B003468DF807309DF9073058
:10AD4000002B0CDB9DF8073003F01F0205499DF92D
:10AD500007305B09012000FA02F241F8232000BF0E
:10AD600002B0704700E100E082B0034600918DF828
:10AD700007309DF90730002B0ADB009BDAB20C4943
:10AD80009DF907305201D2B20B4483F800230BE047
:10AD9000009BDAB207499DF8073003F00F03043B2C
:10ADA0005201D2B20B441A7600BF02B0704700BF06
:10ADB00000E100E000ED00E082B00190019B1B0B80
:10ADC0005BB2184602B0704700B583B003460A462E
:10ADD0008DF8073013468DF806309DF80630012BAC
:10ADE00003D99DF80630032B0BD99DF80630042BB0
:10ADF00003D99DF80630072B03D908496B20FCF7CF
:10AE00000FFB9DF806209DF9073011461846FFF705
:10AE1000ABFF00BF03B05DF804FB00BF343103009B
:10AE200000B583B003468DF807309DF9073018460A
:10AE3000FFF780FF00BF03B05DF804FB82B003465C
:10AE40008DF807300F4A9DF90730002B00DA1F33C9
:10AE50005B115BB252F823209DF90730594203F091
:10AE60001F0301F01F0158BF4B425BB222FA03F3EC
:10AE700003F00103002B14BF01230023DBB21846AB
:10AE800002B0704700E100E082B001904FF08042D4
:10AE9000019BC2F8083300BF02B0704782B003467E
:10AEA0008DF807309DF8073003F1804301221A60C6
:10AEB00000BF02B0704784B00346ADF80630BDF85D
:10AEC000063003F1804300221A60BDF8063003F11A
:10AED00080431B680393039B00BF04B0704782B09C
:10AEE0000346ADF80630BDF8063003F180431B6819
:10AEF000002B14BF01230023DBB2184602B07047B9
:10AF000082B001904FF08042019BC2F8183500BF1B
:10AF100002B070474FF08043D3F818341B0C03F095
:10AF20000103002B14BF01230023DBB21846704736
:10AF300000B583B006238DF807304FF08040FFF74F
:10AF40003BFF03461846FFF779FF034683F00103F2
:10AF5000DBB2002B13D04FF08040FFF72DFF0346EC
:10AF60001A469DF8073019461046FFF72DFF4FF09F
:10AF70008040FFF721FF03461846FFF751FF00BF4F
:10AF800003B05DF804FB000000B585B00190019BA3
:10AF9000002B03D10D49A420FCF742FA00230393B0
:10AFA0000B4B1B79002B02D08523039308E0084A42
:10AFB000019B1360064B01221A71054B00225A7146
:10AFC000039B184605B05DF804FB00BF6C3103001D
:10AFD0005425002008B5074B1B79002B03D10649E7
:10AFE000BD20FCF71DFAFFF7A3FF0120FFF788FF44
:10AFF00000BF08BD542500206C31030008B50D4B7F
:10B000001B79002B03D10C49F720FCF709FA022029
:10B01000FFF73AFF4FF48270FFF74DFF0C20FFF768
:10B020003DFF00BFFFF776FF0346002BFAD100BFBC
:10B0300000BF08BD542500206C31030008B54FF453
:10B040008070FFF74CFF0346002B14D04FF4807044
:10B05000FFF731FF0120FFF717FF114B5B7983F0FA
:10B060000103DBB2002B06D00D4B01225A710C4BB1
:10B070001B68002098474FF48270FFF730FF0346AB
:10B08000002B0AD04FF48270FFF715FF0220FFF764
:10B09000FBFE034B1B680120984700BF08BD00BFA3
:10B0A0005425002082B003468DF807309DF9073003
:10B0B000002B0CDB9DF8073003F01F0205499DF9BA
:10B0C00007305B09012000FA02F241F8232000BF9B
:10B0D00002B0704700E100E082B0034600918DF8B5
:10B0E00007309DF90730002B0ADB009BDAB20C49D0
:10B0F0009DF907305201D2B20B4483F800230BE0D4
:10B10000009BDAB207499DF8073003F00F03043BB8
:10B110005201D2B20B441A7600BF02B0704700BF92
:10B1200000E100E000ED00E082B00190019B1B0B0C
:10B130005BB2184602B0704700B583B003460A46BA
:10B140008DF8073013468DF806309DF80630012B38
:10B1500003D99DF80630032B0BD99DF80630042B3C
:10B1600003D99DF80630072B03D908496B20FCF75B
:10B1700057F99DF806209DF9073011461846FFF74C
:10B18000ABFF00BF03B05DF804FB00BFDC31030080
:10B1900000B583B003468DF807309DF90730184697
:10B1A000FFF780FF00BF03B05DF804FB00B583B07C
:10B1B0000346ADF80630BDF80630184600F026F814
:10B1C00003461B68012B0CBF01230023DBB218468A
:10B1D00003B05DF804FB00B585B00346ADF806305A
:10B1E000BDF80630184600F011F803461A46002351
:10B1F0001360BDF80630184600F008F803461B68D7
:10B200000393039B00BF05B05DF804FB82B00346C7
:10B21000ADF80630BDF8063003F1804303F5C043B6
:10B22000184602B07047000082B00190034A019BAB
:10B23000C2F8043300BF02B0704700BF0060004096
:10B2400082B00190034A019BC2F8083300BF02B0EC
:10B25000704700BF0060004082B00190034BD3F8FC
:10B260000423019B1340184602B070470060004061
:10B2700082B00190084A019B03F5A27352F8233073
:10B28000054943F00102019B03F5A27341F8232015
:10B2900000BF02B0704700BF0060004082B0019064
:10B2A000084A019B03F5A27352F82330054923F0A5
:10B2B0000102019B03F5A27341F8232000BF02B0F5
:10B2C000704700BF0060004084B0039002911346B5
:10B2D0008DF80730144A039B03F5A27352F823300C
:10B2E000114923F44F3323F44073039A02F5A272F9
:10B2F00041F822300C4A039B03F5A27352F8232035
:10B30000029B1B0203F47C519DF807301B0403F4DD
:10B3100040330B4304491A43039B03F5A27341F8DE
:10B32000232000BF04B070470060004082B001904D
:10B33000054A019B03F5A27352F823301B0A03F060
:10B340003F03184602B070470060004082B0019091
:10B35000064A019B03F5A27352F823301B0C03F03D
:10B360000303DBB2184602B0704700BF0060004024
:10B3700000B583B00190019B1B68184600F028F9C6
:10B380000346002B04D10B494FF4F670FCF748F844
:10B39000019B1B681F2B02D84FF0A04306E0019BC6
:10B3A0001B6803F01F02019B1A60034B184603B091
:10B3B0005DF804FB0C3203000003005000B585B0BB
:10B3C0000190084611461A4603468DF803300B4695
:10B3D0008DF8023013468DF8013001AB1846FFF7A7
:10B3E000C7FF03909DF803209DF802305B001A43CD
:10B3F0009DF801309B001A439DF818301B0242EA69
:10B4000003019DF81C301B04019A1943039B02F5AC
:10B41000E07243F8221000BF05B05DF804FB00B5F0
:10B4200085B003900B468DF80B309DF80B30002251
:10B43000019200220092002200210398FFF7BEFF34
:10B4400000BF05B05DF804FB00B585B0019001AB0D
:10B450001846FFF78DFF0390019A039B02F5E072F7
:10B4600053F8223023F002030293019A039B02F562
:10B47000E072029943F8221000BF05B05DF804FBAA
:10B4800000B585B001900B468DF8033001AB18462E
:10B49000FFF76EFF0390019A039B02F5E07253F8E9
:10B4A0002230019A23F44031039B02F5E07243F805
:10B4B0002210019A039B02F5E07253F822109DF8C6
:10B4C00003301B04019A1943039B02F5E07243F811
:10B4D000221000BF05B05DF804FB00B585B00190F7
:10B4E00001AB1846FFF744FF0390039800F020F8E3
:10B4F0000246019B22FA03F303F00103184605B04C
:10B500005DF804FB00B585B0019001AB1846FFF76C
:10B510002FFF0390019A039B02F5E07253F822304B
:10B520001B0C03F00303DBB2184605B05DF804FB07
:10B5300082B00190019BD3F81035184602B07047D5
:10B5400088B0039002910192164A05AB92E803007D
:10B5500083E80300039B079319E0079B9B002033BC
:10B560006B4453F80C3CD3F82025019B1A60079BD1
:10B570009B0020336B4453F80C3C019A1268C3F8CB
:10B580002025019B04330193079B01330793039A02
:10B59000029B1344079A9A42DFD300BF00BF08B052
:10B5A000704700BF3C32030000B585B0019001AB8D
:10B5B0001846FFF7DDFE0390019B012202FA03F318
:10B5C0001A46039BC3F8202500BF05B05DF804FBB5
:10B5D00084B00190019B5B09029300230393029BBB
:10B5E000002B03D0029B012B04D007E04FF0FF3368
:10B5F000039303E04FF6FF73039300BF019B03F037
:10B600001F030193039A019B22FA03F303F0010342
:10B61000DBB2184604B0704784B001900091009BE3
:10B620000393019BDB080293019B03F00703019343
:10B630000122019B02FA03F30399029A0A44127849
:10B640001340184604B0704784B001900091009BED
:10B650000393019BDB080293019B03F00703019313
:10B66000039A029B13441B785AB20121019B01FAF1
:10B6700003F35BB2134359B2039A029B1344CAB259
:10B680001A7000BF04B0704782B001900C4A019B51
:10B690001344303393F90030002B09DB084A019B37
:10B6A0001344303393F90030072B01DC012300E011
:10B6B000002303F00103DBB2184602B0704700BF5D
:10B6C0005C25002082B00190064A019B1344303370
:10B6D00093F90030072BCCBF01230023DBB21846BF
:10B6E00002B070475C25002082B00190064A019BA1
:10B6F0001344303393F90030DB43DBB2DB09DBB2B8
:10B70000184602B0704700BF5C25002084B003904B
:10B71000029101928DF80330029B59B20E4A039BAD
:10B72000134430330A461A700B49029B019A41F8C0
:10B7300023209DF8033083F00103DBB2002B08D0F7
:10B74000029B083B039A51B2034A13440A4683F80A
:10B75000602000BF04B070475C25002082B00190DB
:10B76000044A019B13443033FF221A7000BF02B019
:10B77000704700BF5C25002000B583B001900449EC
:10B780000198FFF761FF00BF03B05DF804FB00BF45
:10B79000C025002082B00190044A019B134430333D
:10B7A00093F90030184602B0704700BF5C250020B6
:10B7B00082B00190034A019B52F82330184602B030
:10B7C000704700BF5C25002084B00190074A019BB0
:10B7D0001344603393F900308DF80F309DF80F302B
:10B7E00023F0C003184604B0704700BF5C2500205A
:10B7F00084B00190074A019B1344603393F90030F1
:10B800008DF80F309DF80F309B09DBB2184604B05D
:10B81000704700BF5C25002000B589B003900291FD
:10B8200013468DF80730FF238DF81F309DF8073041
:10B83000002B01D0002300E0082305939DF807307A
:10B84000002B01D0082300E00C230493059B0693F2
:10B8500014E00F4A069B52F82330B3F1FF3F0AD1A0
:10B860009DF80730029A06990398FFF74FFF069B51
:10B870008DF81F3006E0069B01330693069A049B61
:10B880009A42E6D39DF91F30184609B05DF804FBD3
:10B890005C25002082B003468DF807309DF8073004
:10B8A000094A4FF0FF3142F823109DF80730072B6B
:10B8B00007D99DF80730083B034A1344FF2283F859
:10B8C000602000BF02B070475C25002000B583B047
:10B8D0002D4B93F86A30002B03D008230093009B74
:10B8E0004EE000238DF8073011E09DF80730184630
:10B8F000FFF76EFE0346002B04D09DF80730184674
:10B90000FFF72CFF9DF8073001338DF807309DF8C5
:10B9100007302F2BE9D900238DF8073009E09DF877
:10B9200007301846FFF7B6FF9DF8073001338DF852
:10B9300007309DF807300B2BF1D906220021134860
:10B9400007F0B6F81248FFF7EFFB0346062118464A
:10B95000FFF7F2FB0E48FFF7E7FB03461846FFF739
:10B9600017FC4FF4BE70FFF736FC4FF00040FFF7B6
:10B970005BFC054B012283F86A2000230093009BA7
:10B98000184603B05DF804FB5C250020C0250020AC
:10B9900000600040044B93F86A30002B14BF012371
:10B9A0000023DBB2184670475C25002000B587B045
:10B9B0000390029101920398FFF70AFE0346002BC1
:10B9C00004D137494FF40C70FBF72AFD002305938F
:10B9D0000398FFF789FE0346002B02D00823059346
:10B9E00058E0029B9B78C3F34003DBB21A460199EF
:10B9F0000398FFF711FF03468DF813309DF91330BC
:10BA0000B3F1FF3F44D0029B9B78C3F38003DBB2CA
:10BA100083F00103DBB2002B13D0029B9B7803F071
:10BA20000103DBB2002B03D00398FFF70DFD05E007
:10BA3000029B5B7819460398FFF7F1FC0398FFF728
:10BA40009BFE029B9B7803F00203DBB2002B08D025
:10BA50009DF91300029B1B781A460399FFF734FCEB
:10BA600018E09DF91330083B0E4A134493F9601017
:10BA7000029B1B785BB29B015AB29DF91330083BC5
:10BA80000A4351B2074A13440A4683F8602001E092
:10BA900004230593059B184607B05DF804FB00BF1F
:10BAA0004C3203005C25002000B589B001900B46A4
:10BAB0008DF803300198FFF78BFD0346002B04D16E
:10BAC0003A494FF41870FBF7ABFC0198FFF70CFEF6
:10BAD0000346002B04D1354940F26120FBF7A0FC5E
:10BAE0000198FFF7EFFD0346002B2AD00198FFF7DE
:10BAF00051FE0346083B1846FFF77AFE03468DF8D1
:10BB00000F309DF80F30032B0BD10198FFF7E5FCA8
:10BB10000346002B01D0032300E002238DF81F30E1
:10BB200008E09DF80F30012B01D1022300E0032330
:10BB30008DF81F309DF81F3019460198FFF7A0FCC3
:10BB400030E00198FFF7A0FD0346002B2AD00198B2
:10BB5000FFF720FE03460693069B9BB240339BB241
:10BB60009B00ADF81630069B1846FFF781FBBDF829
:10BB700016301846FFF72FFB9DF80330002B11D02D
:10BB80000198FFF707FE03461846FFF711FE0490E1
:10BB9000049B002B06D00122069B02FA03F31846F1
:10BBA000FFF742FB00BF09B05DF804FB4C32030015
:10BBB00000B585B001900198FFF70AFD0346002B00
:10BBC00004D11A4940F28B20FBF72AFC0198FFF7B9
:10BBD0008BFD0346002B04D114494FF42370FBF76F
:10BBE0001FFC0198FFF76EFD0346002B04D00021D7
:10BBF0000198FFF745FC15E00198FFF745FD034666
:10BC0000002B0FD00198FFF7C5FD03460393039B5C
:10BC10001846FFF743FB0122039B02FA03F3184681
:10BC2000FFF70EFB00BF05B05DF804FB4C320300CC
:10BC300000B583B001900198FFF7CAFC0346002BC2
:10BC400004D1094940F2B220FBF7EAFB0198FFF763
:10BC500044FC0346002B14BF01230023DBB218462B
:10BC600003B05DF804FB00BF4C32030000B585B0A3
:10BC70000190019A02210020FFF762FC0023039348
:10BC80000BE0039B9B00019A13441B68002B01D01F
:10BC9000012306E0039B01330393039B012BF0D99F
:10BCA0000023184605B05DF804FB000000B587B01E
:10BCB0000190002305935BE0344A059B13446033F5
:10BCC00093F90030B3F1FF3F4ED00598FFF77CFDAC
:10BCD000049001990498FFF79FFC0346002B44D081
:10BCE0000598FFF785FD03468DF80F300498FFF7A0
:10BCF00009FC03468DF80E309DF80E30022B01D161
:10BD0000032300E002238DF80D309DF80D30194615
:10BD10000498FFF7B5FB0498FFF746FC0498FFF77B
:10BD200039FD03461846FFF743FD0290029B002BA6
:10BD30001BD09DF80F30032B0FD09DF80E30022B37
:10BD400003D19DF80F30012B07D09DF80E30032B47
:10BD50000BD19DF80F30022B07D19DF80F20029BCD
:10BD600011460498984700E000BF059B01330593F6
:10BD7000059B032BA0D90198FFF778FF0346002B02
:10BD800097D100BF00BF07B05DF804FB5C25002021
:10BD900000B58BB00023089301AB00221A605A60F3
:10BDA0004FF48073ADF81A300123099300230793F1
:10BDB00021E0BDF81A301846FFF7F8F90346002BCA
:10BDC0000ED00998FFF748FA0346002B08D0BDF8BB
:10BDD0001A301846FFF7FFF9089A099B1343089396
:10BDE000099B5B000993BDF81A300433ADF81A3093
:10BDF000079B01330793079B072BDAD94FF4BE70DB
:10BE0000FFF7D4F90346002B0DD04FF4BE70FFF7B7
:10BE1000E2F9089B43F00043089301AB1A46022164
:10BE20000020FFF78DFB089BDBB2002B29D00123FC
:10BE300009930023079321E0099A089B1340002BE4
:10BE400016D00798FFF772FA05900798FFF77EFA69
:10BE500003468DF813300798FFF7AAFC0390039B65
:10BE6000002B05D09DF81320039B11460598984799
:10BE7000099B5B000993079B01330793079B072BE3
:10BE8000DAD9089B002B03DA01AB1846FFF70EFF47
:10BE900000BF0BB05DF804FB08B5064B1B68002B18
:10BEA00003D105495120FBF7BBFA024B1B689847A9
:10BEB00008BD00BFC8250020C432030082B0019035
:10BEC000019B044A934201D1034B00E00023184632
:10BED00002B0704700200040C825002000B587B0A0
:10BEE00001900091019B002B03D11C497720FBF7A7
:10BEF00097FA0198FFF7E2FF0590059B002B25D0EC
:10BF000000238DF8133000238DF80B300DF10B0357
:10BF1000184602F0B5FD059B1B79002B03D00123C9
:10BF20008DF8133005E0059B009A1A60059B0122ED
:10BF30001A719DF80B30184602F0B8FD9DF81330C9
:10BF4000002B03D011230393039B02E000230393F0
:10BF5000039B184607B05DF804FB00BFC432030022
:10BF600000B585B00190019B002B03D10A499B20AD
:10BF7000FBF756FA0198FFF7A1FF0390039B002BF4
:10BF800005D0039B00221A60039B00221A7100BF98
:10BF900005B05DF804FB00BFC432030082B0034665
:10BFA0008DF807309DF90730002B0CDB9DF807302A
:10BFB00003F01F0205499DF907305B09012000FAD3
:10BFC00002F241F8232000BF02B0704700E100E018
:10BFD00082B003468DF807309DF90730002B13DB44
:10BFE0009DF8073003F01F0209499DF907305B09EE
:10BFF000012000FA02F2203341F82320BFF34F8FD3
:10C0000000BFBFF36F8F00BF00BF02B0704700BF1B
:10C0100000E100E082B0034600918DF807309DF901
:10C020000730002B0ADB009BDAB20C499DF9073080
:10C030005201D2B20B4483F800230BE0009BDAB22A
:10C0400007499DF8073003F00F03043B5201D2B2B9
:10C050000B441A7600BF02B0704700BF00E100E059
:10C0600000ED00E082B00190019B1B0B5BB2184613
:10C0700002B0704700B583B003460A468DF807301A
:10C0800013468DF806309DF80630012B03D99DF834
:10C090000630032B0BD99DF80630042B03D99DF8ED
:10C0A0000630072B03D908496B20FBF7B9F99DF837
:10C0B00006209DF9073011461846FFF7ABFF00BF79
:10C0C00003B05DF804FB00BF3833030000B583B054
:10C0D00003468DF807309DF907301846FFF75EFFDD
:10C0E00000BF03B05DF804FB00B583B003468DF8D4
:10C0F00007309DF907301846FFF76AFF00BF03B00D
:10C100005DF804FB84B001900B46ADF80230BDF839
:10C110000230019A134400221A60BDF80230019ADD
:10C1200013441B680393039B00BF04B0704782B0A5
:10C1300001900B46ADF80230BDF80230019A13446D
:10C140001B68002B14BF01230023DBB2184602B08A
:10C15000704782B001900091019B009AC3F80423BC
:10C1600000BF02B0704782B001900091019BD3F8EC
:10C170000423009B1340002B14BF01230023DBB2D8
:10C18000184602B0704782B001900091019B009A5E
:10C19000C3F8082300BF02B0704784B00190019B30
:10C1A000D3F880340393019B039AC3F88024039B44
:10C1B000184604B0704782B00190019B0422C3F876
:10C1C000002500BF02B0704782B00190019B0022A1
:10C1D000C3F8002500BF02B0704784B003900291FD
:10C1E0000192039B019AC3F81425039B029AC3F89A
:10C1F0000C2500BF04B0704700B583B001904FF02C
:10C20000FF324FF0FF310198FFF7E7FF00BF03B0A7
:10C210005DF804FB82B00190019BD3F80C35184601
:10C2200002B0704782B00190019BD3F814351846D4
:10C2300002B0704782B00190019BD3F808351846D0
:10C2400002B0704782B00190019BD3F810351846B8
:10C2500002B0704784B0039002910192039B029A4E
:10C26000C3F80825039B019AC3F8102500BF04B04A
:10C27000704700B583B001904FF0FF324FF0FF31AF
:10C280000198FFF7E7FF00BF03B05DF804FB82B041
:10C290000190019BD3F81835DBB2184602B0704705
:10C2A00082B001900B468DF803309DF80320019B6E
:10C2B000C3F81C2500BF02B0704782B001900B4646
:10C2C0008DF803309DF80330019A134401221A605F
:10C2D00000BF02B0704782B001900B468DF803306A
:10C2E00013468DF802309DF803209DF80230134369
:10C2F000DBB21A46019BC3F86C2500BF02B0704741
:10C3000082B001900091019B009AC3F8242500BFE0
:10C3100002B0704700B583B00190019B1B681846BE
:10C3200000F0A4F80346002B04D10B494FF4F6703B
:10C33000FBF776F8019B1B681F2B02D84FF0A04338
:10C3400006E0019B1B6803F01F02019B1A60034B70
:10C35000184603B05DF804FB683303000003005087
:10C3600000B585B00190084611461A4603468DF87F
:10C3700003300B468DF8023013468DF8013001ABC7
:10C380001846FFF7C7FF03909DF803209DF8023081
:10C390005B001A439DF801309B001A439DF818304A
:10C3A0001B0242EA03019DF81C301B04019A194349
:10C3B000039B02F5E07243F8221000BF05B05DF860
:10C3C00004FB00B585B00390002301930023009384
:10C3D0000023012201210398FFF7C2FF00BF05B02F
:10C3E0005DF804FB00B585B003900B468DF80B306B
:10C3F0009DF80B30002201920022009200220021C1
:10C400000398FFF7ADFF00BF05B05DF804FB00B572
:10C4100085B00390002301930023009300230122A1
:10C4200000210398FFF79CFF00BF05B05DF804FBF7
:10C4300000B585B0019001AB1846FFF76BFF039084
:10C44000019B012202FA03F31946039800F004F855
:10C4500000BF05B05DF804FB82B001900091019B24
:10C46000009AC3F8082500BF02B0704784B001905D
:10C47000019B5B09029300230393029B002B03D0D3
:10C48000029B012B04D007E04FF0FF33039303E03E
:10C490004FF6FF73039300BF019B03F01F0301934B
:10C4A000039A019B22FA03F303F00103DBB218465F
:10C4B00004B0704700B583B001900091009B1B68E9
:10C4C000B3F1FF3F09D0009B1B681846FFF7B0FF90
:10C4D000009B1B681846FFF774FF009B5B68B3F175
:10C4E000FF3F05D0009B5B6800211846FFF77AFFED
:10C4F000019B1A68009B9B6919461046FFF700FFD5
:10C50000019B1868009B597D009B1B7D1A46FFF715
:10C51000E2FE019B1868009B1968009B5B681A4645
:10C52000FFF75BFE009B1B7D012B22D1009B9B68CC
:10C53000B3F1FF3F05D0009B9B6800211846FFF731
:10C5400051FF009BDB68B3F1FF3F09D0009BDB6824
:10C550001846FFF76DFF009BDB681846FFF731FFB9
:10C56000019B1868009BD968009B9B681A46FFF7DF
:10C5700071FE00BF03B05DF804FB000000B583B09E
:10C5800001900B468DF80330019B1B684FF48E71B0
:10C590001846FFF7B7FD019B1B684FF4A2711846C0
:10C5A000FFF7B0FD019B1B680E491846FFF7D1FD50
:10C5B000019B1B681846FFF755FD03461A469DF878
:10C5C000033019461046FFF755FD019B1B681846BE
:10C5D000FFF748FD03461846FFF778FD00BF03B09C
:10C5E0005DF804FB8000020000B583B00190019B60
:10C5F0001B6808491846FFF7C6FD019B1B681846D3
:10C60000FFF730FD03461846FFF76EFD00BF03B08D
:10C610005DF804FB8402020000B587B00190019B25
:10C620001B681846FFF7F6FD0590019B1B6818462E
:10C63000FFF7F8FD0490019B1B681846FFF7FAFD11
:10C640000390019B1B681846FFF7FCFD0290019BBD
:10C650001B681846FFF7D0FD019B1B681846FFF7C3
:10C6600008FE059BB3F1FF3F02D00598FFF7CFFE10
:10C67000049BB3F1FF3F02D00498FFF7C8FE029B72
:10C68000B3F1FF3F02D00298FFF7C1FE039BB3F165
:10C69000FF3F02D00398FFF7BAFE00BF07B05DF876
:10C6A00004FB000000B587B0039002910192029B49
:10C6B000002B03D12D49AA20FAF7B2FE039B1B7968
:10C6C0001A462C2302FB03F3294A13440493002344
:10C6D0000593049B93F82A30002B03D0082305937D
:10C6E000059B3EE0039B1A68039B1B791946214B6F
:10C6F00053F8213019461046FFF7F0FB0346002B94
:10C7000003D011230593059B2BE002990398FFF7B3
:10C71000D1FE049B019A5A60029B1A69049B1A601D
:10C72000049B5B68002B05D0029B1B7F1946039876
:10C73000FFF724FF039B1B681846FFF73CFD049B93
:10C7400000229A61049B0022DA61049B002283F894
:10C750002920049B00225A61049B012283F82A208D
:10C76000059B184607B05DF804FB00BFA03303002B
:10C77000D02500201034030000B585B00190019B46
:10C780001B791A462C2302FB03F3114A134403932B
:10C79000019B1B681846FFF717FD039B5B68002B86
:10C7A00002D00198FFF720FF0198FFF735FF019BAA
:10C7B0001B681846FFF7D4FB039B002283F82A204E
:10C7C000039B00225A6000BF05B05DF804FB00BF68
:10C7D000D025002000B585B0019000914FF48E71F6
:10C7E0000198FFF78FFC009B9A68009B1B6A13441B
:10C7F0001B788DF80F30009B1B6A5A1C009B1A6235
:10C800009DF80F3019460198FFF74AFD00BF05B0AB
:10C810005DF804FB00B585B001900091009B5B6959
:10C82000039316E0009B93F82830DBB2002B01D075
:10C83000002314E04FF48E710198FFF778FC034653
:10C8400083F00103DBB2002BECD100990198FFF7D4
:10C85000C1FF009B1B6A039A9A42EBD8012318463A
:10C8600005B05DF804FB000000B587B003900291AD
:10C870000192039B1B791A462C2302FB03F33C4ACB
:10C8800013440493049B93F82A30012B04D03949B4
:10C890004FF48C70FAF7C4FD029B002B04D135498C
:10C8A00040F21910FAF7BCFD019B002B04D131496D
:10C8B0004FF48D70FAF7B4FD039800F05DF803466D
:10C8C000002B03D011230593059B4CE0049B019A98
:10C8D0005A61049B029A9A60049B00221A62049B8C
:10C8E000002283F8282000230593039B1B684FF444
:10C8F0008E711846FFF706FC039B1B68082118463B
:10C90000FFF7DBFC039B1B6804991846FFF762FFE7
:10C91000049B5B68002B25D1039B1B680499184678
:10C92000FFF778FF034683F00103DBB2002B02D050
:10C930000F23059313E000BF039B1B684FF48E7118
:10C940001846FFF7F4FB034683F00103DBB2002B2C
:10C95000F2D1039B1B680C211846FFF7AEFC049B29
:10C9600000225A61059B184607B05DF804FB00BF22
:10C97000D0250020A033030082B00190019B1B79D9
:10C980001946074A2C2301FB03F3134414331B6895
:10C99000002B14BF01230023DBB2184602B07047FE
:10C9A000D025002010B582B001900091009B9B69BA
:10C9B000002B08D14FF484710198FFF7A3FB019875
:10C9C000FFF765FC13E04FF484710198FFF79AFBC1
:10C9D000009BDA68009B5B6AD4180198FFF757FC4C
:10C9E00003462370009B5B6A5A1C009B5A6202B08C
:10C9F00010BD00B589B003900291019201238DF81A
:10CA00001030029B0693019B0593039B5B68039A7E
:10CA1000116804AA1046984700BF09B05DF804FBEE
:10CA200000B587B00190009100238DF80830009B7D
:10CA30000493019B9B680393019B00225A61019B15
:10CA40005B68019A116802AA1046984700BF07B0B8
:10CA50005DF804FB00B58BB0019000914FF40071BC
:10CA60000198FFF780FB0346002B39D04FF49271F9
:10CA70000198FFF75CFB0346002B31D04FF4927115
:10CA80000198FFF73FFB4FF401710198FFF77BFB23
:10CA9000009B93F8293083F00103DBB2002B03D015
:10CAA00004210198FFF709FC02238DF80C3001984E
:10CAB000FFF773FB03460693009B9B690593009B5E
:10CAC000DB680493009B00229A61009B0022DA61DC
:10CAD000009B5B68009A116803AA1046984752E0D1
