:020000022000DC
:1070000000000420197202000172020003720200E3
:1070100005720200077202000972020000000000FF
:107020000000000000000000000000000B720200E1
:107030000D720200000000000F72020011720200C7
:107040001372020013720200817E020013720200AA
:107050001372020013720200137202001372020014
:107060001372020013720200137202001372020004
:1070700013720200137202001372020013720200F4
:107080001372020061810200137202001372020087
:107090001372020013720200A9B4020013720200FC
:1070A00013720200137202001372020013720200C4
:1070B00013720200137202000000000000000000C2
:1070C00013720200137202001372020013720200A4
:1070D0001372020013720200137202001372020094
:1070E000137202001372020013720200000000000B
:1070F0000000000013720200000000001372020082
:10710000000000000000000000000000000000007F
:10711000000000000000000000000000000000006F
:10712000000000000000000000000000000000005F
:10713000000000000000000000000000000000004F
:10714000000000000000000000000000000000003F
:10715000000000000000000000000000000000002F
:10716000000000000000000000000000000000001F
:10717000000000000000000000000000000000000F
:1071800000000000000000000000000000000000FF
:1071900000000000000000000000000000000000EF
:1071A00000000000000000000000000000000000DF
:1071B00000000000000000000000000000000000CF
:1071C00000000000000000000000000000000000BF
:1071D00000000000000000000000000000000000AF
:1071E000000000000000000000000000000000009F
:1071F000000000000000000000000000000000008F
:10720000FEE7FEE7FEE7FEE7FEE7FEE7FEE7FEE756
:10721000FEE7FEE700F002B8FFF7FCBF0F484FF0B3
:107220000701884385460E4880470E48016841F4AF
:1072300070010160BFF34F8FBFF36F8F00F01AB87A
:1072400009480A490A4A884207D0521A05D00378E9
:1072500001300B700131013AF9D170470000042070
:10726000597C020088ED00E01CBA02006022002078
:107270008C22002039493A480A1A02D00722914349
:107280008D46384938480A1A06D00722914381F3BF
:107290000988022282F3148834483549354A00F0BF
:1072A0003EF835483549364A00F039F83548364910
:1072B000364A00F034F836483649374A00F02FF89D
:1072C00036483749374A00F02AF837483749384AAC
:1072D00000F025F837483849384A00F020F8384897
:1072E0003849002200F033F837483849002200F0CE
:1072F0002EF837483749091A04F044FA364A9047BD
:1073000024482549884205D00268043003B49047D8
:1073100003BCF7E700200021304A9047FEE788428F
:1073200014D0521A12D003460B43134303242342B2
:1073300006D1036804300B600431043AF9D1704778
:10734000037801300B700131013AF9D1704788425E
:1073500002D002700130FAE77047000000000420FC
:1073600000E00320000004200000042090CD020073
:107370008C220020B0220020E0730200E0730200A3
:10738000C4B9020090CD02008C2200208C22002083
:1073900048BA020048BA020048BA020048BA0200DD
:1073A00048BA020048BA020048BA020048BA0200CD
:1073B0008DCD0200B4CD0200B0220020B02200200A
:1073C000B0220020B4230020B4230020B4230020E6
:1073D000B4230020B4430020417202005174020023
:1073E00000B587B00390039B5B68002B21D1039B02
:1073F0001B78012B19D0022B1DD1292000F08CF90C
:10740000002300930C230F4A4FF41C310E4802F066
:10741000F2FF0590059B0493049B002B0DD00B4AB3
:107420002F21049800F08AFD07E00C2000F074F989
:1074300004E000BF02E000BF00E000BF07B05DF85D
:1074400004FB00BF8C2200206022002048BA02000A
:1074500000B589B0012000F010FA00F091F903F0B6
:1074600043FF0790079B0693069B002B04D0254AF9
:107470004321069800F062FD0023019301AB1946F9
:10748000032004F047F80790079B0593059B002B0A
:1074900004D01C4A4721059800F050FD01AB184666
:1074A00004F0B2F80790079B0493049B002B04D0D0
:1074B000144A4A21049800F041FD00221249134861
:1074C00002F07CFF0790079B0393039B002B04D0E3
:1074D0000C4A4E21039800F031FD002301224FF4A5
:1074E0001C310A4802F0D8FF0790079B0293029BC9
:1074F000002B04D0034A5221029800F01FFD20BF48
:10750000FDE700BF48BA020000C60200602200206A
:10751000BFF34F8F00BF064BDB6803F4E062044902
:10752000044B1343CB60BFF34F8F00BF00BFFDE799
:1075300000ED00E00400FA0500B583B00190019B66
:107540001B68184600F0C3F80346002B04D10B4912
:107550004FF4F67000F012FE019B1B681F2B02D83F
:107560004FF0A04306E0019B1B6803F01F02019B44
:107570001A60034B184603B05DF804FBB8BA02006A
:107580000003005000B585B00190084611461A4628
:1075900003468DF803300B468DF8023013468DF804
:1075A000013001AB1846FFF7C7FF03909DF8032099
:1075B0009DF802305B001A439DF801309B001A438E
:1075C0009DF818301B0242EA03019DF81C301B0491
:1075D000019A1943039B02F5E07243F8221000BFA1
:1075E00005B05DF804FB00B585B00390002301935E
:1075F000002300930023012201210398FFF7C2FF1B
:1076000000BF05B05DF804FB00B585B003900B46E4
:107610008DF80B309DF80B30002201920022009271
:10762000002200210398FFF7ADFF00BF05B05DF811
:1076300004FB00B585B0019001AB1846FFF77CFF55
:107640000390019B012202FA03F31946039800F00C
:107650002AF800BF05B05DF804FB00B585B00190C5
:1076600001AB1846FFF768FF0390019B012202FA65
:1076700003F31946039800F020F800BF05B05DF849
:1076800004FB00B583B001900091009B002B03D157
:107690000198FFF7E2FF02E00198FFF7CAFF00BF81
:1076A00003B05DF804FB82B001900091019B009A49
:1076B000C3F8082500BF02B0704782B00190009166
:1076C000019B009AC3F80C2500BF02B0704784B03C
:1076D0000190019B5B09029300230393029B002B03
:1076E00003D0029B012B04D007E04FF0FF3303933C
:1076F00003E04FF6FF73039300BF019B03F01F03EA
:107700000193039A019B22FA03F303F00103DBB216
:10771000184604B07047000000B583B00190019B8B
:10772000032B03D90749412000F028FD064A019B9D
:1077300013441B7800211846FFF7A3FF00BF03B0D6
:107740005DF804FBE8BA020050BB020000B583B04C
:107750000190019B032B03D90749472000F00EFD40
:10776000064A019B13441B7801211846FFF789FF45
:1077700000BF03B05DF804FBE8BA020050BB020092
:1077800000B583B00023019305E00198FFF7DEFF09
:10779000019B01330193019B032BF6D900BF00BF6E
:1077A00003B05DF804FB000008B54FF01023D3F8D8
:1077B000043303F00703072B21D1124B0122C3F836
:1077C000042500BF0F4BD3F80034002BFAD04FF044
:1077D0001023D3F8043323F007034FF0102243F0B3
:1077E0000403C2F80433074B0022C3F8042500BF8A
:1077F000044BD3F80034002BFAD0FFF789FE00BF0A
:1078000008BD00BF00E0014000B583B04FF08043E9
:10781000D3F8403603F00103002B01D0FFF7C4FF7B
:107820000023019309E0094A019B13441B78184681
:10783000FFF7D9FE019B01330193019B032BF2D982
:10784000FFF79EFF00BF03B05DF804FB50BB0200D2
:1078500000B583B00023019307E0262303211846D7
:10786000FFF7D2FE019B01330193019B002BF4D063
:1078700000BF00BF03B05DF804FB00B583B001900A
:10788000019B03F00103002B01D0FFF7BDFF019B1B
:1078900003F00203002B01D0FFF7DAFF00BF03B0B3
:1078A0005DF804FBBFF34F8F00BF064BDB6803F4AA
:1078B000E0620449044B1343CB60BFF34F8F00BF1A
:1078C00000BFFDE700ED00E00400FA0582B0164BB2
:1078D0001B680193154B1B680093019B082B1FD15C
:1078E000009B052B1AD801A252F823F0057902005B
:1078F000097902000D790200117902001579020060
:107900001979020001230CE001230AE0012308E0B9
:10791000012306E0012304E0012302E0012300E04B
:107920000023184602B070473001001034010010E7
:1079300082B0164B1B680193154B1B680093019B8B
:10794000082B1FD1009B052B1AD801A252F823F057
:10795000697902006D79020071790200757902007F
:10796000797902007D79020001230CE001230AE00D
:10797000012308E0012306E0012304E0012302E0E3
:10798000012300E00023184602B0704730010010C8
:107990003401001082B0164B1B680193154B1B6815
:1079A0000093019B082B1FD1009B052B1AD801A225
:1079B00052F823F0CD790200D1790200D579020086
:1079C000D9790200DD790200E179020001230CE09F
:1079D00000230AE0002308E0002306E0002304E07F
:1079E000002302E0002300E00023184602B07047A5
:1079F000300100103401001082B0164B1B68019357
:107A0000154B1B680093019B082B1FD1009B052B76
:107A10001AD801A252F823F0317A0200357A020016
:107A2000397A02003D7A0200417A0200457A02006A
:107A300001230CE000230AE0002308E0002306E015
:107A4000002304E0002302E0002300E000231846A6
:107A500002B07047300100103401001082B0164BA4
:107A60001B680193154B1B680093019B082B1FD1CA
:107A7000009B052B1AD801A252F823F0957A020038
:107A8000997A02009D7A0200A17A0200A57A02008A
:107A9000A97A020001230CE000230AE0002308E099
:107AA000002306E0002304E0002302E0002300E0BE
:107AB0000023184602B07047300100103401001056
:107AC00082B0164B1B680193154B1B680093019BFA
:107AD000082B1FD1009B052B1AD801A252F823F0C6
:107AE000F97A0200FD7A0200017B0200057B0200A8
:107AF000097B02000D7B020001230CE000230AE059
:107B0000002308E0002306E0002304E0002302E055
:107B1000002300E00023184602B070473001001037
:107B20003401001082B0164B1B680193154B1B6883
:107B30000093019B082B1FD1009B052B1AD801A293
:107B400052F823F05D7B0200617B0200657B02003E
:107B5000697B02006D7B0200717B020001230CE057
:107B600001230AE0012308E0012306E0012304E0E9
:107B7000012302E0012300E00023184602B0704711
:107B8000300100103401001082B0164B1B680193C5
:107B9000154B1B680093019B082B1FD1009B052BE5
:107BA0001AD801A252F823F0C17B0200C57B020063
:107BB000C97B0200CD7B0200D17B0200D57B020095
:107BC00000230CE000230AE0002308E0002306E085
:107BD000012304E0012302E0012300E00023184612
:107BE00002B07047300100103401001008B5FFF7F3
:107BF000CBFF0346002B07D04FF010234FF08042FD
:107C0000D3F80832C2F8583500BF08BD00BF044B96
:107C1000D3F80034002BFAD000BF00BF704700BF7C
:107C200000E0014000B583B00190054A019BC2F815
:107C30000435FFF7EBFF00BF03B05DF804FB00BFA6
:107C400000E00140024B034A1A6000BF704700BFCA
:107C5000982200200090D00308B5FFF737FE0346B6
:107C6000002B0ED04FF080430022C3F80C214FF0C0
:107C700080430022C3F810214FF080430022C3F854
:107C80003825FFF755FE0346002B76D04FF0805382
:107C9000734AD3F80434C2F820354FF08053704A49
:107CA000D3F80834C2F824354FF080536C4AD3F827
:107CB0000C34C2F828354FF08053694AD3F8103499
:107CC000C2F82C354FF08053654AD3F81434C2F80B
:107CD00030354FF08053624AD3F81834C2F8343547
:107CE0004FF080535E4AD3F81C34C2F840354FF051
:107CF00080535B4AD3F82034C2F844354FF08053A8
:107D0000574AD3F82434C2F848354FF08053544AC8
:107D1000D3F82834C2F84C354FF08053504AD3F88A
:107D20002C34C2F850354FF080534D4AD3F83034DC
:107D3000C2F854354FF08053494AD3F83434C2F86E
:107D400060354FF08053464AD3F83834C2F8643572
:107D50004FF08053424AD3F83C34C2F868354FF0B4
:107D600080533F4AD3F84034C2F86C354FF080530B
:107D70003B4AD3F84434C2F87035FFF70BFE034694
:107D8000002B02D0374B384A1A60FFF735FE034606
:107D9000002B03D0354BFB22C3F81825FFF75EFEFE
:107DA0000346002B0AD0324B1B6823F00F02314BE5
:107DB0001B6803F00F032E4913430B60FFF780FE8F
:107DC0000346002B03D02C4B4FF400721A60FFF7D0
:107DD000A9FE0346002B0DD04FF08043D3F80034AA
:107DE00003F00103002B05D04FF080436FF0010238
:107DF000C3F80024214BD3F88830204A43F47003A1
:107E0000C2F88830BFF34F8F00BFBFF36F8F00BF42
:107E1000FFF7ECFE4FF01023D3F80032002B05DB08
:107E20004FF01023D3F80432002B15DA0120FFF7AE
:107E3000F9FE4FF010231222C3F80022FFF7E6FEEE
:107E40004FF010231222C3F80422FFF7DFFE0020B8
:107E5000FFF7E8FEFFF726FDFFF7F4FE00BF08BDC1
:107E600000C000408C5600404881030000F00040F4
:107E7000E40E0040580200104096024000ED00E081
:107E800008B5064B1B68002B03D10549512000F0B3
:107E900075F9024B1B68984708BD00BFB02200204F
:107EA00054BB020086B003900291019201238DF829
:107EB00017309DF81730204A039B13601E4A029B1F
:107EC00053601D4A019B9360039B44F2010293425D
:107ED00012D0039B44F20202934220D1019B164A26
:107EE000D360154BDB681B68134A9361124BDB6848
:107EF0005B68114AD36112E0019B0F4A13610E4B7C
:107F00001B699B680C4A53610B4B1B691B680A4A2F
:107F10009361094B1B695B68074AD36100BF72B666
:107F200000BF00BF9DF81730DBB2002BFAD162B65C
:107F300000BF00BF06B07047B822002000B583B074
:107F400002900091019244F2010071466A4600F0ED
:107F500003F803B000BD00BF00B587B003900291E5
:107F6000019272B600BF039B44F20202934217D003
:107F7000039B44F20202934218D8039B44F201028D
:107F8000934210D0039B44F2010293420ED8039B0C
:107F9000012B0DD0039B41F2010293420AD005E070
:107FA000019B059307E0019B049304E000BF02E0FE
:107FB00000BF00E000BF084B1B6803F00103002B6B
:107FC00000D000BE019A02990398FFF76BFF00BF33
:107FD00007B05DF804FB00BFF0ED00E082B0EFF306
:107FE00010830093009B019372B600BF019B18465B
:107FF00002B0704762B600BF00BF704700B585B0E1
:108000000190FFF7EBFF0390164B9B68002B1BD1F1
:10801000144B01229A60144BD3F88020134B134069
:10802000104A1360104B114AC3F880200E4BD3F84E
:1080300084300C4A53600C4B4FF0FF32C3F884205D
:10804000019B00221A7002E0019B01221A70039B1F
:10805000002B01D1FFF7CEFF0023184605B05DF8D5
:1080600004FB00BFD822002000E100E0FC06FFBDB9
:1080700000B585B003468DF80730104B9B68002B88
:1080800016D09DF80730002B12D1FFF7A7FF039001
:108090000B4A0A4B1B681360094A084B5B68536024
:1080A000064B00229A60039B002B01D1FFF7A2FF31
:1080B0000023184605B05DF804FB00BFD82200205D
:1080C00000E100E000B583B0019000F02BF803461A
:1080D000012B03D00549432000F050F80198FFF729
:1080E0008DFF00BF03B05DF804FB00BFC8BB0200FA
:1080F00000B583B003468DF8073000F013F803464F
:10810000012B03D00649512000F038F89DF80730C4
:108110001846FFF7ADFF00BF03B05DF804FB00BFDA
:10812000C8BB020084B0EFF305830193019BC3F346
:1081300008030393039B002B0DD1EFF314830093EB
:10814000009B0293029B03F00103002B0CBF012351
:108150000023DBB200E00123184604B070470000A2
:1081600008B5044B1B68044A12681046984700BFC4
:1081700008BD00BFE4220020E822002000B585B041
:1081800003460091ADF80630BDF806300293009B1F
:10819000039302AB1A46002144F20200FFF7DCFE13
:1081A00000BF05B05DF804FB86B001900091019B13
:1081B00053E8011F8AB2D88902449889824228BFB5
:1081C000121A1889824202BFBFF32F8F002307E0E3
:1081D000C2EA010243E801200028E9D14FF001037F
:1081E0008DF80F30059002910492029A009B1A605C
:1081F0009DF80F30DBB2184606B0704784B001908E
:10820000019951E8013FC3EA034341E80132002AE2
:10821000F7D10392029300BF04B0704786B001907B
:108220000091019B53E8021F1FFAA1F2D8888242F5
:1082300002BFBFF32F8F00230DE0D8890244988935
:10824000824228BF121AC1EA024243E802200028F3
:10825000E8D14FF001038DF80F30059002910492A0
:10826000029A009B1A609DF80F30DBB2184606B0E8
:10827000704784B00190019951E8023FC3EA23435B
:1082800041E80232002AF7D10392029300BF04B002
:10829000704786B00190019B53E8021FDA88B1EB6A
:1082A000314F4FF0000017BF89B242EA024241EA63
:1082B000024204E05968B1EB314F08BF012043E8A6
:1082C00002210029E8D18DF80F00059104929DF854
:1082D0000F30DBB2184606B0704784B003900291AD
:1082E00011461A460B46ADF806301346ADF8043079
:1082F000029B002B01D10E231FE0BDF80630BDF814
:108300000420B3FBF2F101FB02F29B1A9BB2002B9B
:1083100001D0092311E0039B029A1A60039B0022FB
:108320005A60039B00229A60039BBDF806209A8145
:10833000039BBDF80420DA810023184604B070477F
:1083400000B585B001900198FFF7A3FF03468DF8B3
:108350000F309DF80F30002B01D0002300E01123D7
:10836000184605B05DF804FB00B585B0019000919A
:10837000009B19460198FFF717FF0346002B07D013
:10838000019B1B68009A128813440393039B00E02F
:108390000023184605B05DF804FB00B583B00190DA
:1083A0000091009B1A88009B5B889A4204D1019837
:1083B000FFF724FF012300E00023184603B05DF817
:1083C00004FB00B585B001900091009B194601980F
:1083D000FFF724FF0346002B07D0019B1B68009A80
:1083E000528813440393039B00E00023184605B012
:1083F0005DF804FB00B583B001900091009B1A88E2
:10840000009B5B889A4204D10198FFF732FF012359
:1084100000E00023184603B05DF804FB10B487B0F9
:1084200001900091019B009A53E8004F44EA02003A
:1084300043E8000191F0000FF6D1059404900391F8
:10844000059B184607B05DF8044B704700B583B034
:10845000019001210198FFF7E1FF0346184603B0A0
:108460005DF804FB00B583B00190019B002B04D1A3
:10847000054940F24510FFF781FE019B1B681B79FF
:10848000184603B05DF804FB40BC020000B583B0A1
:108490000190019B002B04D1074940F25510FFF7D2
:1084A0006DFE019B9A68019B1B681B68D31ADBB2A7
:1084B000184603B05DF804FB40BC020082B0019096
:1084C000019B9B68D3F84831C3F34003DBB2002B18
:1084D00014BF01230023DBB2184602B0704700002E
:1084E00000B597B00B900A9109920B98FFF7E6FF41
:1084F0000346002B05D0002200210B9800F0BAFDA6
:1085000061E00A9B012B05D9304A02210B9800F04B
:1085100085FC58E02E4A2F4BD31A2F4AA2FB032387
:108520001B0914930023159349E0159A13465B0029
:108530001344DB001A46274B13441393139B9B8A67
:108540001293139B9B8A1A46129BD31A1193139B67
:108550009A68139B5B68D31A10931398FFF782FFF6
:1085600003460F931398FFF791FF03460E93139B57
:108570001B690D930E9B642203FB02F2109BB2FB5E
:10858000F3F30F9A642102FB01F1109AB1FBF2F2AE
:10859000109907910F9906910592109A04920E9ADC
:1085A00003920293119B0193129B00930D9B0B4A24
:1085B00008210B9800F032FC159B01331593159A96
:1085C000149B9A42B1D317B05DF804FBB4BC02000F
:1085D0001CBA02001CBA0200ABAAAAAAC8BC0200BC
:1085E00082B00190019B9B68D3F84831C3F34003EC
:1085F000DBB2002B14BF01230023DBB2184602B00C
:108600007047000000B585B00190019B002B0AD097
:10861000074B43F001030393019B9B010293039BD0
:108620000298984700E000BF05B05DF804FB00BF6A
:10863000D0C4020000B583B00190019B1B691846AD
:1086400001F0EEFA00BF03B05DF804FB82B00190C8
:10865000019B9A68B2F8483143F00803A2F8483108
:1086600000BF02B0704782B00190019B9A68B2F8D7
:10867000483123F00803A2F8483100BF02B0704728
:1086800082B00190019B9B68D3F84831C3F3C003CB
:10869000DBB2184602B0704700B583B00190019B71
:1086A000002B04D0019803F078F8034600E0002383
:1086B000184603B05DF804FB10B588B00390029132
:1086C00001920093039B002B02D0029B002B03D14D
:1086D0002D49F420FFF752FD039B5B681B68002BBC
:1086E00003D12949F520FFF749FD002307933EE018
:1086F000039B5B681B68DC68039B5868029A079BB6
:10870000D11805AB019AA0470690069B002B03D019
:108710001D49FF20FFF732FD059B019A9A4204D2C2
:1087200019494FF48070FFF729FD059B079A134400
:108730000793059B019AD31A0193059B002B16D131
:10874000039B9B681B78032B11D000BF039B9B6886
:10875000D3F84831C3F34013DBB2002BF6D0039BB0
:108760009A68B2F8483123F02003A2F84831019BFF
:10877000002BBDD1009B002B02D0059A009B1A60F4
:1087800000BF08B010BD00BF58BE020000B583B0E6
:1087900001900B468DF80330019B1B699DF8032067
:1087A0000349184601F05EFA00BF03B05DF804FB10
:1087B000C8BE020010B586B00390029101920093EA
:1087C000039B002B02D0029B002B04D10D4940F2E9
:1087D0002310FFF7D3FC039B5B68002B04D10949EE
:1087E0004FF49270FFF7CAFC039B5B681B681C691F
:1087F000039B5868009B019A0299A047059000BF0F
:1088000006B010BD58BE020000B589B003900291B9
:1088100001920093009B002B04D13B494FF49C70C4
:10882000FFF7ACFC0A9B002B04D1374940F239100A
:10883000FFF7A4FC029B002B34D1344A344BD31AEB
:10884000DB08019A9A4229D200230693314B059303
:10885000002307931BE0079BDB002D4A134406937C
:10886000019B9B00059A13441A68069B5B681B6872
:108870001946104602F0A6FF0346002B04D1069BC2
:108880005A68009B1A603CE0079B013307931F4A1C
:108890001F4BD31ADB08079A9A42DCD3009B0022B5
:1088A0001A602EE0039B002B03D1009B00221A606C
:1088B00027E0039B1B78002B10D0039B5B680A9971
:1088C000019898470A9B1B68002B03D1009B00224C
:1088D0001A6016E0009B0A9A1A6012E0039B5A681D
:1088E000019B1B0113441B68002B07D0039B5A6894
:1088F000019B1B011A44009B1A6002E0009B0022AE
:108900001A6009B05DF804FB58BE0200F4B9020019
:10891000C4B902007422002000B583B00190019B0D
:108920001B690449184601F09DF900BF03B05DF8CA
:1089300004FB00BFD0BE020000B583B001900B461F
:108940008DF803309DF80330002B07D0019B1B6985
:108950009DF803200349184601F084F900BF03B0D5
:108960005DF804FBD4BE020000B583B001900B4655
:108970008DF803309DF80330002B07D0019B1B6955
:108980009DF803200349184601F06CF900BF03B0BD
:108990005DF804FBDCBE020000B583B001900B461D
:1089A0008DF803309DF80330002B07D0019B1B6925
:1089B0009DF803200349184601F054F900BF03B0A5
:1089C0005DF804FBE4BE020000B583B001900B46E5
:1089D0008DF803309DF80330002B07D0019B1B69F5
:1089E0009DF803200349184601F03CF900BF03B08D
:1089F0005DF804FBECBE020000B587B001900023D7
:108A0000ADF816300023ADF8143000238DF80B308C
:108A100000238DF81330019B9B68A0338022002136
:108A2000184602F035FF019B1B697649184601F094
:108A300019F90198FFF7FEFD0023ADF81030D5E0DD
:108A400003AB0DF10B0101220198FFF7B3FE039B6D
:108A5000002B04D140F2E730FFF7D4FDBDE09DF8D4
:108A60000B301B2B06D0019B9B6893F8A0301B2B6F
:108A700040F0B2809DF80B30522B40F09380019B68
:108A80009A689DF813301344002283F8A020019BBC
:108A90009B6893F8A1305B2B06D0019B9B6800225A
:108AA00083F8A0200B23A8E002238DF813301BE0ED
:108AB000BDF814301A46920013445B009AB2019B31
:108AC00099689DF81330581C8DF813000B4493F8E7
:108AD000A03013449BB2303BADF814309DF91330F5
:108AE000002B01DA0C2388E0019B9A689DF8133073
:108AF000134493F8A0303B2BDAD19DF813300133A7
:108B00008DF813309DF91330002B1DDA0C2374E01F
:108B1000BDF816301A46920013445B009AB2019BCE
:108B200099689DF81330581C8DF813000B4493F886
:108B3000A03013449BB2303BADF816309DF9133092
:108B4000002B01DA0C2358E0019B9A689DF8133042
:108B5000134493F8A030002BDAD1BDF81630FA2B6D
:108B600004D9019B9B68FA221A7505E0019B9B685A
:108B7000BDF81620D2B21A75BDF81430FA2B04D9FC
:108B8000019B9B68FA229A7505E0019B9B68BDF8E2
:108B90001420D2B29A75019B9B68002283F8A02012
:108BA00000232AE0019B9A689DF813309DF80B1072
:108BB00013440A4683F8A0209DF8133001338DF842
:108BC00013309DF81330092B07D9019B9B680022B5
:108BD00083F8A020042310E000BF039B002B7FF448
:108BE0002FAFBDF810300133ADF81030BDF81030A4
:108BF000B3F57A7FFFF424AF0D23184607B05DF874
:108C000004FB00BFBCC4020000B587B00390029112
:108C10000192029B002B04D12A4940F24930FFF710
:108C2000ADFA019B002B04D1264940F24A30FFF7F0
:108C3000A5FA0398FFF7E0FE0346002B18D1039B2B
:108C40009B681B7DADF81630039B9B689B7DADF840
:108C50001430FA210398FFF787FEFA210398FFF7F3
:108C6000B3FE0398FFF7C8FE0346002B24D101E0B2
:108C7000062322E0039B9B681A7D029B1A70039BCC
:108C80009B689A7D019B1A70029B1A78BDF816307A
:108C9000DBB2D31ADBB219460398FFF74DFE019BF6
:108CA0001A78BDF81430DBB2D31ADBB21946039838
:108CB000FFF772FE002300E00623184607B05DF8B8
:108CC00004FB00BF58BE020000B585B001900B4602
:108CD0008DF803309DF80330002B2ED0019B9B684C
:108CE000DB7E9DF803209A4234D01B238DF8083098
:108CF0005B238DF8093031238DF80A303B238DF842
:108D00000B3033238DF80C309DF803302F33DBB25A
:108D10008DF80D306D238DF80E3000238DF80F3057
:108D2000019B9B689DF80320DA76019B1B6902AAD0
:108D30000A49184600F096FF0DE0019B9B689DF8DC
:108D40000320DA76019B1B69054A0449184600F0A6
:108D500089FF00E000BF05B05DF804FBCCBE020057
:108D6000D8C4020000B585B001900B468DF80330E1
:108D70009DF80330002B29D0019B9B681B7F9DF839
:108D800003209A4221D01B238DF808305B238DF8F5
:108D9000093034238DF80A309DF803302F33DBB2CD
:108DA0008DF80B306D238DF80C3000238DF80D30CD
:108DB000019B9B689DF803201A77019B1B6902AAFF
:108DC0000449184600F04EFF00E000BF05B05DF812
:108DD00004FB00BFCCBE020082B001900091019B59
:108DE0009B681B331B889AB2009B1A8000BF02B09D
:108DF000704700B583B001900091009B1B78194625
:108E00000198FFF761FF009B5B7819460198FFF717
:108E1000A9FF00BF03B05DF804FB00000CB400B56F
:108E200085B001900B468DF80330069B002B04D1D2
:108E30002B4940F66130FFF7A1F9019B002B04D1CB
:108E4000274940F66230FFF799F9019B9B68002B98
:108E500007D0019B5B68002B03D0019B1B68002B94
:108E600004D11F4940F66330FFF788F900230393CC
:108E700007AB0393019B9B68D3F84831C3F380038E
:108E8000DBB2002B1ED0019B9B68DB7E9DF803208C
:108E90009A4217D002AB19460198FFF79DFF9DF843
:108EA000033019460198FFF70FFF019B1B6903AAC6
:108EB0000699184601F0BEF802AB19460198FFF773
:108EC00098FF07E0019B1B6903AA0699184601F069
:108ED000B1F800BF00BF05B05DF804EB02B0704709
:108EE00058BE020000B589B00390029101928DF83E
:108EF0000330029B002B00F0B8809DF80330002B5C
:108F000005D0019BDBB219460398FFF72DFD002326
:108F1000069302E0069B01330693029A069B1344D4
:108F20001B78184602F004FD0346002BF2D1002303
:108F300005930298FFF7B0FB0246069BD31A0793EE
:108F4000039B9B685B7E1A46019BD31A079A9A4241
:108F500038D80023059324E0069A059B1344029A0F
:108F600013441B780A2B19D10398FFF763FB029A6D
:108F7000069BD1180023059A0398FFF79DFB059ADD
:108F8000069B1344013306930398FFF7C5FC019B2E
:108F9000DBB219460398FFF7E7FC06E0059B0133B7
:108FA0000593059A079B9A42D6D3039B1869029AA8
:108FB000069B1344194600F055FE00BF0398FFF7C7
:108FC000ABFC53E0039B9B685B7E1A46019BD31A64
:108FD0000793069A059B1344029A13441B7818467C
:108FE00002F0A6FC0346002B09D0059B0793069AC6
:108FF000059B1344029A13441B780A2B0BD0059A45
:10900000019B1344039A9268527E934205D2059BBA
:1090100001330593DDE700BF00E000BF0398FFF7D1
:1090200009FB029A069BD1180023079A0398FFF7C1
:1090300043FB069A079B1344069302E0069B013309
:109040000693029A069B13441B78184602F070FCA4
:109050000346002BF2D10398FFF75EFC019BDBB2C5
:1090600019460398FFF780FC61E700BF09B05DF87F
:1090700004FB000030B591B0059004910392059B6C
:10908000002B04D1B34940F6E230FFF777F8059B97
:109090009B68002B07D0059B5B68002B03D0059BCA
:1090A0001B68002B04D1AB4940F6E330FFF766F8AC
:1090B0000023ADF83E30A848FFF7EEFA03469CB215
:1090C000A648FFF7E9FA03469BB2E31AADF83C3035
:1090D000059B9B685B68A24A0092A24A08210598FA
:1090E000FFF79CFE059B9B685B681846FFF7D4FA68
:1090F00003469CB29A48FFF7CFFA03469BB223443B
:10910000ADF83E30059B9B689968BDF83E20002372
:109110000598FFF7E7FE944A00210598FFF77EFEC9
:10912000039B002B4AD0049B002B47D000230E93B7
:1091300040E00E9A13465B0013449B001A46049BC2
:1091400013445B681846FFF7A7FA04460E9A1346C5
:109150005B0013449B001A46049B13441B6818468B
:10916000FFF79AFA0346E218BDF83C309A421ED93E
:109170000E9A13465B0013449B001A46049B13444B
:109180005B681846FFF788FA03469CB20E9A1346AE
:109190005B0013449B001A46049B13441B6818464B
:1091A000FFF77AFA03469BB22344ADF83C300E9B9E
:1091B00001330E930E9A039B9A42BAD36748FFF786
:1091C0006BFA0346694A127813449AB2BDF83C30F0
:1091D0001344ADF83C30BDF83C305F4A0092644A1D
:1091E00008210598FFF71AFE604B1B781A46BDF858
:1091F0003C3013449BB20133ADF83E30BDF83E2005
:1092000000235C490598FFF76DFE049B002B00F0DE
:10921000028100230D93F9E00D9A13465B0013447D
:109220009B001A46049B13445B68002B69D00D9A7F
:1092300013465B0013449B001A46049B13441B68AF
:10924000002B5ED00D9A13465B0013449B001A4618
:10925000049B134459680D9A13465B0013449B000A
:109260001A46049B13441B6801933C4B00930B4626
:10927000414A08210598FFF7D1FD3C4B1B781A465F
:10928000BDF83C301344ADF83E30BDF83E30DCB2A2
:109290000D9A13465B0013449B001A46049B13442B
:1092A0005B681846FFF7F8F90346DDB20D9A1346DE
:1092B0005B0013449B001A46049B13441B6818462A
:1092C000FFF7EAF90346DBB22B44DAB2274B1B78EF
:1092D0001344DDB22148FFF7DFF90346DBB22B442C
:1092E000DBB2E31ADBB219460598FFF73DFB3A21E2
:1092F0000598FFF74BFABDF83E300133ADF83E302C
:1093000063E00D9A13465B0013449B001A46049BCE
:1093100013445B68002B31D0BDF83C100D9A134606
:109320005B0013449B001A46049B13445B68009344
:109330000B460F4A08210598FFF770FD0B4B1B7871
:109340001A46BDF83C3013449BB20133ADF83E30B1
:109350003BE000BF58BE0200DCC40200E8C40200CB
:10936000ECC402008CBF020094BF0200F0C40200F3
:10937000A0BF0200A8BF0200BCBF02000D9A1346A6
:109380005B0013449B001A46049B13441B68002B8C
:109390001BD0BDF83C100D9A13465B0013449B0094
:1093A0001A46049B13441B6800930B465B4A082132
:1093B0000598FFF733FD5A4B1B781A46BDF83C3031
:1093C00013449BB20133ADF83E300D9A13465B0057
:1093D00013449B001A46049B13449B68002B0FD038
:1093E0000D9A13465B0013449B001A46049B1344DA
:1093F0009968BDF83E2000230598FFF773FD02E051
:109400000598FFF789FA0D9B01330D930D9A039B85
:109410009A42FFF401AF059B9B68DB68002B75D077
:10942000059B9B68DB680B93002306930023ADF834
:109430003E300023ADF83C3000230C930C9A531CB3
:109440000C9306A907AB00930B4601210B98FFF77D
:10945000DBF9069B002B12D0069B1B681846FFF712
:109460001BF90246BDF83C309A42E7D9069B1B68BF
:109470001846FFF711F90346ADF83C30DEE700BFB0
:109480000C9B012B44D0274A00210598FFF7C6FC0E
:1094900000230C930C9A531C0C9306A907AB009362
:1094A0000B4601210B98FFF7AFF9069B002B31D03B
:1094B0001B4B1B781A46BDF83C301344ADF83E30C8
:1094C000BDF83E20069B1B6800931346134A0821F3
:1094D0000598FFF7A3FC124B1B781A46BDF83E30E7
:1094E00013449BB20133ADF83E30069B5B68002B02
:1094F00008D0069B5968BDF83E2000230598FFF769
:10950000F1FCC7E70598FFF707FAC3E700BF02E0E1
:1095100000BF00E000BF11B030BD00BFA0BF02001F
:10952000F0C40200C8BF020000B585B003900192EC
:1095300000930B468DF80B300398FFF751F8034664
:10954000002B06D0009A01990398FFF793FD0123A1
:109550000EE09DF80B30002B09D0039B9B685B68E5
:10956000054A02210398FFF759FC012300E000237C
:10957000184605B05DF804FBD8BF020000B585B001
:10958000039002910192039B002B04D12B4940F6DA
:109590005F50FEF7F3FD039B9B68002B07D0039BF6
:1095A0005B68002B03D0039B1B68002B04D123496D
:1095B0004FF45660FEF7E2FD029B022B0BD103989D
:1095C000FFF70EF80346002B05D000220021039878
:1095D000FFF750FD2FE0039B002B04D1174940F605
:1095E0006850FEF7CBFD039B1B69002B04D1134988
:1095F00040F66850FEF7C2FD039B1B69104A1149F3
:10960000184600F02FFB039B002B04D10B4940F6BA
:109610006950FEF7B3FD039B1B69002B04D107497A
:1096200040F66950FEF7AAFD039B1B69064A0549EF
:10963000184600F017FB05B05DF804FB58BE0200A9
:10964000F4C40200CCBE0200F8C4020000B585B02C
:10965000039002910192039B002B04D1174940F61D
:109660006E50FEF78BFD039B9B68002B07D0039B7E
:109670005B68002B03D0039B1B68002B04D10F49B0
:1096800040F66F50FEF77AFD029B012B08D0029B3B
:10969000022B0BD10398FEF7A3FF0346002B05D046
:1096A000002200210398FFF7E5FC04E0044A0221B0
:1096B0000398FFF7B3FB05B05DF804FB58BE02004A
:1096C00068BF020000B585B0039002910192029B31
:1096D000012B14BF01230023D9B2002300220398D9
:1096E000FFF722FF0346002B08D1039B9A68B2F8CC
:1096F000483123F00403A2F8483100E000BF05B070
:109700005DF804FB00B585B0039002910192029BC5
:10971000012B14BF01230023D9B200230022039898
:10972000FFF702FF0346002B08D1039B9A68B2F8AB
:10973000483143F00403A2F8483100E000BF05B00F
:109740005DF804FB00B587B0059004910392059B7A
:10975000002B04D11F4940F68F50FEF70FFD059BEB
:109760009B68002B07D0059B5B68002B03D0059BF3
:109770001B68002B04D117494FF45960FEF7FEFC1B
:10978000049B012B05D1002200210598FFF772FCF4
:109790001DE0049B022B14BF01230023D9B2002338
:1097A00000220598FFF7C0FE0346002B0ED1039B55
:1097B0001A68039B04331B680193074B00931346FD
:1097C000064A02210598FFF729FB00E000BF07B019
:1097D0005DF804FB58BE020000C00200F4BF0200A6
:1097E00000B587B0059004910392049B022B8CBFB7
:1097F00001230023D9B2002300220598FFF794FE2D
:109800000346002B20D1049B022B0ED1039B1A6828
:10981000039B04331B6801930D4B009313460D4AC1
:1098200002210598FFF7FAFA0FE00598FEF728FFE6
:109830000346002B01D0084B00E0084B084A0021EA
:109840000598FFF7EBFA00E000BF07B05DF804FBF6
:1098500000C00200F4BF020018C002001CC00200D9
:1098600020C0020000B585B0039002910192029BD6
:10987000012B14BF01230023D9B200230022039837
:10988000FFF752FE0346002B03D10398FEF7EBFED1
:1098900000E000BF05B05DF804FB00B585B00390A3
:1098A00002910192029B012B14BF01230023D9B224
:1098B000002300220398FFF737FE0346002B03D155
:1098C0000398FEF7C3FE00E000BF05B05DF804FB9F
:1098D00000B58DB0059004910392059B002B04D137
:1098E0002D4940F6C750FEF749FC059B9B68002BAD
:1098F00007D0059B5B68002B03D0059B1B68002BE2
:1099000004D1254940F6C850FEF738FC049B012BD2
:1099100014BF01230023D9B2002300220598FFF7CA
:1099200003FE0346002B33D100230B93059B9B685A
:10993000D3F840310A930A9B002B23D00B9B072BB3
:1099400020D807A9002309220A9801F08BF9059B6A
:109950009B6803F1A0019DF8243001331A460923C6
:109960000A9801F07FF9089B0A930B9B5A1C0B92F3
:10997000059A9268A0320092084A00210598FFF7E4
:109980004DFAD8E7059B9B68002283F8A02000E0F1
:1099900000BF0DB05DF804FB58BE020034C00200E9
:1099A00000B587B0059004910392049B012B05D16B
:1099B000002200210598FFF75DFB1CE0049B022BB1
:1099C0000ED1039B1A68039B04331B6801930B4B56
:1099D000009313460A4A02210598FFF71FFA0AE08E
:1099E000049B022B8CBF01230023D9B20023002249
:1099F0000598FFF799FD07B05DF804FB00C0020071
:109A0000F4BF020000B58BB0079006910592069B4B
:109A1000012B14BF01230023D9B200230022079891
:109A2000FFF782FD0346002B29D1079BDB685B68AB
:109A30001B680993099801F017FA03468DF8233043
:109A40009DF82330642203FB02F2099B9B68B2FB62
:109A5000F3F38DF82230079B9B68D3F838019DF80B
:109A600022309DF823200999896802910192009380
:109A70000346054A00210798FFF7D0F900E000BF30
:109A80000BB05DF804FB00BF40C0020000B585B01C
:109A9000039002910192029B012B14BF012300232A
:109AA000D9B2002300220398FFF73EFD0346002BA6
:109AB0000CD1039B9B680022C3F83821039BDB6811
:109AC0005B681B68184601F0E3F900E000BF05B0D1
:109AD0005DF804FB00B585B0039002910192029BF2
:109AE000012B14BF01230023D9B2002300220398C5
:109AF000FFF71AFD0346002B20D1039B002B04D156
:109B0000104940F62160FEF739FB039B1B69002BCF
:109B100004D10C4940F62160FEF730FB039B1B6922
:109B2000094A0A49184600F09DF8039B9B68502299
:109B30005A76039B9B6818221A7600E000BF05B096
:109B40005DF804FB58BE020000C50200CCBE020056
:109B500000B587B0059004910392059B002B04D1BA
:109B60002B4940F62860FEF709FB059B9B68002BFC
:109B700007D0059B5B68002B03D0059B1B68002B5F
:109B800004D1234940F62960FEF7F8FA049B012B23
:109B90001BD1059B9B6803F11901059B9B6818333A
:109BA0001A460598FFF730F80346002B2AD0059B8C
:109BB0009B6850225A76059B9B6818221A76154A94
:109BC00004210598FFF72AF91CE0049B022B8CBFA7
:109BD00001230023D9B2002300220598FFF7A4FC3B
:109BE0000346002B10D1039B1A68039B04331B68A8
:109BF0000193094B00931346084A02210598FFF789
:109C00000DF902E000BF00E000BF07B05DF804FB03
:109C100058BE020078C0020000C00200F4BF02007B
:109C200000B583B00190019B002B03D10C4931207A
:109C3000FEF7A4FA019B9B68002B0CD0019B5B698B
:109C4000019A1069019A1168019A92689847019BDC
:109C500000229A6000E000BF03B05DF804FB00BF83
:109C600008C502000EB400B584B00190019B002B22
:109C700003D118494220FEF781FA019B5B69002B52
:109C800003D114494320FEF779FA019B1B68002B8E
:109C900003D110494420FEF771FA019B5B68002B49
:109CA00003D10C494520FEF769FA059B002B0AD029
:109CB0000023039306AB039303AB1A46059901985F
:109CC00000F0B8F900E000BF04B05DF804EB03B0A9
:109CD000704700BF08C5020000B583B001900B4675
:109CE0008DF803309DF803300A2B03D10D21019824
:109CF000FFF7F2FF019B1A68019B9B68581C0199B2
:109D0000886013449DF803201A70019B9A68019B98
:109D10005B689A4202D30198FFF782FF00BF03B04D
:109D20005DF804FB00B587B00390029101920093A7
:109D300000230593009B03F00103002B24D00BE0CC
:109D4000029B01330293059B013305939DF8133069
:109D500019460398FFF7C0FF029B1B788DF813305C
:109D60009DF81330002BEBD106E0019B013B0193E2
:109D700020210398FFF7B0FF019A059B9A422ED944
:109D8000019B002BF1D12AE0029B002B0BD0029803
:109D900001F003FD059006E0019B013B01932021AA
:109DA0000398FFF799FF019A059B9A420FD9019BEF
:109DB000002BF1D10BE0029B01330293059B013391
:109DC00005939DF8133019460398FFF785FF029B12
:109DD0001B788DF813309DF81330002BEBD100BFAA
:109DE00007B05DF804FB000000B589B00390029154
:109DF00001920093029B07930123069307E0079AC1
:109E0000019BB2FBF3F30793069B01330693079A7A
:109E1000019B9A42F3D2009A069B9A4201D9009B79
:109E200006930B9B03F00103002B22D10A9B002B0E
:109E30001FD00B9B03F00203002B06D0009B002BCE
:109E400003D130238DF8173002E020238DF817302E
:109E500008E00A9B013B0A939DF8173019460398C6
:109E6000FFF73AFF0A9B002B03D0069A0A9B9A42FF
:109E7000EFD301230793009B012B03D9009B013BE8
:109E8000009309E0029A079BB2FBF3F30493049A50
:109E9000019B9A4200D205E0079B019A02FB03F363
:109EA0000793E8E7029A079BB2FBF3F30493049B42
:109EB000079A02FB03F3029AD31A0293154A049BF2
:109EC00013441B7819460398FFF706FF079A019B76
:109ED000B2FBF3F30793079B002BE3D10B9B03F03B
:109EE0000103002B11D00A9B002B0ED006E00A9B29
:109EF000013B0A9320210398FFF7EEFE0A9B002BFB
:109F000003D0069A0A9B9A42F1D300BF09B05DF8CC
:109F100004FB00BFE4C5020000B589B005900491C0
:109F200003920293049B002BB8BF5B42069301236C
:109F3000079307E0039B069A92FBF3F30693079BB4
:109F400001330793039B069A9A42F3DA029A079B1E
:109F50009A4201D9029B07930A9B002B0AD0049BCB
:109F6000002B04DB0B9B03F00403002B02D00A9BA5
:109F7000013B0A930B9B03F00203002B02D0029BD0
:109F8000002B16D00B9B03F00103002B11D10A9B71
:109F9000002B0ED006E00A9B013B0A932021059876
:109FA000FFF79AFE0A9B002B03D0079A0A9B9A425E
:109FB000F1D3049B002B07DA049B5B4204932D2111
:109FC0000598FFF789FE08E00B9B03F00403002BC4
:109FD00003D02B210598FFF77FFE0B9B03F00203B4
:109FE000002B19D00B9B03F00103002B14D1029B13
:109FF000002B11D10A9B002B0ED006E00A9B013BDF
:10A000000A9330210598FFF767FE0A9B002B03D0C7
:10A01000079A0A9B9A42F1D304990B9B01930A9BDE
:10A020000093029B039A0598FFF7DEFE00BF09B07C
:10A030005DF804FB00B58FB0059004910392059B79
:10A04000002B04D1AD4940F25220FEF797F8059B52
:10A050005B69002B04D1A9494FF41570FEF78EF807
:10A06000059B1B68002B04D1A44940F25520FEF744
:10A0700085F8059B5B68002B04D1A04940F256206F
:10A08000FEF77CF8049B002B00F09381049B1B7867
:10A090008DF83730049B013304939DF83730002B43
:10A0A00000F07E819DF83730252B40F06D81002334
:10A0B0000A9301230C93049B1B788DF837309DF88D
:10A0C0003730302B0DD0302B1BDC2B2B11D02D2B10
:10A0D00017D10A9B43F001030A93049B01330493B5
:10A0E00012E00A9B43F002030A93049B013304939A
:10A0F0000AE00A9B43F004030A93049B0133049390
:10A1000002E000230C9300BF0C9B002BD3D1002353
:10A1100009939DF837302A2B0CD1039B1B68191D1E
:10A12000039A11601B68099A13440993049B013335
:10A1300004931AE0049B1B788DF837309DF8373074
:10A140002F2B12D99DF83730392B0ED8049B0133B1
:10A150000493099A13469B0013445B001A469DF82A
:10A1600037301344303B0993D3E700230B93049B10
:10A170001B788DF837309DF837302E2B1DD1049B7E
:10A1800001330493049B1B788DF837309DF83730EA
:10A190002F2B12D99DF83730392B0ED8049B013361
:10A1A00004930B9A13469B0013445B001A469DF8D8
:10A1B00037301344303B0B93E4E7049B1B788DF856
:10A1C00037309DF837306C2B03D09DF83730682B33
:10A1D00007D1049B01330493049B1B788DF837301F
:10A1E000EFE79DF83730252B00F0C480252BC0F217
:10A1F000C680782B00F3C380582BC0F2C080583B38
:10A20000202B00F2BC8001A252F823F001A302002F
:10A210007FA302007FA302007FA302007FA30200AE
:10A220007FA302007FA302007FA302007FA302009E
:10A230007FA302007FA3020091A20200B3A202004A
:10A240007FA302007FA302007FA302007FA302007E
:10A25000B3A202007FA302007FA302007FA302003B
:10A260007FA302007FA302007FA3020041A302009C
:10A270007FA302007FA3020025A302007FA30200A8
:10A28000D7A202007FA302007FA3020001A3020065
:10A29000039B1B68191D039A11601B680C930C9B90
:10A2A0008DF81F309DF81F3019460598FFF714FDF3
:10A2B00066E0039B1B68191D039A11601B680C93D1
:10A2C0000A9B0193099B00930B9B0A220C9905980A
:10A2D000FFF722FE54E0039B1B68191D039A1160CF
:10A2E0001B680C930C990A9B0193099B00930B9B91
:10A2F0000A220598FFF778FD42E000BF74C502000E
:10A30000039B1B68191D039A11601B680C930C9921
:10A310000A9B0193099B00930B9B10220598FFF762
:10A3200063FD2DE0039B1B68191D039A11601B68D8
:10A3300008930A9B099A08990598FFF7F3FC1FE018
:10A34000039B1B68191D039A11601B680C93302135
:10A350000598FFF7C1FC78210598FFF7BDFC0C9923
:10A360000023019308230093082310220598FFF788
:10A370003BFD05E025210598FFF7AEFC00E000BF9E
:10A38000049B0133049305E09DF837301946059886
:10A39000FFF7A2FC049B1B78002B7FF477AE00E054
:10A3A00000BF059B1B7B002B04D00598FFF738FCF2
:10A3B00000E000BF0FB05DF804FB00BF00B585B042
:10A3C000039002910192039B002B01D10E230EE01A
:10A3D000029B002B01D10E2309E0039B029A1A6015
:10A3E000039B1B681B68019903989847034618460E
:10A3F00005B05DF804FB10B586B00590049103929A
:10A400000293059B002B01D10E2342E0039B002BFE
:10A4100001D10E233DE0059B1B68002B01D10823D1
:10A4200037E0029B002B01D1092332E0059B5B68DA
:10A430005A68029BB3FBF2F101FB02F29B1A002B5C
:10A4400001D0092325E0049800F07BF80346002B97
:10A4500001D110231DE0039B184600F072F803465B
:10A46000002B01D1102314E0029A0499059800F002
:10A470004EF80346002B01D110230AE0059B1B6810
:10A48000DC68089B0093029B039A04990598A047F7
:10A490000346184606B010BD10B584B00390029173
:10A4A00001920093039B002B01D10E232CE0039B10
:10A4B0001B68002B01D1082326E0019B002B01D152
:10A4C000092321E00299039800F048F80346002B85
:10A4D00001D1102318E0039B5B681B68019A02FB03
:10A4E00003F31A460299039800F011F80346002B73
:10A4F00001D1102308E0039B1B681C69009B019A93
:10A5000002990398A0470346184604B010BD84B0D2
:10A51000039002910192039BDB68029A9A4209D34D
:10A52000029A019B13445A1E039B1B699A4201D84D
:10A53000012300E0002303F00103DBB2184604B05E
:10A54000704782B00190019B03F00303002B0CBF06
:10A5500001230023DBB2184602B0704782B001909D
:10A560000091019B5B681B685A1E009B1340002BE7
:10A570000CBF01230023DBB2184602B0704729DF6D
:10A58000704700BF184628DF704700BF184600B567
:10A5900089B001900091019B1B689B68002B35D00E
:10A5A00002AB00221A605A609A60DA601A615A613E
:10A5B000009B0393019B9B680793019B1B79002BD6
:10A5C00002D0012B0DD01AE001238DF80830019B39
:10A5D0001B690493019BDB680593019B5B690693F0
:10A5E0000DE002238DF80830019BDB684FF48052A8
:10A5F00002FB03F30493019B5B69069300BF019B7D
:10A600001B689B6802AA1046984700E000BF09B08B
:10A610005DF804FB00B587B00190019B5A69019B6E
:10A620009B69D31AB3F5805F28BF4FF4805305931D
:10A630000422059BB3FBF2F3012B38BF01230593E2
:10A64000019B1A69019B9B6913440493019BDB687E
:10A650001A46019B9B6913440393059A0399049836
:10A66000FFF78DFF0346184607B05DF804FB00B501
:10A6700083B00190019BDA68019B1B691344184663
:10A68000FFF781FF0346184603B05DF804FB0000A6
:10A6900008B5034B03491846FDF7ACFE00BF08BDE3
:10A6A0007C230020A423002008B5084B0849184645
:10A6B000FDF787FE0346074A1360064B1B68002B15
:10A6C00014BF01230023DBB2184608BD7C23002001
:10A6D000A4230020A023002000B583B02A4B1B7ABE
:10A6E000002B0BD1FFF7E0FF034683F00103DBB241
:10A6F000002B03D0244B00225A6042E0224B02225E
:10A700001A72224B1B681B79002B02D0012B07D039
:10A710000DE01E4B1B681846FFF77CFF019009E017
:10A720001A4B1B681846FFF7A2FF019002E00323B3
:10A73000019300BF019B002B03D0019B112B0CD078
:10A740000FE0114B1B7C83F00103DBB2002B17D011
:10A750000021022000F060F912E00B4B01221A7276
:10A760000FE00A4B1B6803211846FFF710FF064B4A
:10A7700000221A72044B00225A60FFF789FF00E0A2
:10A7800000BF03B05DF804FB8C230020A023002051
:10A7900008B50848FDF75AFE0346002B08D1064BC2
:10A7A0005B7C83F00103DBB2002B01D0FFF794FF49
:10A7B00000BF08BD902300208C23002084B00190AE
:10A7C0001B4B0022DA60019B1B79002B02D0012B6E
:10A7D00019D028E0019B5A69019B9B69D31AB3F5F4
:10A7E000805F28BF4FF480530393019B9A69039BBA
:10A7F0001A44019B9A61019B9A69019B5B699A4289
:10A800000ED1012310E0019B1B695A1C019B1A61A8
:10A81000019B1A69019B5B699A4203D1012303E002
:10A8200000BF00E000BF0023184604B0704700BF1F
:10A830008C23002082B00190084BDB680133074A6B
:10A84000D360064BDB68082B04D9044B0022DA6086
:10A85000012300E00023184602B070478C2300203B
:10A8600000B583B001900091019B0C4A5A600C48DE
:10A87000FDF7ECFD0346002B0BD100F0E7FD03468E
:10A880001A46074B1A7407481C238C220649FDF709
:10A8900024FD0023184603B05DF804FBF4C5020054
:10A8A0008C2300207C230020F022002000B583B000
:10A8B0000190009114220021054800F0E9FF054BAA
:10A8C0001846FDF73DFD0023184603B05DF804FB74
:10A8D0008C2300207C23002000B587B003900291D8
:10A8E00001920093174A04AB19461046FDF73CFD50
:10A8F0000590059B002B01D104231FE01C220021A1
:10A90000059800F0C5FF059B00221A71059B039A6C
:10A910001A60059B089A9A60059B029A1A61059B2A
:10A92000019ADA60059B009A5A61064A04AB1946FF
:10A930001046FDF732FDFFF72BFF0023184607B046
:10A940005DF804FB7C23002000B585B003900291E4
:10A9500001920093029B009A1946019800F066FF4D
:10A960000023184605B05DF804FB000000B587B071
:10A970000390029101920093184A04AB19461046C5
:10A98000FDF7F2FC0590059B002B01D1042320E08C
:10A990001C220021059800F07BFF059B01221A7103
:10A9A000059B039A1A60059B009A9A604FF48052A7
:10A9B000029BB3FBF2F2059BDA60059B019A5A6198
:10A9C000064A04AB19461046FDF7E7FCFFF7E0FE28
:10A9D0000023184607B05DF804FB00BF7C2300206D
:10A9E00082B001900091009B184602B0704782B07F
:10A9F000019000910023184602B0704782B0019088
:10AA0000044B1B7A002B14BF01230023DBB2184632
:10AA100002B070478C23002000B585B001900091F2
:10AA2000019B022B02D0019B032B48D1274B1B7AA1
:10AA3000022B05D0022B35DC002B42D0012B31E05C
:10AA400000238DF80F30019B022B03D0019B032BB9
:10AA500009D011E01E4B1B681846FFF7AFFE0346F6
:10AA60008DF80F3008E01A4B1B681846FFF7E2FE1E
:10AA700003468DF80F3000BF9DF80F30002B10D02B
:10AA8000124B00221A72124B1A68019B022B01D141
:10AA9000002300E00D2319461046FFF778FDFFF76D
:10AAA000F7FD00BF094B5B7C83F00103DBB2002B99
:10AAB00002D0FFF711FE05E000F0ACFC02E000BFA1
:10AAC00000E000BF05B05DF804FB00BF8C23002050
:10AAD000A023002082B0034600918DF80730064B7A
:10AAE00001225A74044B1B7A002B0CBF0123002354
:10AAF000DBB2184602B070478C23002000B583B04B
:10AB0000034600918DF807309DF80730012B03D0E4
:10AB10009DF80730032B0DD1084B00225A749DF885
:10AB20000730012B0CBF01230023DAB2034B1A7448
:10AB3000FFF7D2FD00BF03B05DF804FB8C230020BB
:10AB400000B591B00390029101920093039B002BFA
:10AB500003D14349B620FDF711FB039B0993039BE7
:10AB60000F93099BDB881A46099B5B7902FB03F371
:10AB7000043B0893009A089B9A4203D33849C420A7
:10AB8000FDF7FCFA099BDB880793009B1A1D079BC6
:10AB9000B2FBF3F30E93009B0433079AB3FBF2F27C
:10ABA000079901FB02F29B1A0D93019B1A68009B07
:10ABB0001344089A9A4203D2089A009BD31A01E0E0
:10ABC000019B1B680C93019B0C9A1A6005E00F9B7C
:10ABD0001B680F930E9B013B0E930E9B002BF6D12F
:10ABE00000230B93079A0D9BD31A0A930A9A0C9B86
:10ABF000934228BF13460A932AE0029A0B9B134400
:10AC000006930F9A0D9B1344043305939DF8483027
:10AC1000002B05D00A9A0599069800F007FE04E07B
:10AC20000A9A0699059800F001FE00230D930F9BE8
:10AC30001B680F930C9A0A9BD31A0C930B9A0A9BCE
:10AC400013440B93079A0C9B934228BF13460A9315
:10AC50000C9B002BD1D100BF00BF11B05DF804FBED
:10AC600020C6020000B589B00590049103920293BA
:10AC7000039B079307AA01230093029B049905985D
:10AC8000FFF75EFF079B039A9A4204D004494FF4F2
:10AC90008070FDF773FA00BF09B05DF804FB00BFD8
:10ACA00020C6020082B00190019B9B68D3F8483116
:10ACB000C3F34003DBB2002B14BF01230023DBB23C
:10ACC000184602B07047000000B595B00B900A918D
:10ACD00009920B98FFF7E6FF0346002B05D00022F0
:10ACE00000210B98FEF7C6F95CE00A9B012B05D901
:10ACF0002E4A02210B98FEF791F853E02C4A2D4B77
:10AD0000D31A2D4AA2FB03231B091293002313938A
:10AD100044E0139A13465B001344DB001A46254BAC
:10AD200013441193119BDB681093119B9B680F9345
:10AD3000119800F099F80E90119800F071F80D90AC
:10AD4000119B5B690C930D9B642203FB02F20F9B2A
:10AD5000B2FBF3F30E9A642102FB01F10F9AB1FBEF
:10AD6000F2F21199097C002901D1144900E014493B
:10AD700007910F9906910E99059104920F9A0392EB
:10AD80000D9A02920193109B00930C9B0D4A08218F
:10AD90000B98FEF743F8139B01331393139A129BFE
:10ADA0009A42B6D315B05DF804FB00BF94C602000A
:10ADB000F4B90200F4B90200ABAAAAAAA8C602001C
:10ADC000B4C60200C0C6020082B00190019B9B681D
:10ADD000024A12781344184602B070473CC8020079
:10ADE00000B585B00190019B1B681B680393019B14
:10ADF0001B685B680293029A039B9A4203D3029AF0
:10AE0000039BD31A07E00198FFF7DEFF0246039B7E
:10AE1000D21A029B1344184605B05DF804FB0000EB
:10AE200000B585B00190019B002B04D10D4940F283
:10AE30001E20FDF7A3F900238DF80B300DF10B0355
:10AE40001846FDF73FF90198FFF7CAFF03909DF8F8
:10AE50000B301846FDF74CF9039B184605B05DF81A
:10AE600004FB00BF90C7020000B583B00190019BB6
:10AE7000002B04D1054940F23920FDF77FF9019BF1
:10AE80001B689B68184603B05DF804FB90C702007E
:10AE900000B583B00190019B002B04D1064940F21C
:10AEA0003F20FDF76BF9019B1B6800229A6000BFF1
:10AEB00003B05DF804FB00BF90C7020000B583B08B
:10AEC00001900091019B002B03D110495020FDF708
:10AED00055F9009B002B03D10C495120FDF74EF989
:10AEE000019B009A1A60019B1B681A68019B5A60BB
:10AEF000019B5A68019B1B685B689A4202D1019BC7
:10AF000000225A6000BF03B05DF804FB40C8020095
:10AF100000B583B00190019B002B03D1144963203D
:10AF2000FDF72CF9019B1B68002B03D1104964200D
:10AF3000FDF724F9019B5B68002B14D0019B5B6833
:10AF40001A46019B1B689B6813441A46019B5A6072
:10AF5000019B5A68019B1B685B689A4204D1019B64
:10AF600000225A6000E000BF03B05DF804FB00BFA0
:10AF700040C8020082B003468DF807309DF90730C3
:10AF8000002B0CDB9DF8073003F01F0205499DF9EB
:10AF900007305B09012000FA02F241F8232000BFCC
:10AFA00002B0704700E100E082B003468DF8073040
:10AFB0009DF90730002B13DB9DF8073003F01F02CB
:10AFC00009499DF907305B09012000FA02F220339C
:10AFD00041F82320BFF34F8F00BFBFF36F8F00BF37
:10AFE00000BF02B0704700BF00E100E082B003463E
:10AFF0008DF807309DF90730002B09DB0B4A9DF9CE
:10B000000730134493F80033DBB25B09DBB20AE08C
:10B01000074A9DF8073003F00F03043B13441B7EDF
:10B02000DBB25B09DBB2184602B0704700E100E01A
:10B0300000ED00E000B583B00190019B002B03D12F
:10B040000449C420FDF79AF8019B5B68184603B0D9
:10B050005DF804FBCCC8020010DF704700BF184643
:10B0600011DF704700BF184682B003468DF80730E5
:10B070009DF907301F2B07DC9DF907300C4A22FA97
:10B0800003F303F0010310E09DF907303F2B0BDCC5
:10B090009DF90730203B012202FA03F3002B14BF75
:10B0A00001230023DBB200E00123184602B0704701
:10B0B000FC06FFBD82B00190019B072B07D8EC2254
:10B0C000019B42FA03F303F00103002B01D100239B
:10B0D00000E00123184602B07047000000B583B0BD
:10B0E00003468DF807309DF907301846FFF7BCFF7F
:10B0F0000346002B02D142F201032EE09DF90730F6
:10B100001846FFF773FF03461846FFF7D3FF0346C1
:10B11000002B02D142F202031FE0124B9B68002B6E
:10B1200015D09DF907305B090E4A52F823209DF88F
:10B13000073003F01F03012101FA03F319469DF9BB
:10B1400007305B090A43074941F8232004E09DF9D1
:10B1500007301846FFF70EFF0023184603B05DF8CE
:10B1600004FB00BFD822002000B583B003468DF851
:10B1700007309DF907301846FFF776FF0346002B8E
:10B1800002D142F201031FE0114B9B68002B15D046
:10B190009DF907305B090E4A52F823109DF80730DD
:10B1A00003F01F03012202FA03F3DA439DF907308B
:10B1B0005B090A40064941F8232004E09DF9073065
:10B1C0001846FFF7F1FE0023184603B05DF804FBB4
:10B1D000D822002000B587B003468DF8073002ABB7
:10B1E00014491846FFF76AFE17E002AB1846FFF74E
:10B1F00021FF0590059B1B680493059B59689DF8EA
:10B200000720049B104698470346002B01D11123C9
:10B210000BE002AB1846FFF77BFE02AB1846FFF7C8
:10B2200009FF0346002BE0D10023184607B05DF864
:10B2300004FB00BF98C9020000B587B003468DF833
:10B24000073002AB11491846FFF738FE12E002AB97
:10B250001846FFF7EFFE0590059B1B680493059BBE
:10B2600059689DF80720049B1046984702AB184682
:10B27000FFF74EFE02AB1846FFF7DCFE0346002B3D
:10B28000E5D100BF00BF07B05DF804FBA4C9020010
:10B2900000B583B01620FFF721FF0190019B0093BA
:10B2A000009B002B04D0044AA1210098FCF746FE25
:10B2B00000BF03B05DF804FB20C9020000B583B0F5
:10B2C0001620FFF751FF0190019B0093009B002B7C
:10B2D00004D0044AAD210098FCF730FE00BF03B053
:10B2E0005DF804FB20C9020000B585B0234B1B7834
:10B2F000002B01D008233CE0214B01221A700020D2
:10B30000FFF768FF0346112B01D1002331E0002035
:10B31000FFF792FF1B4B1B68029300238DF8073049
:10B320000DF107031846FCF7CDFE02AB164918468F
:10B33000FFF792FE0390039B002B0CBF0123002319
:10B34000DAB20E4B1A709DF807301846FCF7D0FEA3
:10B35000039B002B01D0039B0BE0094B00221A70CA
:10B360000A4B00221A70FFF793FF0120FFF764FFDA
:10B370000023184605B05DF804FB00BFA823002099
:10B38000AA23002094C90200597F0200A9230020AB
:10B3900000B583B01D4B1B7883F00103DBB2002B9B
:10B3A00001D008232EE01A4B01221A700120FFF76A
:10B3B00011FF0346112B01D1002323E00220FFF7E8
:10B3C0003BFF00238DF803300DF103031846FCF713
:10B3D00079FEFFF745FE01900C4B00221A709DF894
:10B3E00003301846FCF784FE019B002B01D0019B23
:10B3F00008E0074B00221A70FFF760FF0320FFF7F9
:10B400001BFF0023184603B05DF804FBA8230020AF
:10B41000AA23002008B50B4B1B7883F00103DBB295
:10B42000002B01D008230AE0074B1B78002B03D028
:10B43000FFF7AEFF034602E0FFF756FF034618464C
:10B4400008BD00BFAA230020A8230020014B1B78C1
:10B4500018467047A823002000B585B06B461149F7
:10B460001846FFF72BFD10E06B461846FFF7E2FD8C
:10B470000390039B1B680293039B5A68029B104630
:10B4800098476B461846FFF743FD6B461846FFF793
:10B49000D1FD0346002BE7D100BF00BF05B05DF82A
:10B4A00004FB00BFB0C9020008B5FFF7D5FF00BF1D
:10B4B00008BD60DF704700BF184669DF704700BFF6
:10B4C000184661DF704700BF1846000000B583B022
:10B4D0000190019B002B03D10449C420FCF74EFED0
:10B4E000019B5B68184603B05DF804FBBCC9020011
:10B4F00082B00190019B002B01D10E2304E0044B8C
:10B500001A46019B1A600023184602B0704700BF1C
:10B510006022002000B587B0034600918DF8073007
:10B520000098FFF7E5FF0590059B002B01D0059BD8
:10B5300065E002AB0C220021184600F0A9F99DF845
:10B5400007308DF8083001238DF80A300623ADF856
:10B550000C30009B1A6802AB19462020FFF7ADFFA4
:10B56000059002AB0C220021184600F091F900234F
:10B570008DF8093000238DF80A3000238DF80B3048
:10B58000009B1A6802AB19464020FFF796FF059012
:10B5900002AB0C220021184600F07AF900238DF846
:10B5A0000830009B1A6802AB19460120FFF785FF9F
:10B5B000059002AB0C220021184600F069F94FF407
:10B5C000B0630293009B1A6802AB1946A120FFF7F3
:10B5D00074FF059002AB0C220021184600F058F9C8
:10B5E0009DF8083023F001038DF80830009B1A689D
:10B5F00002AB1946A020FFF760FF05900023184614
:10B6000007B05DF804FB000000B585B00190019B18
:10B610001B6803930198FFF74CFF0290019B1B6886
:10B62000039A9A42029B002B02D1044B01221A700A
:10B63000029B184605B05DF804FB00BFAB23002059
:10B6400000B597B00190234B1B7883F00103DBB268
:10B65000002B3AD13423ADF846300DF1460202AB4F
:10B6600011461846FFF72DFF1590159B002B03D0B0
:10B67000159B052B22D129E002AB14930FAB164981
:10B680001846FFF71BFC11E00FAB1846FFF71EFF33
:10B690001390139B1B681293139B5A68129B1146BD
:10B6A000149898470FAB1846FFF732FC0FAB1846BB
:10B6B000FFF70CFF0346002BE6D1CBE7074A40F229
:10B6C0003B111598FCF73AFC00E000BF17B05DF89D
:10B6D00004FB00BFAB23002088CA020010CA02008E
:10B6E00000B583B00190019B002B03D10449C42015
:10B6F000FCF744FD019B5B68184603B05DF804FB52
:10B7000094CA02004BDF704700BF184600B589B0ED
:10B71000019004AB1846FFF7F5FF0790079B002B3D
:10B7200003D0079B052B20D124E002AB1349184618
:10B73000FFF7C4FB11E002AB1846FFF7D1FF0690FC
:10B74000069B1B680593049A069B5968059B104647
:10B75000984702AB1846FFF7DBFB02AB1846FFF732
:10B76000BFFF0346002BE6D1D3E7054A6B210798BC
:10B77000FCF7E4FB00BF09B05DF804FB60CB0200FE
:10B78000E8CA0200082907D3416042F2AC31C2F294
:10B7900000010860002101607047017881B100213B
:10B7A0004FF001324358C2FA53F30431002BF9D061
:10B7B00093FAA3F0B0FA80F001EBD00004387047A0
:10B7C000002070474FF0013C50F8042B51F8043B27
:10B7D0009A421ED1CCFA52F2DAB950F8042B51F841
:10B7E000043B9A4215D1CCFA52F292B950F8042B8C
:10B7F00051F8043B9A420CD1CCFA52F24AB950F8B3
:10B80000042B51F8043B9A4203D1CCFA52F2002A9D
:10B81000DAD00438043910F8012B11F8013BD21AA0
:10B8200001D1002BF7D11046704700BF5AB38446B0
:10B8300090EA01039B071FD1830707D011F8013B52
:10B8400000F8013B013AF7D11CE08446203A09D3C5
:10B850002DE9F007B1E8F807A0E8F807203AF9D297
:10B86000BDE8F0071C3205D451F8043B40F8043B16
:10B87000043AF9D2043205D011F8013B00F8013B3B
:10B88000013AF9D16046704700220B0011001A00FE
:10B8900084465AB3830704D000F8011B013AF9D15A
:10B8A00024E0C9B241EA012141EA0141202A11D331
:10B8B000203A2DE9F0030B460C460D460E460F4686
:10B8C00088468946A0E8FA03203AFBD2BDE8F00397
:10B8D00020320BD0042A05D340F8041B043A05D0CB
:10B8E000042AF9D200F8011B013AFBD160467047E7
:10B8F00084460020002918BF002A0ED0097848B2DB
:10B9000000280BD4BCF1000F18BFCCF800100021A8
:10B91000C3E90011002818BF012070476FF0010033
:10B9200070477F298EBF6FF00100017001207047C2
:10B9300042F2B031C2F200010968002904BF42F2AC
:10B940009C21C2F20001496889680A6808211047F1
:10B950007F280BD84CF68052C0F20202515C4CF6A4
:10B960000052C0F20202105C08407047002070478D
:10B97000A0F161011A2938BF20387047A0F14101B8
:10B980001A2938BF40F0200070477F280BD84CF6AA
:10B990008052C0F20202515C4CF60052C0F2020228
:10B9A000105C0840704700207047A0F161011A291F
:10B9B00038BF20387047A0F141011A2938BF40F044
:04B9C00020007047AC
:10B9C4000000000048BE0200000000007CC4020029
:10B9D400000000008CC40200000000009CC40200AF
:10B9E40000000000ACC40200000000002CC80200EB
:08B9F400D5AA020000000000CA
:08B9FC00FDAA0200000000009A
:10BA040041B60200000000000DB702000000000073
:08BA140019AA02000000000065
:10BA1C000000000000000000E17302000070020052
:04BA2C000080020094
:10BA30000000000000000000000000000000000006
:08BA40000000000000000000FE
:10BA4800433A5C55736572735C48495C4465736B33
:10BA5800746F705C617368656E5C6E5246355F53D7
:10BA6800444B5F31372E312E305F64646465353660
:10BA7800305C6E5246355F53444B5F31372E312E62
:10BA8800305F646464653536305C6578616D706C10
:10BA980065735C6A65736963615C666C6173685F32
:10BAA8006673746F726167655C6D61696E2E6300A1
:10BAB8002E2E2F2E2E2F2E2E2F2E2E2F2E2E2F2E99
:10BAC8002E2F6D6F64756C65732F6E7266782F6894
:10BAD800616C2F6E72665F6770696F2E6800000078
:10BAE800433A5C55736572735C48495C4465736B93
:10BAF800746F705C617368656E5C6E5246355F5337
:10BB0800444B5F31372E312E305F646464653536BF
:10BB1800305C6E5246355F53444B5F31372E312EC1
:10BB2800305F646464653536305C636F6D706F6E6A
:10BB3800656E74735C626F617264735C626F61726C
:10BB480064732E63000000000608290C433A5C5514
:10BB5800736572735C48495C4465736B746F705CA1
:10BB6800617368656E5C6E5246355F53444B5F3156
:10BB7800372E312E305F646464653536305C6E5222
:10BB880046355F53444B5F31372E312E305F646446
:10BB980064653536305C6D6F64756C65735C6E72A8
:10BBA80066785C647269766572735C7372635C70E4
:10BBB80072735C6E7266785F7072732E6300000039
:10BBC800433A5C55736572735C48495C4465736BB2
:10BBD800746F705C617368656E5C6E5246355F5356
:10BBE800444B5F31372E312E305F646464653536DF
:10BBF800305C6E5246355F53444B5F31372E312EE1
:10BC0800305F646464653536305C636F6D706F6E89
:10BC1800656E74735C6C69627261726965735C7578
:10BC280074696C5C6170705F7574696C5F706C616D
:10BC380074666F726D2E6300433A5C557365727358
:10BC48005C48495C4465736B746F705C61736865CC
:10BC58006E5C6E5246355F53444B5F31372E312E42
:10BC6800305F646464653536305C6E5246355F53C8
:10BC7800444B5F31372E312E305F6464646535364E
:10BC8800305C636F6D706F6E656E74735C6C696247
:10BC98007261726965735C62616C6C6F635C6E7211
:10BCA800665F62616C6C6F632E680000426164209D
:10BCB800617267756D656E7420636F756E740000D0
:10BCC80025730D0A092D20456C656D656E7420730A
:10BCD800697A653A092564202B20256420627974E5
:10BCE8006573206F6620646562756720696E666F8C
:10BCF800726D6174696F6E0D0A092D205573616745
:10BD0800653A092575252520282575206F75742025
:10BD18006F6620257520656C656D656E7473290DD9
:10BD28000A092D204D6178696D756D3A09257525CB
:10BD38002520282575206F7574206F6620257520AD
:10BD4800656C656D656E7473290D0A0D0A00000037
:10BD580073746174757300005072696E7420737423
:10BD680061747573206F662062616C6C6F63206903
:10BD78006E7374616E6365732E00000062616C6C93
:10BD88006F630000436F6D6D616E647320666F7240
:10BD98002042414C4C4F43206D616E6167656D6573
:10BDA8006E740000433A5C55736572735C48495C75
:10BDB8004465736B746F705C617368656E5C6E521A
:10BDC80046355F53444B5F31372E312E305F646404
:10BDD80064653536305C6E5246355F53444B5F318F
:10BDE800372E312E305F646464653536305C636F9E
:10BDF8006D706F6E656E74735C6C69627261726986
:10BE080065735C62616C6C6F635C6E72665F6261C5
:10BE18006C6C6F632E63000058BD020060BD0200A9
:10BE280000000000E18402000000000000000000A3
:10BE380000000000000000000000000020BE02001A
:10BE480084BD02008CBD020040BE0200E1840200F5
:10BE5800433A5C55736572735C48495C4465736B1F
:10BE6800746F705C617368656E5C6E5246355F53C3
:10BE7800444B5F31372E312E305F6464646535364C
:10BE8800305C6E5246355F53444B5F31372E312E4E
:10BE9800305F646464653536305C636F6D706F6EF7
:10BEA800656E74735C6C69627261726965735C63F8
:10BEB8006C695C6E72665F636C692E6300000000DB
:10BEC80025630000257300000A0000001B5B256441
:10BED800440000001B5B2564430000001B5B2564D5
:10BEE800410000001B5B2564420000000A25732501
:10BEF800730000005461622066756E6374696F6E2A
:10BF08003A20636F6D6D616E647320636F756E7434
:10BF18006572206F766572666C6F7765642E0A00AD
:10BF28000A2573006E6F74207465726D696E617492
:10BF380065643A2025630A00257325730A0000000A
:10BF48003A20636F6D6D616E64206E6F7420666F4A
:10BF5800756E64002D6800002D2D68656C700000FA
:10BF6800506C6561736520737065636966792061DB
:10BF780020737562636F6D6D616E642E0A00000038
:10BF88000A0A000025732573000000004F707469C9
:10BF98006F6E733A0A0000002020252D2A733A009C
:10BFA80053686F7720636F6D6D616E642068656C90
:10BFB800702E0000202025732573257300000000D3
:10BFC800537562636F6D6D616E64733A0A000000A9
:10BFD80025733A2077726F6E6720706172616D65A4
:10BFE80074657220636F756E740A000025733A25B4
:10BFF8007325730A0000000020756E6B6E6F776EF4
:10C0080020706172616D657465723A2000000000ED
:10C018006F6E00006F6666004563686F2073746119
:10C028007475733A2025730A000000005B25336499
:10C038005D2025730A0000004C6F7374206C6F67D5
:10C04800733A2025750A4D6178206C6F67207175E9
:10C05800657565207574696C697A6174696F6E3A83
:10C068002025752525205B25752F25755D0A00007F
:10C078004E6F20726573706F6E73652066726F6D98
:10C0880020746865207465726D696E616C2C20611E
:10C098007373756D65642038307832342073637239
:10C0A80065656E2073697A650A00000044697361EA
:10C0B800626C6520636F6C6F7265642073796E744F
:10C0C80061782E00456E61626C6520636F6C6F72DB
:10C0D80065642073796E7461782E00004469736119
:10C0E800626C6520434C49206563686F2E2041725D
:10C0F800726F777320616E6420627574746F6E73EB
:10C108003A204261636B73706163652C2044656CEF
:10C118006574652C20456E642C20486F6D652C2055
:10C12800496E7365727420617265206E6F74206841
:10C13800616E646C65642E00456E61626C652043B7
:10C148004C49206563686F2E0000000072657365B6
:10C1580074000000526573657420434C4920737461
:10C16800617469737469637320666F72207468659B
:10C17800204C6F67676572206D6F64756C652E0063
:10C1880073686F770000000047657420434C4920AE
:10C198007374617469737469637320666F72207451
:10C1A8006865204C6F67676572206D6F64756C6594
:10C1B8002E000000636F6C6F72730000546F676726
:10C1C8006C6520636F6C6F7265642073796E74613F
:10C1D800782E00006563686F00000000546F676781
:10C1E8006C6520434C49206563686F2E0000000091
:10C1F8007374617473000000434C49207374617454
:10C208006973746963732E0064656661756C740084
:10C21800417373756D6520383020636861727320CF
:10C2280073637265656E20776964746820616E64F3
:10C238002073656E6420746869732073657474690B
:10C248006E6720746F20746865207465726D696EFE
:10C25800616C2E00636C656172000000436C65615F
:10C26800722073637265656E2E000000636C69004E
:10C2780055736566756C2C206E6F7420556E6978E1
:10C288002D6C696B6520434C4920636F6D6D616E41
:10C2980064732E00686973746F727900436F6D6DF3
:10C2A800616E6420686973746F72792E00000000F3
:10C2B800726573697A650000436F6E736F6C6520F1
:10C2C80067657473207465726D696E616C20736341
:10C2D8007265656E2073697A65206F722061737369
:10C2E800756D657320383020696E20636173652031
:10C2F80074686520726561646F7574206661696C25
:10C30800732E204974206D757374206265206578DA
:10C318006563757465642061667465722065616320
:10C3280068207465726D696E616C207769647468E1
:10C33800206368616E676520746F20656E7375721F
:10C348006520636F72726563742074657874206405
:10C358006973706C61792E00202000001CC00200F7
:10C36800B4C0020000000000C596020018C0020018
:10C37800CCC0020000000000059702000000000089
:10C3880000000000000000000000000000000000A5
:10C3980064C302001CC00200E4C0020000000000E8
:10C3A8006598020018C0020040C1020000000000A9
:10C3B8009B98020000000000000000000000000040
:10C3C80000000000000000009CC3020054C10200ED
:10C3D8005CC10200000000008D9A020088C10200C2
:10C3E80090C1020000000000059A02000000000051
:10C3F8000000000000000000000000000000000035
:10C40800D4C30200BCC10200C4C1020094C302002C
:10C4180045970200DCC10200E4C10200CCC302005F
:10C42800E1970200F8C1020000C2020004C4020041
:10C43800A1990200000000000000000000000000B8
:10C4480000000000000000000CC4020010C202003E
:10C4580018C2020000000000D59A02000000000087
:10C4680000000000000000000000000000000000C4
:10C4780054C402005CC2020064C202000000000052
:10C488007D95020074C2020078C202004CC402000A
:10C498004D9602009CC20200A4C2020000000000E7
:10C4A800D1980200B8C20200C0C2020074C40200DF
:10C4B800519B02001B5B366E00000000000000006C
:10C4C80000000000000000000338FDD8704700009D
:10C4D8001B5B6D002D682C202D2D68656C7000008D
:10C4E8002C200000202D2000020000001B5B4800CB
:10C4F8001B5B324A000000001B5B3F336C000000EE
:10C50800433A5C55736572735C48495C4465736B68
:10C51800746F705C617368656E5C6E5246355F530C
:10C52800444B5F31372E312E305F64646465353695
:10C53800305C6E5246355F53444B5F31372E312E97
:10C54800305F646464653536305C65787465726E36
:10C55800616C5C667072696E74665C6E72665F664A
:10C568007072696E74662E6300000000433A5C5571
:10C57800736572735C48495C4465736B746F705C77
:10C58800617368656E5C6E5246355F53444B5F312C
:10C59800372E312E305F646464653536305C6E52F8
:10C5A80046355F53444B5F31372E312E305F64641C
:10C5B80064653536305C65787465726E616C5C668E
:10C5C8007072696E74665C6E72665F667072696EB0
:10C5D80074665F666F726D61742E6300303132333A
:10C5E8003435363738394142434445460010000057
:10C5F800040000000100000061A80200ADA80200CC
:10C6080049A90200D9A802006DA90200E1A9020007
:10C61800EFA90200FDA90200433A5C5573657273E5
:10C628005C48495C4465736B746F705C61736865E2
:10C638006E5C6E5246355F53444B5F31372E312E58
:10C64800305F646464653536305C6E5246355F53DE
:10C65800444B5F31372E312E305F64646465353664
:10C66800305C636F6D706F6E656E74735C6C69625D
:10C678007261726965735C6D656D6F626A5C6E721A
:10C68800665F6D656D6F626A2E63000042616420AB
:10C69800617267756D656E7420636F756E740000E6
:10C6A8004F766572666C6F77000000004E6F206FE2
:10C6B800766572666C6F770025730D0A092D204523
:10C6C8006C656D656E742073697A653A0925640D29
:10C6D8000A092D2055736167653A092575252520B6
:10C6E800282575206F7574206F6620257520656C68
:10C6F800656D656E7473290D0A092D204D61786981
:10C708006D756D3A092575252520282575206F75C5
:10C7180074206F6620257520656C656D656E747371
:10C72800290D0A092D204D6F64653A090925730DF5
:10C738000A0D0A0073746174757300005072696E93
:10C748007420737461747573206F662071756575D4
:10C758006520696E7374616E6365732E0000000056
:10C768007175657565000000436F6D6D616E64736A
:10C7780020666F722042414C4C4F43206D616E61C0
:10C7880067656D656E740000433A5C557365727336
:10C798005C48495C4465736B746F705C6173686571
:10C7A8006E5C6E5246355F53444B5F31372E312EE7
:10C7B800305F646464653536305C6E5246355F536D
:10C7C800444B5F31372E312E305F646464653536F3
:10C7D800305C636F6D706F6E656E74735C6C6962EC
:10C7E8007261726965735C71756575655C6E726698
:10C7F8005F71756575652E63000000003CC7020017
:10C8080044C7020000000000C9AC0200000000009C
:10C818000000000000000000000000000000000010
:10C8280004C8020068C7020070C7020024C80200DA
:10C83800C9AC020001000000433A5C55736572738D
:10C848005C48495C4465736B746F705C61736865C0
:10C858006E5C6E5246355F53444B5F31372E312E36
:10C86800305F646464653536305C6E5246355F53BC
:10C87800444B5F31372E312E305F64646465353642
:10C88800305C636F6D706F6E656E74735C6C69623B
:10C898007261726965735C6578706572696D656EE1
:10C8A80074616C5F73656374696F6E5F76617273D0
:10C8B8005C6E72665F73656374696F6E5F697465D9
:10C8C800722E63002E2E2F2E2E2F2E2E2F2E2E2F31
:10C8D8002E2E2F2E2E2F636F6D706F6E656E7473F4
:10C8E8002F6C69627261726965732F657870657201
:10C8F800696D656E74616C5F73656374696F6E5F93
:10C90800766172732F6E72665F73656374696F6E9A
:10C918005F697465722E6800433A5C55736572737B
:10C928005C48495C4465736B746F705C61736865DF
:10C938006E5C6E5246355F53444B5F31372E312E55
:10C94800305F646464653536305C6E5246355F53DB
:10C95800444B5F31372E312E305F64646465353661
:10C96800305C636F6D706F6E656E74735C736F6649
:10C97800746465766963655C636F6D6D6F6E5C6E1C
:10C9880072665F7364682E63000000000100000790
:10C99800F4B90200FCB9020008000000FCB902006A
:10C9A80004BA02000800000004BA020014BA020027
:10C9B800080000002E2E2F2E2E2F2E2E2F2E2E2F3B
:10C9C8002E2E2F2E2E2F636F6D706F6E656E747303
:10C9D8002F6C69627261726965732F657870657210
:10C9E800696D656E74616C5F73656374696F6E5FA2
:10C9F800766172732F6E72665F73656374696F6EAA
:10CA08005F697465722E6800433A5C55736572738A
:10CA18005C48495C4465736B746F705C61736865EE
:10CA28006E5C6E5246355F53444B5F31372E312E64
:10CA3800305F646464653536305C6E5246355F53EA
:10CA4800444B5F31372E312E305F64646465353670
:10CA5800305C636F6D706F6E656E74735C736F6658
:10CA6800746465766963655C636F6D6D6F6E5C6E2B
:10CA780072665F7364685F626C652E630000000015
:10CA8800C4B90200C4B90200080000002E2E2F2EDF
:10CA98002E2F2E2E2F2E2E2F2E2E2F2E2E2F636F33
:10CAA8006D706F6E656E74732F6C696272617269F6
:10CAB80065732F6578706572696D656E74616C5FFA
